:100F1A0061646376616C756574656D703D25640AFC
:100F2A000061646376616C75653D25640A006261DF
:100F3A00743D25302E34660A00706F776572206C16
:100F4A006576656C3D25640A0074656D706C65761E
:100F5A00656C3D25640A006164635F7072655F6356
:100F6A006E743D25640A00737973696E6974206F23
:100F7A007665720A007764742072657365740A0074
:100F8A00696E697420737461676520410A00696E2D
:100F9A00697420737461676520420A006D6F746F0B
:100FAA0072206C6576656C3D25640A00696E697409
:100FBA0020737461676520430A00696E697420733F
:100FCA007461676520440A006D6F746F722D6C6FCF
:100FDA00636B65642C25640A00656E74657220640F
:040FEA0070640A0025
:031C7E00013B0027
:1019C4008F4C8E4B8D4A8C4953B1FB53B2FB53B3AE
:1019D400BF53B4BF75F85075C40853C4DFAB4CAAE9
:1019E4004BA94AA8497F407E427D0F7C0012059A8C
:1019F400C374FF9FFF74FF9EFEE49DFDE49CFC788E
:101A04000812063A8FC6AB4CAA4BA94AA8497F4094
:101A14007E427D0F7C0012059AC374FF9FFF8FC521
:041A240043C408228D
:0700030030F8FDAF9AC2F8CE
:01000A0022D3
:081C6E00C2F98F9A30F9FD2242
:081C760030F9FDC2F98F9A223A
:03000B00021C11C3
:101C1100C0E0758CE5758AF57537010541E54170C0
:101C210002054005260515E51570020514D0E032C0
:101C31007589FF5389F0438901538EF7758CE575DA
:091C41008AF5D2A9D2AFD28C229F
:10001600E4FFFEFDED25E02427F8E6FA08E62FFFCB
:10002600EA3EFE0DBD08EDEF7803CEC313CE13D81E
:02003600F9FFD0
:0100380022A5
:10193500BD01067A007B1E8015BD02067A007B1468
:10194500800CBD03067A007B0A8003E4FAFBE53AC6
:10195500B401028013E53AB40202800CE53AB403FF
:10196500028005E53AB40405C374B48046E53AB48B
:10197500051FD3EF9448EE940D400474508034D382
:10198500EF94E4EE940C4004745A8003C374A08071
:1019950022E53AB40624D3EF9448EE940D4004743E
:1019A500288010D3EF94E4EE940C4004743C80033B
:0E19B500C374829BF582E49AF583AF82AE8301
:0119C3002201
:10100000E526D39F50024150E4F526759504C2EFC2
:10101000D2EE30EFFDE4F595AFC3F54A8F4BE54BCB
:10102000C4F8540FC868F54BE54AC454F048F54A73
:10103000E5C2540F424BE54325E02427F8A64A08B1
:10104000A64B0543E543C3940850024150E4F543E1
:10105000E544D3940040037F00221200168E4A8F8D
:101060004B7BFF7A0F791A854A4F854B501206E564
:10107000E513B40113121BA0BF01028019BF0204C3
:101080007410801474188010E513B4020474108076
:1010900007E513B4040B7408254BF54BE4354AF50A
:1010A0004A200E2CC3E54B94B8E54A940B500875C2
:1010B000380B7539B88019D3E54B9448E54A940D3F
:1010C000400875380C7539E48006854A38854B39F7
:1010D000300C59E53945387006854A38854B39E575
:1010E000392408FFE43538FED3E54B9FE54A9E409E
:1010F00015053BE53BD394084032E4F53B740525E8
:1011000039F539E4801EE53924F8FFE53834FFFE6F
:10111000C3E54B9FE54A9EE45010F53B74FB25392F
:10112000F53974FF3538F5388002F53B7BFF7A0FCF
:10113000792B85384F8539501206E5AC38AD39E446
:101140001201E97B8F7AC27955784012003EE4FBA8
:10115000FA79807845120147E4FBFA794078401229
:10116000003E8F3F8E3E8D3D8C3C7BFF7A0F793861
:101170008F528E518D508C4F1206E5D3E53994D0A5
:10118000E538940C400A754906300A47D20F80436F
:10119000D3E53994A0E538940C40057549058033B2
:1011A000D3E5399440E538940C4005754904802313
:1011B000D3E53994E0E538940B4005754903801375
:1011C000D3E53994A0E538940B40057549028003B6
:1011D000754901200F74E53A6549600405458003AF
:1011E000E4F545754600853A477BFF7A0F794385DC
:1011F000464F8547501206E57546008549477BFFF7
:101200007A0F795385464F8547501206E57546009B
:101210008545477BFF7A0F796185464F8547501298
:1012200006E5E545D394054024E4F545300A09E593
:1012300049D3953A4017800DE5136009E549C395F8
:101240003A500A800085493A8003753A067F0122A8
:021250007F001D
:011252002279
:10177B00A2AF920BC2AF75C7AA75C755439F01A203
:10178B000B92AF75A604E4F5A775AE0F75AFE1A28A
:10179B00AF920BC2AF75C7AA75C75543A504A20B71
:1017AB0092AFA2AF920BC2AF75C7AA75C75543A430
:1017BB0001A20B92AFE59F20E6FBA2AF920BC2AF4B
:1017CB0075C7AA75C75553A5FBA20B92AFA2AF92D3
:1017DB000BC2AF75C7AA75C755539FFEA20B92AF2D
:0117EB0022DB
:10125300A2AF920BC2AF75C7AA75C755439F01A230
:101263000B92AFE4F5A6F5A775AFC0A2AF920BC280
:10127300AF75C7AA75C75543A401A20B92AFAFAE12
:1012830075A601A2AF920BC2AF75C7AA75C7554326
:10129300A401A20B92AFAEAE75A602A2AF920BC28F
:1012A300AF75C7AA75C75543A401A20B92AFADAEE4
:1012B30075A603A2AF920BC2AF75C7AA75C75543F4
:1012C300A401A20B92AFACAE75A604A2AF920BC25F
:1012D300AF75C7AA75C75543A401A20B92AFABAEB6
:1012E3004303F0A2AF920BC2AF75C7AA75C75543AC
:1012F300A504A20B92AF75AFE2F5A7F5A675AEFFF5
:10130300A2AF920BC2AF75C7AA75C75543A401A27A
:101313000B92AF75AFE18FAEA2AF920BC2AF75C7A1
:10132300AA75C75543A401A20B92AF75A6018EAE51
:10133300A2AF920BC2AF75C7AA75C75543A401A24A
:101343000B92AF75A6028DAEA2AF920BC2AF75C75B
:10135300AA75C75543A401A20B92AF75A6038CAE21
:10136300A2AF920BC2AF75C7AA75C75543A401A21A
:101373000B92AF75A6048BAEA2AF920BC2AF75C72B
:10138300AA75C75543A401A20B92AFA2AF920BC299
:10139300AF75C7AA75C75553A5FBA20B92AFA2AFF2
:1013A300920BC2AF75C7AA75C755539FFEA20B9286
:0113B300AF8A
:0113B4002216
:1018A000121253E4F540F541F5B1F5B2F5B3F5B4D4
:1018B000F5ACF5AD53E1FE121A28E4FF121C63E407
:1018C000FF12000E121B7543B12053B2DF3085FDAD
:1018D000A2AF920B75C7AA75C75575910143B42085
:1018E00075C7AA75C755E4F591A20B92AF53E9FBF2
:1018F00043E94043EA2053EBDF439B02D2AF43B3BB
:101900008053B47F3087FDA2AF920B75C7AA75C70D
:101910005575910143B38075C7AA75C755E4F59114
:10192000A20B92AFD2AA438702F5E9C2A8C2AA537A
:051930009BFDD209221D
:101568007F007EC27D017C001219C4D2F9E4F5E93E
:10157800C2A8C2AA539BFD121B3C121C31E4F526DB
:10158800F543121BEF121BC9752501D20DE4F52393
:10159800F524F542C20AF545F538F53953E8F04324
:1015A800E80243B18053B27FF5F643F60443E10104
:1015B800200C1DF540F541C3E541942CE54094010C
:1015C800500C208502D20AE4FF12100080E9D20CE8
:1015D800E4F540F541F514F515F526300E0375448C
:1015E800C8C20F7BFF7A0F79711206E57546008530
:1015F8003A477BFF7A0F794385464F854750120655
:10160800E5E5AA30E31C7BFF7A0F797F1206E5A295
:10161800AF920BC2AF75C7AA75C75553AAF7A20BED
:0516280092AF02177BE8
:100AF200E4F5B1F5B2F5B3F5B4F5ACF5ADD209C292
:100B02000CC20E300905121568C209E53760F4E51A
:100B12002445236008E524152470021523121800C9
:100B22008F48E52564017057300D277BFF7A0F79D6
:100B32008A1206E5C20D121A28E4FF121A78E4FF9F
:100B420012000EE4F540F541C20AF543300E03757A
:100B520044C8E54830E010752302752458AF2512C9
:100B62001A78E4F540F541E54830E105752502D2F1
:100B72000DE54820E202A12E752504D20DA12EE535
:100B82002564026002812E300D327BFF7A0F799844
:100B92001206E5C20DE4F540F541C20AAF13120098
:100BA2000EE5137003FF8002AF25121A7875140246
:100BB200751558E4F543300E037544C8E54830E036
:100BC20030120DAF7546008513477BFF7A0F79A669
:100BD20085464F8547501206E5AF1312000EAF252A
:100BE200121A78E4F543300E037544C8E4F540F573
:100BF20041E54820E112752501D20D121A28E4FFC1
:100C020012000EE4FF121A78E54830E20575250855
:100C1200D20DE54820E302A12E121A28E4FF1200A9
:100C22000EE4F543300E4B7544C8A129E525640452
:100C32007050300D2E7BFF7A0F79B61206E5C20D89
:100C4200E4F540F541D20A121A28E4FF12000EAF71
:100C520025121A78751402751558E4F543300E03FF
:100C62007544C8E54830E105752508D20DE54830E0
:100C7200E202A129752501C20AE4FF121A78D20DF7
:100C8200A12EE52564086002A12E300D257BFF7A96
:100C92000F79C41206E5C20DE4F540F541D20AAF60
:100CA2001312000EAF25121A78E4F543300E0375C5
:100CB20044C8E54830E02B120DAF75460085134756
:100CC2007BFF7A0F79A685464F8547501206E5AF1E
:100CD2001312000EE4F543300E037544C8E4F540E8
:100CE200F541E54820E10D752504D20D121A28E4DC
:100CF200FF12000EE54830E207E4F540F5418011AD
:100D0200752502C20AAF1312000EAF25121A78D24D
:100D12000DE54830E316121A28E4FF12000EE4F53E
:100D220043300E037544C8E4F540F5417F051210C7
:100D320000E544D3940040021544300F0CE54830DE
:100D4200E205753A068002C20F1213B5EF60227BEC
:100D5200FF7A0F79D2754F037550341206E5121AD5
:100D620028E4FF12000ED20DE4F543300E03754461
:100D7200C8E5136005E4F540F541AF251216D9C365
:100D8200E54194D0E5409407400ED20E7BFF7A0FE6
:100D920079E31206E51218A0A2AF920BC2AF75C793
:0D0DA200AA75C75543AA40A20B92AF610588
:03001300020011D7
:0100110032BC
:03003B00021ABEE8
:101ABE00C0E0C0F0C083C082C0D075D000C000C0EE
:101ACE0001C002C003C004C005C006C007E5ECB4E7
:101ADE0010031217EC75EC00D007D006D005D00419
:101AEE00D003D002D001D000D0D0D082D083D0F09D
:031AFE00D0E03203
:041C81000214000049
:101B3C0053B3F743B40853B1FE43B20153B1FD4361
:101B4C00B20253B1F743B208C293C280C281C283BE
:101B5C0053B3FE43B40153B3FD43B40253B3DF4359
:091B6C00B420C290C291C295227E
:101B750043B30843B40843B10143B20143B102433F
:101B8500B20243B10843B20843B30143B40143B3BE
:0B1B95000243B40243B32043B42022FB
:101C4A00EF139293EFC313FF139280EFC313FF13A3
:091C5A009281EFC313139283225F
:0B1C6300121C4AE4F514F515C2132210
:100FEE00EF139290EFC313FF139295EFC313139267
:020FFE0091223E
:03000E00020FEEF0
:0914A100D213F514751501AF0416
:1014AA00EF6401702AE53AC3940540047E0FA165F2
:1014BA00E53AB404047E07A165E53AB403047E0361
:1014CA00A165E53AB402047E01A165E4FEA165EFD7
:1014DA0064047028E53AB406047E0F807EE53AB4C7
:1014EA0005047E078075E53AB404047E03806CE542
:1014FA003AB403047E018063E4FE805FEF64027005
:10150A002FE53AC3940540047E0F804FE53AB404B0
:10151A00047E078046E53AB403047E03803DE53A3B
:10152A00B402047E018034E53A6401702EFE802BF9
:10153A00EF64087026E53AB406047E0F801DE53A8A
:10154A00B405047E078014E53AB404047E03800BD4
:0D155A00E53AB403047E018002E4FEAF0612
:011567002261
:021A7800AC07B9
:101A7A00E4F514F515EC7003FF8035BC0109AF04D9
:101A8A001214AAAD078029BC0409AF041214AAAD26
:101A9A0007801DBC0212AF041214AAAD07ED700430
:101AAA007F01800CAF058008BC0808AF041214AA95
:031ABA00121C6398
:011ABD002206
:0216D900AC075C
:1016DB00BC0113C3E5159458E51494025002E17A4A
:1016EB00E4FCFF021C63EC64047015C3E515946401
:1016FB00E51494004079E4F514F51520132B805173
:10170B00EC64027034C3E5159432E5149400405F29
:10171B00E4F514F5152013111214A1AD07ED7005A6
:10172B00ED25E004FDAF058043C213E4F514F51578
:10173B00AF041214AAAD078033EC64087031C3E513
:10174B00159464E51494004026E4F514F515201364
:10175B000D1214A1AD07ED25E004FDFF800EC213A1
:0F176B00E4F514F515AF041214AAAD07121C4AC9
:01177A00224C
:101BEF00E4F50DF50CF50AF50BC214F509F50843EC
:101BFF00B38053B47F43AC0153ADFE43B12053B216
:021C0F00DF22D2
:10180000E4FFE5377002019FE4F537201407A29743
:1018100033F50D800D309707C214E4F50AF50B85FA
:101820000C0DE50D650C6017850D0CD3E50B940AC6
:10183000E50A940040027F01E4F50AF50B8032E5E9
:101840000D702E050BE50B7002050AC394F4E50A32
:1018500094014008750A01750BF48015C3E50B94DB
:1018600090E50A9401400A750A01750BF47F08D2CD
:101870001430B005E4F509800F0509E509D3941487
:101880004006750914430702308505E4F508800F0A
:0F1890000508E508D394144006750814430704AF
:01189F002226
:101B010043B38053B47FA2AF920B75C7AA75C75573
:101B110075910143B18075C7AA75C755E4F591A2C6
:101B21000B92AF43E90143E98043EA8053EB7F43E2
:0B1B31009B02D2AF43870253E9FE2263
:0F17EC00E511D3940040021511301002D21122E2
:101BC900E4F51353B3FB43B404D292C210C211F526
:101BD90012F51153B1BF43B240C28653B1EF43B2BC
:061BE90010C284C21222AA
:101A2800539BFDE4F51353DEFEA2AF920BC2AF75D4
:101A3800C7AA75C755439101A20B92AFF5D2F5DA43
:101A4800A2AF920BC2AF75C7AA75C7555391FEA234
:101A58000B92AFD2DEC2DCC292C210C211F511F5F0
:101A680012C284C28653B3FB43B404C292C2122288
:100DAF00E5136002C170D286A2AF920B75C7AA7508
:100DBF00C75575910143B41075C7AA75C755F591FD
:100DCF00A20B92AF43B31053B4EF43E90143E94091
:100DDF0053EAEF43EB10439B0253B3FB53B4FB4374
:100DEF00DE0153DF3F538EBF75D10375D9E7A2AF35
:100DFF00920BC2AF75C7AA75C755439101A20B924B
:100E0F00AF75D20175DAF3A2AF920BC2AF75C7AA55
:100E1F0075C7555391FEA20B92AFD2DEA2AF920BC4
:100E2F00C2AF75C7AA75C755439101A20B92AF7593
:100E3F00D20175DA80A2AF920BC2AF75C7AA75C780
:100E4F00555391FEA20B92AFD2DED2DF751301750F
:100E5F000F01751080F50EC212D210F512D284E177
:100E6F0015E5136401705A75130243DE0153DF3F1A
:100E7F00538EBF75D10375D9E7A2AF920BC2AF7571
:100E8F00C7AA75C755439101A20B92AF75D20175D1
:100E9F00DAF3A2AF920BC2AF75C7AA75C7555391BC
:100EAF00FEA20B92AFD2DEA2AF920BC2AF75C7AA52
:100EBF0075C755439101A20B92AFF5D275DAF08049
:100ECF0022E51364027037751304A2AF920BC2AF01
:100EDF0075C7AA75C755439101A20B92AF75D20181
:100EEF0075DA80A2AF920BC2AF75C7AA75C75553FB
:100EFF0091FEA20B92AFD2DED2DFC2128008E513B1
:0B0F0F00B40403121A28AF137E002266
:0317FB00AF132207
:101BA0003012037F0022AFD2EFFEADDAEDFFD3EFAC
:101BB0009420EE940140037F0122D3EF9480EE94B1
:081BC0000040037F02227F03B5
:011BC80022FA
:1013B50030103E0512E512C3943C4035051120114D
:1013C5000AE512D3946440297F0122301123121BB0
:1013D500A07E00EF640170047C0A800CEF64024E6D
:1013E50070047C0880027C05E511C39C40037F01E5
:1013F50022E51364016002819E301202819E050E72
:10140500E50EC394145002819EE4F50E74FA25107E
:10141500F51074FF350FF50FC3E510940AE50F9429
:1014250000404074FA2510F51074FF350FF50FA232
:10143500AF920BC2AF75C7AA75C755439101A20BF1
:1014450092AFE50FF5D2E510F5DAA2AF920BC2AF78
:1014550075C7AA75C7555391FEA20B92AFD2DEC2CE
:10146500DC8036D21253DEFEA2AF920BC2AF75C737
:10147500AA75C755439101A20B92AFE4F5D2F5DAEF
:10148500A2AF920BC2AF75C7AA75C7555391FEA2FD
:0B1495000B92AFD2DEC2DCC2927F00DF
:0114A0002229
:0300000002162DB8
:10162D0075C7AA75C75575FD5A75C7AA75C755757E
:10163D00FDA5787FE4F6D8FD9000007FFF7E03E4E2
:0C164D00F0A3DFFCDEFA75816702169442
:10003E00EC4D6011E8497017ED33EC3304600DE4BC
:10004E00FCFFFEFD22E933E8330470F8020257127A
:10005E00022258046009E4CC24815006285009027B
:10006E00026128400302025EC0E0EB4A7044B98090
:10007E0006D0E0FB02024DEF4E701CBD8008EBFF78
:10008E00EAFEE9FD80EBE98DF0A4FEE5F002012722
:10009E00E9CDF9EAFEEBFFEF89F0A4FCE5F0CE899D
:1000AE00F0A42EFFE435F0CD89F0A42DFEE435F05A
:1000BE008067EF4E7005BD80D780C3EF8BF0A4AC88
:1000CE00F0EE8BF0A42CFCE435F0F8EF8AF0A42CC3
:1000DE00E5F038FCE433CB8DF0A42CFCE5F03BF8D6
:1000EE00EE8AF0A42CFCE5F038F8E433CF89F0A4C6
:1000FE002CFCE5F038CF3400CE89F0A42FFFE5F0CC
:10010E003EFEE433C98DF0A42EFEE5F039CD8AF023
:10011E00A42FFFE5F03EFEE43DFD33D0E0FB50079B
:10012E000BBB000F020261EC2CFCEF33FFEE33FE33
:06013E00ED33FD02023961
:10014400020261EC5D046005E85904700302025781
:10015400120222580460F6EC4860F2EC7004FDFED2
:10016400FF22C860DB2481C85009C398600250068E
:1001740002025E9850CAF582E9294B4A7005AB82A7
:1001840002024D75F0007C1A7880C3EF9BEE9AED65
:1001940099400DC3EF9BFFEE9AFEED99FDE842F006
:1001A400DC23ACF0D0E0FFD0E0FED0E0FDAB822059
:1001B400E7101BEB60BAEC2CFCEF33FFEE33FEEDE3
:1001C40033FD020239E803F830E705C0F075F000AA
:1001D400EF2FFFEE33FEED33FD40B830E7C280AAC7
:1001E40075F020800E75F010800575F0087D007E96
:1001F400007F003392D530D50312062CEC33401027
:10020400EF33FFEE33FEED33FDEC33FCD5F0ED229E
:0E021400E5F0247EA2D513CC92E7CDCEFF22DA
:10068300E563244FF8E6056322784C300702784F80
:10069300E475F00112064D0205062000EB7F2ED211
:1006A300008018EF540F2490D43440D4FF30040B4F
:1006B300EF24BFB41A0050032461FFE56460021500
:1006C300640567E5677002056630070D784CE475CD
:1006D300F00112064DEF02054C021C767403D2079B
:1006E3008003E4C207F5638B4C8A4D894EE4F564BD
:1006F300F566F567E56460077F201206BE80F57531
:1007030065FFC201C200C202C203C205C206C2081B
:1007130012068CFF700D3007057F001206CFAF67FE
:10072300AE6622B4255FC2D5C20412068CFF24D064
:10073300B40A00501A75F00A786430D50508B6FF7C
:100743000106C6A426F620D5047002D20380D9245C
:10075300CFB41A00EF5004C2E5D2040209BCD2019F
:1007630080C6D20080C0D20280BCD2D580BAD20566
:1007730080B47F201206BE2002077401B5640040D6
:10078300F1120683FF1206BE0206F7D208D20680D4
:1007930095120683FB120683FA120683F94A4B70FD
:1007A3000679B37A0A7BFF20022EE564602A7E0075
:1007B3008E8275830012051F60060EEE656570F06C
:1007C300C2D5EBC0E0EAC0E0E9C0E0EE120A1CD0FB
:1007D300E0F9D0E0FAD0E0FB120506FF60AAEBC017
:1007E300E0EAC0E0E9C0E01206BED0E02401F9D09F
:1007F300E03400FAD0E0FBE5650460DCD565D98020
:1008030087D20280A21209FF60F7E5657001041226
:10081300026CA965600DE565600914F565120AA609
:10082300EF60F3EA30E702F404C3995077EAF42562
:10083300650430E701E404F565800D1209FF60C12A
:10084300EA0565256512026CEA7862F630E701E491
:10085300256504D5650420050114120A1CE4C0E0D3
:10086300120AA67862E6601320E70714F61206A6BA
:10087300802204F6D0E014C0E07F001206A6E565EE
:10088300600712069D1565800B30050312069DD087
:10089300E00206F7D0E00480C51209FF60A0E56519
:1008A3000412026C7862EAF6E56520050260010431
:0508B3002404120A1CE0
:1008B80074FF04C0E0120AA61206A6E56520050228
:1008C800600312069DD0E0B565E87F451206B07852
:1008D80062E67F2B30E7047F2DF404C0E01206BEE9
:1008E800D0E075F00A84C0F01206A7D0E01206A77F
:1008F8000206F7791080027908C206C2088008D279
:10090800D5790A8004790AC2D5E565047002F565CF
:10091800E4FAFDFEFF120683FC7B08200113120691
:1009280083FD7B1030000A120683FE120683FF7BCC
:1009380020EC3382D592D55013C3E43000069FFFD4
:10094800E49EFEE42001039DFDE49CFCE4CBF8C298
:1009580001EC700CCFCECDCCE824F8F870F38017FA
:10096800C3EF33FFEE33FEED33FDEC33FCEB33FB2B
:10097800994002FB0FD8E9EB300105F8D0E0C448F4
:10098800B201C0E00AEC4D4E4F78207B0070C2EAFD
:10099800B5650040BCC0E0120A1ED0F0D0E02001CE
:1009A80004C4C0E0C4B201C0F01206A7D0F0D5F06C
:1009B800EB0206F712065D07945308FB5807654CCF
:1009C80007614208FF4F090744090749077A4309A5
:1009D8000D55083E46089C450808470AD350076944
:1009E8002D076D2E07902B077123078E200ABC2A2E
:1009F80007294800000788E565B4FF0375650612F6
:100A08000683FC120683FD120683FE120683FF7816
:100A18005B02029B790AA2D5200314300509B9109C
:100A2800020404B9080104A2D520060250010420DA
:100A380002689202B564005034C0E07F2030031988
:100A48007F30A20272067205500F120A75C202C2E6
:100A580006C205C2087F30800F300503E9C0E012E6
:100A680006BE300503D0E0F9D0E0B564CC300517F8
:100A78007F30B9100C1206BE7F583004077F78808B
:100A880003B908031206BE3002057F2D0206BE7F99
:100A9800202008F87F2B2006F322920280CF7F00C7
:100AA800B407005005245BF8E6FF22286E756C6CCD
:100AB8002900D2011206833001F8C201786430D5CA
:100AC8000108F60207292D504349581206832403CA
:100AD800B405004001E4900ACE931206AF743A12AE
:0A0AE80006AFD2037564040208FB98
:10022200E9D2E7C933E833F892D5EDD2E7CD33EC22
:0702320033FC5002B2D5229B
:10023900EC30E7100FBF000C0EBE00080DBD000426
:100249000BEB6014A2D5EB13FCED92E7FD2274FFD2
:10025900FCFDFEFF22E480F8A2D574FF13FC7D802B
:03026900E480EF3F
:10026C00F920E72824F950037907E4F42402FB1859
:10027C00DBFDE624FB5014E9600DE4F618E604F609
:0F028C00B40A08E4F6D9F57401F60A22C2D522A5
:10029B00ED33EC3392D5FA602AB4FF33EDC2E77B32
:1002AB00FF60067A0279C0E4227A0279C920D5046C
:1002BB007A0279C4224E614E002B494E46002D49DD
:1002CB004E4600E47A08F608DAFC7B00740722E855
:1002DB00C0E0ECC0E0EDC0E0EEC0E0EFC0E0EA75DE
:1002EB00F010A4CAABF075F04DA42BFBE435F0FC79
:1002FB00EA2410FAEB34C5FBEC34D9FCEDC2E7FF72
:10030B0075F056A4F42411C5F0F434C58FF0A42A6B
:10031B00E5F03BE43CF620E7141204C6D0E0FFD036
:10032B00E0FED0E0FDD0E0FC1201478014F4041293
:10033B0004C6D0E0FFD0E0FED0E0FDD0E0FC120020
:10034B003ED0E0F8E6FAEDD2E7CD33EC332482FB76
:10035B00E4C3CF33CFCE33CECD33CD33DBF37B07FB
:10036B0075F00A846004F6081B0AE5F0F6088FF0B6
:10037B00740AA4FFACF08EF0740AA42CFEACF050FF
:10038B00010C8DF0740AA42CFDE435F0F608DBDECD
:03039B00740722C2
:10039E00020257E86480F8E933E83360110460F034
:1003AE00ED33EC337009E8FCE9FDEAFEEBFF2204C5
:1003BE0060DED3EB9FEA9EE99DE8C2E78CF0C2F7C0
:1003CE0095F0400CE8CCF8E9CDF9EACEFAEBCFFB8C
:1003DE0012022285D0F05804700320D5B3E80470C1
:1003EE00075002B2D502026192D5EC0460F7E4CC5C
:1003FE00C0E0C398F8603B94186008400DD0E0FB55
:10040E00020239E4FBFAC9FC8028E830E406E4C9AC
:10041E00FBE4CAFCE830E305E4C9CACBFCE85407A8
:10042E006010F8C3E913F9EA13FAEB13FBEC13FCB3
:10043E00D8F130F52FC3E49CFCEF9BFFEE9AFEED56
:10044E0099FDD0E0FBEF4E4D4C701222DB03020201
:10045E005EEC2CFCEF33FFEE33FEED33FDED30E7BB
:10046E00EB020239EF2BFFEE3AFEED39FDD0E0FB49
:10047E0050130BBB0003020261ED13FDEE13FEEFF2
:08048E0013FFEC13FC0202391C
:100496003F8000004120000042C80000447A00006E
:1004A600461C400047C35000497424004B189680F0
:1004B6004CBEBC205A0E1BCA6753C21C749DC5AEE7
:1004C600FB60065407601C23231204F4EB543860C7
:1004D600091204E01204EF12003EECF8EDF9EEFA10
:1004E600EFCB22EB1204EF80F1543803241C900466
:1004F60096FE93FC0EEE93FD0EEE930ECE93FF2228
:10165900020AF2E493A3F8E493A34003F68001F2AB
:1016690008DFF48029E493A3F85407240CC8C33392
:10167900C4540F4420C8834004F456800146F6DF61
:10168900E4800B0102040810204080901C7EE47E57
:10169900019360BCA3FF543F30E509541FFEE49356
:1016A900A360010ECF54C025E060A840B8E493A31D
:1016B900FAE493A3F8E493A3C8C582C8CAC583CA48
:1016C900F0A3C8C582C8CAC583CADFE9DEE780BE00
:011C8500005E
:10050600BB010689828A83E0225002E722BBFE02F3
:09051600E32289828A83E4932226
:10051F00BB010CE58229F582E5833AF583E0225091
:10052F0006E92582F8E622BBFE06E92582F8E222DB
:0D053F00E58229F582E5833AF583E49322F5
:10054C00BB010689828A83F0225002F722BBFE018E
:02055C00F32288
:10055E0075F008758200EF2FFFEE33FECD33CDCC54
:10056E0033CCC58233C5829BED9AEC99E5829840D7
:10057E000CF582EE9BFEED9AFDEC99FC0FD5F0D6B4
:10058E00E4CEFBE4CDFAE4CCF9A88222B800C1B9DE
:10059E000059BA002DEC8BF084CFCECDFCE5F0CB1C
:1005AE00F97818EF2FFFEE33FEED33FDEC33FCEB55
:1005BE0033FB10D703994004EB99FB0FD8E5E4F910
:1005CE00FA227818EF2FFFEE33FEED33FDEC33FCFD
:1005DE00C933C910D7059BE99A4007EC9BFCE99AF1
:1005EE00F90FD8E0E4C9FAE4CCFB2275F010EF2F36
:1005FE00FFEE33FEED33FDCC33CCC833C810D70736
:10060E009BEC9AE899400AED9BFDEC9AFCE899F870
:0E061E000FD5F0DAE4CDFBE4CCFAE4C8F92203
:0E062C00C3E49FFFE49EFEE49DFDE49CFC22DF
:10063A00E8600FECC313FCED13FDEE13FEEF13FF9E
:03064A00D8F122C2
:10064D00FAE6FB0808E6F925F0F618E6CA3AF622AE
:10065D00D083D082F8E4937012740193700DA3A32C
:10066D0093F8740193F5828883E473740293686040
:06067D00EFA3A3A380DF40
:00000001FF
