:1014A10061646376616C756574656D703D25640A70
:1014B1000061646376616C75653D25640A00626153
:1014C100743D25302E34660A00706F776572206C8A
:1014D1006576656C3D25640A0074656D706C657692
:1014E100656C3D25640A006164635F7072655F63CA
:1014F1006E743D25640A005030350A005030370AB9
:1015010000737973696E6974206F7665720A00776A
:1015110064742072657365740A00696E697420735E
:101521007461676520410A00696E69742073746192
:10153100676520420A006D6F746F72206C65766575
:101541006C3D25640A00696E697420737461676576
:1015510020430A00696E69742073746167652044D1
:101561000A006D6F746F722D6C6F636B65642C254F
:0E157100640A00656E746572206470640A007E
:031CBA00013B00EB
:101A25008F4C8E4B8D4A8C4953B1FB53B2FB53B34C
:101A3500BF53B4BF75F85075C40853C4DFAB4CAA87
:101A45004BA94AA8497F407E427D0F7C0012059A2A
:101A5500C374FF9FFF74FF9EFEE49DFDE49CFC782C
:101A65000812063A8FC6AB4CAA4BA94AA8497F4033
:101A75007E427D0F7C0012059AC374FF9FFF8FC5C0
:041A850043C408222C
:0700030030F8FDAF9AC2F8CE
:01000A0022D3
:081CAA00C2F98F9A30F9FD2206
:081CB20030F9FDC2F98F9A22FE
:03000B00021C2CA8
:101C2C00C0E0758CE5758AF57537010541E54170A5
:101C3C0002054005260515E51570020514D0E032A5
:101C4C007589FF5389F0438901538EF7758CE575BF
:091C5C008AF5D2A9D2AFD28C2284
:10001600E4FFFEFDED25E02427F8E6FA08E62FFFCB
:10002600EA3EFE0DBD08EDEF7803CEC313CE13D81E
:02003600F9FFD0
:0100380022A5
:1018A000BD01067A007B1E8015BD02067A007B14FE
:1018B000800CBD03067A007B0A8003E4FAFBE53A5C
:1018C000B401028013E53AB40202800CE53AB40395
:1018D000028005E53AB40405C374B48046E53AB421
:1018E000051FD3EF9448EE940D400474508034D318
:1018F000EF94E4EE940C4004745A8003C374A08007
:1019000022E53AB40624D3EF9448EE940D400474D3
:10191000288010D3EF94E4EE940C4004743C8003D0
:0E192000C374829BF582E49AF583AF82AE8396
:01192E002296
:10100000E526D39F50024150E4F526759504C2EFC2
:10101000D2EE30EFFDE4F595AFC3F54A8F4BE54BCB
:10102000C4F8540FC868F54BE54AC454F048F54A73
:10103000E5C2540F424BE54325E02427F8A64A08B1
:10104000A64B0543E543C3940850024150E4F543E1
:10105000E544D3940040037F00221200168E4A8F8D
:101060004B7BFF7A1479A1854A4F854B501206E5D8
:10107000E513B40113121BBBBF01028019BF0204A8
:101080007410801474188010E513B4020474108076
:1010900007E513B4040B7408254BF54BE4354AF50A
:1010A0004A200F2CC3E54B94B8E54A940B500875C1
:1010B000380B7539B88019D3E54B9448E54A940D3F
:1010C000400875380C7539E48006854A38854B39F7
:1010D000300D59E53945387006854A38854B39E574
:1010E000392408FFE43538FED3E54B9FE54A9E409E
:1010F00015053BE53BD394084032E4F53B740525E8
:1011000039F539E4801EE53924F8FFE53834FFFE6F
:10111000C3E54B9FE54A9EE45010F53B74FB25392F
:10112000F53974FF3538F5388002F53B7BFF7A14CA
:1011300079B285384F8539501206E5AC38AD39E4BF
:101140001201E97B8F7AC27955784012003EE4FBA8
:10115000FA79807845120147E4FBFA794078401229
:10116000003E8F3F8E3E8D3D8C3C7BFF7A1479BFD5
:101170008F528E518D508C4F1206E5D3E53994E095
:10118000E538940C400A754906300B47D21080436D
:10119000D3E5399450E538940C4005754905803302
:1011A000D3E5399410E538940C4005754904802343
:1011B000D3E53994C0E538940B4005754903801395
:1011C000D3E5399490E538940B40057549028003C6
:1011D000754901201074E53A6549600405458003AE
:1011E000E4F545754600853A477BFF7A1479CA8550
:1011F000464F8547501206E57546008549477BFFF7
:101200007A1479DA85464F8547501206E57546000F
:101210008545477BFF7A1479E885464F854750120C
:1012200006E5E545D394054024E4F545300B09E592
:1012300049D3953A4017800DE5136009E549C395F8
:101240003A500A800085493A8003753A067F0122A8
:021250007F001D
:011252002279
:1019B400A2AF920CC2AF75C7AA75C755439F01A2C7
:1019C4000C92AF75A604E4F5A775AE0F75AFE1A24E
:1019D400AF920CC2AF75C7AA75C75543A504A20C34
:1019E40092AFA2AF920CC2AF75C7AA75C75543A4F4
:1019F40001A20C92AFE59F20E6FBA2AF920CC2AF0E
:101A040075C7AA75C75553A5FBA20C92AFA2AF9296
:101A14000CC2AF75C7AA75C755539FFEA20C92AFEF
:011A2400229F
:10125300A2AF920CC2AF75C7AA75C755439F01A22F
:101263000C92AFE4F5A6F5A775AFC0A2AF920CC27E
:10127300AF75C7AA75C75543A401A20C92AFAFAE11
:1012830075A601A2AF920CC2AF75C7AA75C7554325
:10129300A401A20C92AFAEAE75A602A2AF920CC28D
:1012A300AF75C7AA75C75543A401A20C92AFADAEE3
:1012B30075A603A2AF920CC2AF75C7AA75C75543F3
:1012C300A401A20C92AFACAE75A604A2AF920CC25D
:1012D300AF75C7AA75C75543A401A20C92AFABAEB5
:1012E3004303F0A2AF920CC2AF75C7AA75C75543AB
:1012F300A504A20C92AF75AFE2F5A7F5A675AEFFF4
:10130300A2AF920CC2AF75C7AA75C75543A401A279
:101313000C92AF75AFE18FAEA2AF920CC2AF75C79F
:10132300AA75C75543A401A20C92AF75A6018EAE50
:10133300A2AF920CC2AF75C7AA75C75543A401A249
:101343000C92AF75A6028DAEA2AF920CC2AF75C759
:10135300AA75C75543A401A20C92AF75A6038CAE20
:10136300A2AF920CC2AF75C7AA75C75543A401A219
:101373000C92AF75A6048BAEA2AF920CC2AF75C729
:10138300AA75C75543A401A20C92AFA2AF920CC297
:10139300AF75C7AA75C75553A5FBA20C92AFA2AFF1
:1013A300920CC2AF75C7AA75C755539FFEA20C9284
:0113B300AF8A
:0113B4002216
:10192F00E4F540F541F5B1F5B2F5B3F5B4F5ACF525
:10193F00AD53E1FE121A89E4FF121C9FE4FF12005F
:10194F000E121B9043B12053B2DF3085FD7BFF7A1F
:10195F001479F81206E575E94075EA20E4F5EB43D2
:10196F009B02D2AF43B38053B47F7BFF7A1479FDD0
:10197F001206E5A2AF920C75C7AA75C755759101EE
:10198F0043B38075C7AA75C755E4F591A20C92AF02
:10199F00D2AA121253438702E4F5E9C2A8C2AA538E
:0519AF009BFDD209229E
:10157F007F007EC27D017C00121A25D2F9E4F5E9C5
:10158F00C2A8C2AA539BFD121B57121C4CE4F5268E
:10159F00F543121C0A121BE4752501D20EE4F52344
:1015AF00F524F542C20BF545F538F53953E8F0430C
:1015BF00E80243B18053B27FF5F643F60443E101ED
:1015CF00200D1DF540F541C3E541942CE5409401F4
:1015DF00500C208502D20BE4FF12100080E9D20DCF
:1015EF00E4F540F541F514F515F526300F03754474
:1015FF00C8C2107BFF7A1579021206E57546008581
:10160F003A477BFF7A1479CA85464F8547501206B1
:10161F00E5E5AA30E31C7BFF7A1579101206E5A2E7
:10162F00AF920CC2AF75C7AA75C75553AAF7A20CD4
:08163F0092AF1219B4C20A2295
:100AF200E4F5B1F5B2F5B3F5B4F5ACF5ADD209C292
:100B02000DC20F30090512157FC209E53760F4E501
:100B12002445236008E524152470021523121800C9
:100B22008F48E5256401705B300E297BFF7A1579C9
:100B32001B1206E5C20E121A89E4FF1217B5C20A89
:100B4200E4FF12000EE4F540F541C20BF543300F0D
:100B5200037544C8E54830E012752302752458AF86
:100B6200251217B5D20AE4F540F541E54830E10512
:100B7200752502D20EE54820E202A166752504D24F
:100B82000EA166E525640260028150300E397BFFBA
:100B92007A1579291206E5C20EE4F540F541C20B39
:100BA200AF1312000EE5137008FF1217B5C20A80C8
:100BB20007AF251217B5D20A751402751558E4F558
:100BC20043300F037544C8E54830E03E120DF3751B
:100BD20046008513477BFF7A15793785464F85474F
:100BE200501206E5AF1312000EE5137008FF12173C
:100BF200B5C20A8007AF251217B5D20AE4F5433011
:100C02000F037544C8E4F540F541E54820E1147549
:100C12002501D20E121A89E4FF12000EE4FF121708
:100C2200B5C20AE54830E205752508D20EE548202E
:100C3200E302A166121A89E4FF12000EE4FF121702
:100C4200B5C20AE4F543300F4D7544C8A161E525EC
:100C520064047054300E307BFF7A1579471206E532
:100C6200C20EE4F540F541D20B121A89E4FF1200DC
:100C72000EAF251217B5D20A751402751558E4F590
:100C820043300F037544C8E54830E105752508D2A5
:100C92000EE54830E202A161752501C20BE4FF12A4
:100CA20017B5C20AD20EA166E52564086002A166E4
:100CB200300E277BFF7A1579551206E5C20EE4F550
:100CC20040F541D20BAF1312000EAF251217B5D269
:100CD2000AE4F543300F037544C8E54830E02B12AF
:100CE2000DF37546008513477BFF7A1579378546E4
:100CF2004F8547501206E5AF1312000EE4F543305C
:100D02000F037544C8E4F540F541E54820E1147548
:100D12002504D20E121A89E4FF12000EE4FF121704
:100D2200B5C20AE54830E207E4F540F541801375A3
:100D32002502C20BAF1312000EAF251217B5D20A4D
:100D4200D20EE54830E31D121A89E4FF12000EAFFD
:100D5200251217B5D20AE4F543300F037544C8E4EF
:100D6200F540F541300B047F1480027F051210001C
:100D7200E544D394004002154430100CE54830E2BB
:100D820005753A068002C2101213B5EF60227BFF8E
:100D92007A157963754F0375505C1206E5121A894C
:100DA200E4FF12000ED20EE4F543300F037544C87F
:100DB200E5136005E4F540F541300A05AF25120F51
:100DC2005EC3E54194D0E54094074010D20F7BFF0B
:100DD2007A1579741206E5D20F12192FA2AF920C6E
:100DE200C2AF75C7AA75C75543AA40A20C92AF619C
:010DF20005FB
:03001300020011D7
:0100110032BC
:03003B00021AD9CD
:101AD900C0E0C0F0C083C082C0D075D000C000C0D3
:101AE90001C002C003C004C005C006C007E5ECB4CC
:101AF9001003121C9075EC00D007D006D005D00455
:101B0900D003D002D001D000D0D0D082D083D0F081
:031B1900D0E032E7
:041CBD00021400000D
:101B570053B3F743B40853B1FE43B20153B1FD4346
:101B6700B20253B1F743B208C293C280C281C283A3
:101B770053B3FE43B40153B3FD43B40253B3DF433E
:091B8700B420C290C291C2952263
:101B900043B30843B40843B10143B20143B1024324
:101BA000B20243B10843B20843B30143B40143B3A3
:0B1BB0000243B40243B32043B42022E0
:101C6500EF139293EFC313FF139280EFC313FF1388
:091C75009281EFC3131392832244
:0B1C9F00121C65E4F514F515C21422B8
:101C7E00EF139290EFC313FF139295EFC3131392CA
:021C8E009122A1
:03000E00021C7E53
:09164700D214F514751501AF046D
:10165000EF64017021E53AC3940540047E0FE10672
:10166000E53AB404047E07E106E53AB403047E03D8
:10167000E1067E01E106EF6404702AE53AC39406B0
:1016800040047E0FE106E53AB405047E078077E565
:101690003AB404047E03806EE53AB403047E01800C
:1016A00065E4FE8061EF6402702FE53AC394054063
:1016B000047E0F8051E53AB404047E078048E53A81
:1016C000B403047E03803FE53AB402047E01803611
:1016D000E53A64017030FE802DEF64087028E53A29
:1016E000C3940640047E0F801DE53AB405047E07CE
:1016F0008014E53AB404047E03800BE53AB4030495
:081700007E018002E4FEAF0649
:0117080022BE
:0217B500AC077F
:1017B700E4F514F515EC7003FF8035BC0109AF049F
:1017C700121650AD078029BC0409AF04121650AD9C
:1017D70007801DBC0212AF04121650AD07ED70044E
:1017E7007F01800CAF058008BC0808AF04121650B3
:0317F700121C9F22
:0117FA0022CC
:020F5E00AC07DE
:100F6000BC0113C3E5159458E51494025002E1FF47
:100F7000E4FCFF021C9FEC64047015C3E515946447
:100F8000E51494004079E4F514F51520142B8051F4
:100F9000EC64027034C3E5159432E5149400405FAC
:100FA000E4F514F515201411121647AD07ED700580
:100FB000ED25E004FDAF058043C214E4F514F515FA
:100FC000AF04121650AD078033EC64087031C3E5EE
:100FD000159464E51494004026E4F514F5152014E6
:100FE0000D121647AD07ED25E004FDFF800EC2147B
:0F0FF000E4F514F515AF04121650AD07121C6589
:010FFF0022CF
:101C0A00E4F50DF50CF50AF50BC215F509F50843CF
:101C1A00B38053B47F43AC0153ADFE43B12053B2FA
:021C2A00DF22B7
:10180000E4FFE5377002019FE4F537201507A29742
:1018100033F50D800D309707C215E4F50AF50B85F9
:101820000C0DE50D650C6017850D0CD3E50B940AC6
:10183000E50A940040027F01E4F50AF50B8032E5E9
:101840000D702E050BE50B7002050AC394F4E50A32
:1018500094014008750A01750BF48015C3E50B94DB
:1018600090E50A9401400A750A01750BF47F08D2CD
:101870001530B005E4F509800F0509E509D3941486
:101880004006750914430702308505E4F508800F0A
:0F1890000508E508D394144006750814430704AF
:01189F002226
:101B1C0043B38053B47FA2AF920C75C7AA75C75557
:101B2C0075910143B18075C7AA75C755E4F591A2AB
:101B3C000C92AF43E90143E98043EA8053EB7F43C6
:0B1B4C009B02D2AF43870253E9FE2248
:0F1C9000E511D3940040021511301102D2122237
:101BE400E4F51353B3FB43B404D292C211C212F509
:101BF40012F51153B1BF43B240C28653B1EF43B2A1
:061C040010C284C213228D
:101A8900539BFDE4F51353DEFEA2AF920CC2AF7572
:101A9900C7AA75C755439101A20C92AFF5D2F5DAE1
:101AA900A2AF920CC2AF75C7AA75C7555391FEA2D2
:101AB9000C92AFD2DEC2DCD292C211C212F511F57C
:101AC90012C284C28653B3FB43B404D292C2132216
:100DF300E5136002C1B4D286A2AF920C75C7AA757F
:100E0300C75575910143B41075C7AA75C755F591B8
:100E1300A20C92AF43B31053B4EF43E90143E9404B
:100E230053EAEF43EB10439B0253B3FB53B4FB432F
:100E3300DE0153DF3F538EBF75D10375D9E7A2AFF0
:100E4300920CC2AF75C7AA75C755439101A20C9204
:100E5300AF75D20175DAF3A2AF920CC2AF75C7AA10
:100E630075C7555391FEA20C92AFD2DEA2AF920C7E
:100E7300C2AF75C7AA75C755439101A20C92AF754E
:100E8300D20175DA80A2AF920CC2AF75C7AA75C73B
:100E9300555391FEA20C92AFD2DED2DF75130175CA
:100EA3000F01751080F50EC213D211F512D284E131
:100EB30059E5136401705A75130243DE0153DF3F92
:100EC300538EBF75D10375D9E7A2AF920CC2AF752C
:100ED300C7AA75C755439101A20C92AF75D201758C
:100EE300DAF3A2AF920CC2AF75C7AA75C755539177
:100EF300FEA20C92AFD2DEA2AF920CC2AF75C7AA0C
:100F030075C755439101A20C92AFF5D275DAF08003
:100F130022E51364027037751304A2AF920CC2AFBB
:100F230075C7AA75C755439101A20C92AF75D2013B
:100F330075DA80A2AF920CC2AF75C7AA75C75553B5
:100F430091FEA20C92AFD2DED2DFC2138008E5136A
:0B0F5300B40403121A89AF137E0022C1
:0317FB00AF132207
:101BBB003013037F0022AFD2EFFEADDAEDFFD3EF90
:101BCB009420EE940140037F0122D3EF9480EE9496
:081BDB000040037F02227F039A
:011BE30022DF
:1013B50030113E0512E512C3943C4035051120124B
:1013C5000AE512D3946440297F0122301223121BAF
:1013D500BB7E00EF640170047C0A800CEF64024E52
:1013E50070047C0880027C05E511C39C40037F01E5
:1013F50022E51364016002819E301302819E050E71
:10140500E50EC394145002819EE4F50E74FA25107E
:10141500F51074FF350FF50FC3E510940AE50F9429
:1014250000404074FA2510F51074FF350FF50FA232
:10143500AF920CC2AF75C7AA75C755439101A20CEF
:1014450092AFE50FF5D2E510F5DAA2AF920CC2AF77
:1014550075C7AA75C7555391FEA20C92AFD2DEC2CD
:10146500DC8036D21353DEFEA2AF920CC2AF75C735
:10147500AA75C755439101A20C92AFE4F5D2F5DAEE
:10148500A2AF920CC2AF75C7AA75C7555391FEA2FC
:0B1495000C92AFD2DEC2DCC2927F00DE
:0114A0002229
:03000000021709DB
:1017090075C7AA75C75575FD5A75C7AA75C75575A1
:10171900FDA5787FE4F6D8FD9000007FFF7E03E405
:0C172900F0A3DFFCDEFA75816702177088
:10003E00EC4D6011E8497017ED33EC3304600DE4BC
:10004E00FCFFFEFD22E933E8330470F8020257127A
:10005E00022258046009E4CC24815006285009027B
:10006E00026128400302025EC0E0EB4A7044B98090
:10007E0006D0E0FB02024DEF4E701CBD8008EBFF78
:10008E00EAFEE9FD80EBE98DF0A4FEE5F002012722
:10009E00E9CDF9EAFEEBFFEF89F0A4FCE5F0CE899D
:1000AE00F0A42EFFE435F0CD89F0A42DFEE435F05A
:1000BE008067EF4E7005BD80D780C3EF8BF0A4AC88
:1000CE00F0EE8BF0A42CFCE435F0F8EF8AF0A42CC3
:1000DE00E5F038FCE433CB8DF0A42CFCE5F03BF8D6
:1000EE00EE8AF0A42CFCE5F038F8E433CF89F0A4C6
:1000FE002CFCE5F038CF3400CE89F0A42FFFE5F0CC
:10010E003EFEE433C98DF0A42EFEE5F039CD8AF023
:10011E00A42FFFE5F03EFEE43DFD33D0E0FB50079B
:10012E000BBB000F020261EC2CFCEF33FFEE33FE33
:06013E00ED33FD02023961
:10014400020261EC5D046005E85904700302025781
:10015400120222580460F6EC4860F2EC7004FDFED2
:10016400FF22C860DB2481C85009C398600250068E
:1001740002025E9850CAF582E9294B4A7005AB82A7
:1001840002024D75F0007C1A7880C3EF9BEE9AED65
:1001940099400DC3EF9BFFEE9AFEED99FDE842F006
:1001A400DC23ACF0D0E0FFD0E0FED0E0FDAB822059
:1001B400E7101BEB60BAEC2CFCEF33FFEE33FEEDE3
:1001C40033FD020239E803F830E705C0F075F000AA
:1001D400EF2FFFEE33FEED33FD40B830E7C280AAC7
:1001E40075F020800E75F010800575F0087D007E96
:1001F400007F003392D530D50312062CEC33401027
:10020400EF33FFEE33FEED33FDEC33FCD5F0ED229E
:0E021400E5F0247EA2D513CC92E7CDCEFF22DA
:10068300E563244FF8E6056322784C300702784F80
:10069300E475F00112064D0205062000EB7F2ED211
:1006A300008018EF540F2490D43440D4FF30040B4F
:1006B300EF24BFB41A0050032461FFE56460021500
:1006C300640567E5677002056630070D784CE475CD
:1006D300F00112064DEF02054C021CB27403D2075F
:1006E3008003E4C207F5638B4C8A4D894EE4F564BD
:1006F300F566F567E56460077F201206BE80F57531
:1007030065FFC201C200C202C203C205C206C2081B
:1007130012068CFF700D3007057F001206CFAF67FE
:10072300AE6622B4255FC2D5C20412068CFF24D064
:10073300B40A00501A75F00A786430D50508B6FF7C
:100743000106C6A426F620D5047002D20380D9245C
:10075300CFB41A00EF5004C2E5D2040209BCD2019F
:1007630080C6D20080C0D20280BCD2D580BAD20566
:1007730080B47F201206BE2002077401B5640040D6
:10078300F1120683FF1206BE0206F7D208D20680D4
:1007930095120683FB120683FA120683F94A4B70FD
:1007A3000679B37A0A7BFF20022EE564602A7E0075
:1007B3008E8275830012051F60060EEE656570F06C
:1007C300C2D5EBC0E0EAC0E0E9C0E0EE120A1CD0FB
:1007D300E0F9D0E0FAD0E0FB120506FF60AAEBC017
:1007E300E0EAC0E0E9C0E01206BED0E02401F9D09F
:1007F300E03400FAD0E0FBE5650460DCD565D98020
:1008030087D20280A21209FF60F7E5657001041226
:10081300026CA965600DE565600914F565120AA609
:10082300EF60F3EA30E702F404C3995077EAF42562
:10083300650430E701E404F565800D1209FF60C12A
:10084300EA0565256512026CEA7862F630E701E491
:10085300256504D5650420050114120A1CE4C0E0D3
:10086300120AA67862E6601320E70714F61206A6BA
:10087300802204F6D0E014C0E07F001206A6E565EE
:10088300600712069D1565800B30050312069DD087
:10089300E00206F7D0E00480C51209FF60A0E56519
:1008A3000412026C7862EAF6E56520050260010431
:0508B3002404120A1CE0
:1008B80074FF04C0E0120AA61206A6E56520050228
:1008C800600312069DD0E0B565E87F451206B07852
:1008D80062E67F2B30E7047F2DF404C0E01206BEE9
:1008E800D0E075F00A84C0F01206A7D0E01206A77F
:1008F8000206F7791080027908C206C2088008D279
:10090800D5790A8004790AC2D5E565047002F565CF
:10091800E4FAFDFEFF120683FC7B08200113120691
:1009280083FD7B1030000A120683FE120683FF7BCC
:1009380020EC3382D592D55013C3E43000069FFFD4
:10094800E49EFEE42001039DFDE49CFCE4CBF8C298
:1009580001EC700CCFCECDCCE824F8F870F38017FA
:10096800C3EF33FFEE33FEED33FDEC33FCEB33FB2B
:10097800994002FB0FD8E9EB300105F8D0E0C448F4
:10098800B201C0E00AEC4D4E4F78207B0070C2EAFD
:10099800B5650040BCC0E0120A1ED0F0D0E02001CE
:1009A80004C4C0E0C4B201C0F01206A7D0F0D5F06C
:1009B800EB0206F712065D07945308FB5807654CCF
:1009C80007614208FF4F090744090749077A4309A5
:1009D8000D55083E46089C450808470AD350076944
:1009E8002D076D2E07902B077123078E200ABC2A2E
:1009F80007294800000788E565B4FF0375650612F6
:100A08000683FC120683FD120683FE120683FF7816
:100A18005B02029B790AA2D5200314300509B9109C
:100A2800020404B9080104A2D520060250010420DA
:100A380002689202B564005034C0E07F2030031988
:100A48007F30A20272067205500F120A75C202C2E6
:100A580006C205C2087F30800F300503E9C0E012E6
:100A680006BE300503D0E0F9D0E0B564CC300517F8
:100A78007F30B9100C1206BE7F583004077F78808B
:100A880003B908031206BE3002057F2D0206BE7F99
:100A9800202008F87F2B2006F322920280CF7F00C7
:100AA800B407005005245BF8E6FF22286E756C6CCD
:100AB8002900D2011206833001F8C201786430D5CA
:100AC8000108F60207292D504349581206832403CA
:100AD800B405004001E4900ACE931206AF743A12AE
:0A0AE80006AFD2037564040208FB98
:10022200E9D2E7C933E833F892D5EDD2E7CD33EC22
:0702320033FC5002B2D5229B
:10023900EC30E7100FBF000C0EBE00080DBD000426
:100249000BEB6014A2D5EB13FCED92E7FD2274FFD2
:10025900FCFDFEFF22E480F8A2D574FF13FC7D802B
:03026900E480EF3F
:10026C00F920E72824F950037907E4F42402FB1859
:10027C00DBFDE624FB5014E9600DE4F618E604F609
:0F028C00B40A08E4F6D9F57401F60A22C2D522A5
:10029B00ED33EC3392D5FA602AB4FF33EDC2E77B32
:1002AB00FF60067A0279C0E4227A0279C920D5046C
:1002BB007A0279C4224E614E002B494E46002D49DD
:1002CB004E4600E47A08F608DAFC7B00740722E855
:1002DB00C0E0ECC0E0EDC0E0EEC0E0EFC0E0EA75DE
:1002EB00F010A4CAABF075F04DA42BFBE435F0FC79
:1002FB00EA2410FAEB34C5FBEC34D9FCEDC2E7FF72
:10030B0075F056A4F42411C5F0F434C58FF0A42A6B
:10031B00E5F03BE43CF620E7141204C6D0E0FFD036
:10032B00E0FED0E0FDD0E0FC1201478014F4041293
:10033B0004C6D0E0FFD0E0FED0E0FDD0E0FC120020
:10034B003ED0E0F8E6FAEDD2E7CD33EC332482FB76
:10035B00E4C3CF33CFCE33CECD33CD33DBF37B07FB
:10036B0075F00A846004F6081B0AE5F0F6088FF0B6
:10037B00740AA4FFACF08EF0740AA42CFEACF050FF
:10038B00010C8DF0740AA42CFDE435F0F608DBDECD
:03039B00740722C2
:10039E00020257E86480F8E933E83360110460F034
:1003AE00ED33EC337009E8FCE9FDEAFEEBFF2204C5
:1003BE0060DED3EB9FEA9EE99DE8C2E78CF0C2F7C0
:1003CE0095F0400CE8CCF8E9CDF9EACEFAEBCFFB8C
:1003DE0012022285D0F05804700320D5B3E80470C1
:1003EE00075002B2D502026192D5EC0460F7E4CC5C
:1003FE00C0E0C398F8603B94186008400DD0E0FB55
:10040E00020239E4FBFAC9FC8028E830E406E4C9AC
:10041E00FBE4CAFCE830E305E4C9CACBFCE85407A8
:10042E006010F8C3E913F9EA13FAEB13FBEC13FCB3
:10043E00D8F130F52FC3E49CFCEF9BFFEE9AFEED56
:10044E0099FDD0E0FBEF4E4D4C701222DB03020201
:10045E005EEC2CFCEF33FFEE33FEED33FDED30E7BB
:10046E00EB020239EF2BFFEE3AFEED39FDD0E0FB49
:10047E0050130BBB0003020261ED13FDEE13FEEFF2
:08048E0013FFEC13FC0202391C
:100496003F8000004120000042C80000447A00006E
:1004A600461C400047C35000497424004B189680F0
:1004B6004CBEBC205A0E1BCA6753C21C749DC5AEE7
:1004C600FB60065407601C23231204F4EB543860C7
:1004D600091204E01204EF12003EECF8EDF9EEFA10
:1004E600EFCB22EB1204EF80F1543803241C900466
:1004F60096FE93FC0EEE93FD0EEE930ECE93FF2228
:10173500020AF2E493A3F8E493A34003F68001F2CE
:1017450008DFF48029E493A3F85407240CC8C333B5
:10175500C4540F4420C8834004F456800146F6DF84
:10176500E4800B0102040810204080901CBAE47E3E
:10177500019360BCA3FF543F30E509541FFEE49379
:10178500A360010ECF54C025E060A840B8E493A340
:10179500FAE493A3F8E493A3C8C582C8CAC583CA6B
:1017A500F0A3C8C582C8CAC583CADFE9DEE780BE23
:011CC1000022
:10050600BB010689828A83E0225002E722BBFE02F3
:09051600E32289828A83E4932226
:10051F00BB010CE58229F582E5833AF583E0225091
:10052F0006E92582F8E622BBFE06E92582F8E222DB
:0D053F00E58229F582E5833AF583E49322F5
:10054C00BB010689828A83F0225002F722BBFE018E
:02055C00F32288
:10055E0075F008758200EF2FFFEE33FECD33CDCC54
:10056E0033CCC58233C5829BED9AEC99E5829840D7
:10057E000CF582EE9BFEED9AFDEC99FC0FD5F0D6B4
:10058E00E4CEFBE4CDFAE4CCF9A88222B800C1B9DE
:10059E000059BA002DEC8BF084CFCECDFCE5F0CB1C
:1005AE00F97818EF2FFFEE33FEED33FDEC33FCEB55
:1005BE0033FB10D703994004EB99FB0FD8E5E4F910
:1005CE00FA227818EF2FFFEE33FEED33FDEC33FCFD
:1005DE00C933C910D7059BE99A4007EC9BFCE99AF1
:1005EE00F90FD8E0E4C9FAE4CCFB2275F010EF2F36
:1005FE00FFEE33FEED33FDCC33CCC833C810D70736
:10060E009BEC9AE899400AED9BFDEC9AFCE899F870
:0E061E000FD5F0DAE4CDFBE4CCFAE4C8F92203
:0E062C00C3E49FFFE49EFEE49DFDE49CFC22DF
:10063A00E8600FECC313FCED13FDEE13FEEF13FF9E
:03064A00D8F122C2
:10064D00FAE6FB0808E6F925F0F618E6CA3AF622AE
:10065D00D083D082F8E4937012740193700DA3A32C
:10066D0093F8740193F5828883E473740293686040
:06067D00EFA3A3A380DF40
:00000001FF
