:03000B00020016DA
:10001600C0E0758CE5758AF5753601053CE53C70E2
:1000260002053B05250519E5197002051830080279
:050036000511D0E032CD
:100B1F007589FF5389F0438901538EF7758CE575FD
:090B2F008AF5D2A9D2AFD28C22C2
:100ABA00E4FFFEFDED25E02426F8E6FA08E62FFF1E
:100ACA00EA3EFE0DBD08EDEF7803CEC313CE13D870
:020ADA00F9FF22
:010ADC0022F7
:1003DD00E525D39400500281FBE4F525C2EFD2EE62
:1003ED0030EFFDAFC37537008F38E538C4F8540FC3
:1003FD00C868F538E537C454F048F537E5C2540FF1
:10040D004238E53E25E02426F8A63708A638053EF5
:10041D00E53EC39408500281FBE4F53E120ABA8E04
:10042D00378F381207FC8F16E516B40113120A9197
:10043D00BF01028019BF0204741080147420801053
:10044D00E516B4020474108007E516B4040B7408A5
:10045D002538F538E43537F537300222E539C394C0
:10046D0003500474B0800DE539C39405500474C075
:10047D00800274D02538F53874FF3537F537D3E55C
:10048D00389420E537940D40057515068043D3E566
:10049D003894B0E537940C40057515058033D3E5D8
:1004AD00389440E537940C40057515048023D3E549
:1004BD003894E0E537940B40057515038013D3E5AB
:1004CD003894A0E537940B4005751502800375151A
:1004DD0001E53965156004053F8003E4F53FE53F0F
:1004ED00D394044006E4F53F8515397F01227F0042
:0104FD0022DC
:1008A0001209ED120B1FE4F525F53E120ADD120ABE
:1008B000FF752401D205E4F53AC201F522F523F5CE
:1008C0003DC202F53F53E8F043E80243B18053B222
:1008D0007FF5F643F60443E101200414C3E53C949C
:1008E0003CE53B940050051203DD80F0D2048010FB
:1008F000C3E53C940AE53B940050051203DD80F00B
:0C090000E4F53BF53CF518F519F525224F
:10003E00E4F5B1F5B2F5B3F5B4F5ACF5ADD200C259
:10004E00043000051208A0C200E53660F4E5234531
:10005E00226008E5231523700215221208008F1363
:10006E00E52464017052300516C205FDFF12090C1D
:10007E00E4FDFF120003E4F53AF53BF53CC202E560
:10008E001330E012753A01D201752202752358AD74
:10009E0039AF2412090CE51330E105752402D2059F
:1000AE00E51320E202410AE524B402057524088016
:1000BE0003752404D205410AE524640270733005E9
:1000CE000DC205753A02D201F53BF53CC202E513AD
:1000DE0030E01912029C8F14E4FD120003E5147037
:1000EE0004FDFF8004AD39AF2412090CE51320E1A5
:1000FE0014752401D205120960E4FDFF120003E419
:10010E00FDFF12090CE51330E20FE524B40105756D
:10011E0024048003752408D205E51320E302410A66
:10012E00120960E4FDFF120003E4FDFF12090C4109
:10013E000AE52464047044300514C205753A03D2EE
:10014E0001F53BF53CD202AD39AF2412090CE51393
:10015E0030E105752408D205E51330E207E4F53BDE
:10016E00F53C410AE524B40805752402800975247E
:10017E0001E4FDFF12090CD205410AE52464087062
:10018E007B300514C205D201753A03F53BF53CD21E
:10019E0002AD39AF2412090CE51330E00A12029CAD
:1001AE008F14E4FD120003E51320E10E752404D232
:1001BE0005120960E4FDFF120003E51330E207E4C7
:1001CE00F53BF53C8028E524B40405752401801C1C
:1001DE007524021207FC8F14E4FD120003E514705F
:1001EE0004FDFF8004AD39AF2412090CD205E513CE
:1001FE0030E309120960E4FDFF1200031203DD1261
:10020E0004FEEF600F120960E4FDFF120003E4FD2F
:10021E00FF12090C1207FCEF6005E4F53BF53CAD4F
:10022E003DAF24120690C3E53C94D0E53B940750B5
:10023E0002014FE4F53BF53CF5B1F5B2F5B3F5B47B
:10024E00F5ACF5AD53E1FE120960E4FDFF1207EFC8
:10025E00E4FDFF120003120A6643B38053B47FA27B
:10026E00AF920375C7AA75C75575910143B38075D3
:10027E00C7AA75C755E4F591A20392AFD2AA4387D8
:0E028E0002F5E9C2A8C2AA539BFDD200014F9F
:03001300020012D6
:0100120032BB
:03003B000209AA0D
:1009AA00C0E0C0F0C083C082C0D075D000C000C013
:1009BA0001C002C003C004C005C006C007E5ECB40C
:1009CA00100312000E75EC00D007D006D005D00433
:1009DA00D003D002D001D000D0D0D082D083D0F0C2
:0309EA00D0E03228
:070B6300011A000218000056
:1009ED0053B3F743B40853B1FE43B20153B1FD43C2
:1009FD00B20253B1F743B208C293C280C281C2831F
:100A0D0053B3FE43B40153B3FD43B40253B3DF43B9
:0E0A1D00B420C290C291C295E4F51BC206221D
:100A660043B30843B40843B10143B20143B102435F
:100A7600B20243B10843B20843B30143B40143B3DE
:0B0A86000243B40243B32043B420221B
:100B3800EF139293EFC313FF139280EFC313FF13C6
:090B48009281EFC3131392832282
:0D07EF008D17120B38E4F518F519C207221A
:100B5100EF139290EFC313FF139295EFC313139208
:020B61009122DF
:08000300ED24FF9206020B51EF
:0505CE00E4F51BAF1A6B
:1005D300EF64017029E539C3940540047E0FC18D92
:1005E300E539B404047E07C18DE539B403047E0301
:1005F300C18DE53964026002C18D7E01C18DEF6456
:10060300047028E539B406047E0F807EE539B4050D
:10061300047E078075E539B404047E03806CE539F4
:10062300B403047E018063E4FE805FEF6402702FF5
:10063300E539C3940540047E0F804FE539B40404C3
:100643007E078046E539B403047E03803DE539B473
:1006530002047E018034E5396401702EFE802BEFA5
:1006630064087026E539B406047E0F801DE539B4AD
:1006730005047E078014E539B404047E03800BE58A
:0C06830039B403047E018002E4FEAF06DF
:01068F002248
:02090C008D1547
:10090E008F1AE4F518F519E51A7004FDFF803FE51E
:10091E001AB401091205CEAC07E4FD8031E51AB414
:10092E0004091205CEAC07E4FD8023E51A640270BB
:10093E00131205CFAC07EC7005FD7F018010AF04DC
:10094E00E4FD800AE51AB408081205CEE4FD12078C
:01095E00EFA9
:01095F002275
:040690008F158D161F
:10069400E51AB40115E51964587004E5186402609C
:1006A40002E142F51AFDFF0207EFE51A6404701334
:1006B400E519646445186002E142F518F51920074C
:1006C400318054E51A64027039E5196432451870B2
:1006D4006DF518F51920071AD207F518751901AF29
:1006E4001A1205D3AC07EC7005EC25E004FCAF044A
:1006F4008049C207E4F518F519AF1A1205D3AC07FF
:100704008039E51A64087036E51964644518702E5A
:10071400F518F519200716D207F518751901AF1A3F
:100724001205D3AC07EC25E004FCFF800EC207E4FD
:0E073400F518F519AF1A1205D3AC07120B38E1
:010742002294
:100ADD00E4F50DF50CF50AF50BC20AF509F5084319
:100AED00B38053B47F43AC0153ADFE43B12053B239
:020AFD00DF22F6
:10080000E4FFE5367002019FE4F536200A07A2975F
:1008100033F50D800D309707C20AE4F50AF50B8514
:100820000C0DE50D650C6017850D0CD3E50B940AD6
:10083000E50A940040027F01E4F50AF50B8032E5F9
:100840000D702E050BE50B7002050AC394F4E50A42
:1008500094014008750A01750BF48015C3E50B94EB
:1008600090E50A9401400A750A01750BF47F08D2DD
:100870000A30B005E4F509800F0509E509D39414A1
:100880004006750914430702308505E4F508800F1A
:0F0890000508E508D394144006750814430704BF
:01089F002236
:100A2B0043B38053B47FA2AF920375C7AA75C75562
:100A3B0075910143B18075C7AA75C755E4F591A2AD
:100A4B000392AF43E90143E98043EA8053EB7F43D1
:0B0A5B009B02D2AF43870253E9FE224A
:04000E00E4F51122E2
:100AFF00E4F51253B3FB43B404D292C208F5115379
:100B0F00B1BF43B240C28653B1EF43B210C2842289
:10096000539BFDE4F51253DEFEA2AF9203C2AF75B6
:10097000C7AA75C755439101A20392AFF5D2F5DA24
:10098000A2AF9203C2AF75C7AA75C7555391FEA215
:100990000392AFD2DEC2DCC292C208F511C284C299
:0A09A0008653B3FB43B404C2922255
:10029C00E51260026135D286D20875E905F5EA757A
:1002AC00EB10439B02751201D28453B3FB53B4FB86
:1002BC0043DE0153DF3F538EBF75D10375D9E7A2DF
:1002CC00AF9203C2AF75C7AA75C755439101A2037C
:1002DC0092AF75D20175DAF3A2AF9203C2AF75C7B4
:1002EC00AA75C7555391FEA20392AFD2DEA2AF926C
:1002FC0003C2AF75C7AA75C755439101A20392AF4C
:10030C0075D20175DA80A2AF9203C2AF75C7AA7518
:10031C00C7555391FEA20392AFD2DED2DF750F0107
:10032C00751080F50EC20961D8E5126401705A751A
:10033C00120243DE0153DF3F538EBF75D10375D9D3
:10034C00E7A2AF9203C2AF75C7AA75C75543910117
:10035C00A20392AF75D20175DAF3A2AF9203C2AFCA
:10036C0075C7AA75C7555391FEA20392AFD2DEA2F0
:10037C00AF9203C2AF75C7AA75C755439101A203CB
:10038C0092AFF5D275DAF08022E512640270357501
:10039C001204A2AF9203C2AF75C7AA75C755439199
:1003AC0001A20392AF75D20175DA80A2AF9203C29B
:1003BC00AF75C7AA75C7555391FEA20392AFD2DE93
:1003CC00D2DF8008E512B40403120960AF127E007C
:0103DC0022FE
:0307FC00AF122217
:100A91003009037F0022AFD2EFFEADDAEDFFD3EFD5
:100AA1009420EE940140037F0122D3EF9480EE94D1
:080AB1000040037F02227F03D5
:010AB900221A
:1004FE00300822D3E51094F0E50F9400400AE51180
:10050E00D39403400D7F0122E511D3940640037F5F
:10051E0001227F0122E51264016002A1CB300902A3
:10052E00A1CB050EE50EC394145002A1CBE4F50E3B
:10053E0074FA2510F51074FF350FF50FC3E51094FE
:10054E000AE50F9400404074FA2510F51074FF353B
:10055E000FF50FA2AF9203C2AF75C7AA75C7554369
:10056E009101A20392AFE50FF5D2E510F5DAA2AF35
:10057E009203C2AF75C7AA75C7555391FEA20392D7
:10058E00AFD2DEC2DC8036D20953DEFEA2AF9203BA
:10059E00C2AF75C7AA75C755439101A20392AFE4C6
:1005AE00F5D2F5DAA2AF9203C2AF75C7AA75C755D9
:1005BE005391FEA20392AFD2DEC2DCC2927F002222
:03000000020743B1
:1007430075C7AA75C75575FD5A75C7AA75C7557577
:10075300FDA5787FE4F6D8FD9000007FFF7E03E4DB
:0C076300F0A3DFFCDEFA75813F0207AA5C
:10076F0002003EE493A3F8E493A34003F68001F262
:10077F0008DFF48029E493A3F85407240CC8C3338B
:10078F00C4540F4420C8834004F456800146F6DF5A
:10079F00E4800B0102040810204080900B63E47E7C
:1007AF00019360BCA3FF543F30E509541FFEE4934F
:1007BF00A360010ECF54C025E060A840B8E493A316
:1007CF00FAE493A3F8E493A3C8C582C8CAC583CA41
:1007DF00F0A3C8C582C8CAC583CADFE9DEE780BEF9
:010B6A00008A
:00000001FF
