:03000B00020016DA
:10001600C0E0758CE5758AF5753601053CE53C70E2
:1000260002053B05250519E5197002051830080279
:050036000511D0E032CD
:100AFC007589FF5389F0438901538EF7758CE57521
:090B0C008AF5D2A9D2AFD28C22E5
:1007DC00E4FFFEFDED25E02426F8E6FA08E62FFFFF
:1007EC00EA3EFE0DBD08EDEF7803CEC313CE13D851
:0207FC00F9FF03
:0107FE0022D8
:1003DD00E525D39400500281E6E4F525C2EFD2EE77
:1003ED0030EFFDAFC37537008F38E538C4F8540FC3
:1003FD00C868F538E537C454F048F537E5C2540FF1
:10040D004238E53E25E02426F8A63708A638053EF5
:10041D00E53EC39408500281E6E4F53E1207DC8EFA
:10042D00378F38120B558F16E516B40113120A913A
:10043D00BF01028019BF0204741080147420801053
:10044D00E516B4020474108007E516B4040B7408A5
:10045D002538F538E43537F537300222E539C394C0
:10046D0003500474B0800DE539C39405500474C075
:10047D00800274D02538F53874FF3537F537D3E55C
:10048D00389408E537940D40057515068043D3E57E
:10049D003894A0E537940C40057515058033D3E5E8
:1004AD00389440E537940C40057515048023D3E549
:1004BD003894E0E537940B40057515038013D3E5AB
:1004CD003894A0E537940B4005751502800375151A
:0B04DD0001851539053F7F01227F00DB
:0104E80022F1
:1008A0001209ED120AFCE4F525F53E120ABA120A05
:1008B000DC752401D205E4F53AC201F522F523F5F1
:1008C0003DC202F53F53E8F043E80243B18053B222
:1008D0007FF5F643F60443E101200414C3E53C949C
:1008E0003CE53B940050051203DD80F0D2048010FB
:1008F000C3E53C940AE53B940050051203DD80F00B
:0C090000E4F53BF53CF518F519F525224F
:10003E00E4F5B1F5B2F5B3F5B4F5ACF5ADD200C259
:10004E00043000051208A0C200E53660F4E5234531
:10005E00226008E5231523700215221208008F1363
:10006E00E52464017052300516C205FDFF12090C1D
:10007E00E4FDFF120003E4F53AF53BF53CC202E560
:10008E001330E012753A01D201752202752358AD74
:10009E0039AF2412090CE51330E105752402D2059F
:1000AE00E51320E202410AE524B402057524088016
:1000BE0003752404D205410AE524640270733005E9
:1000CE000DC205753A02D201F53BF53CC202E513AD
:1000DE0030E01912029C8F14E4FD120003E5147037
:1000EE0004FDFF8004AD39AF2412090CE51320E1A5
:1000FE0014752401D205120960E4FDFF120003E419
:10010E00FDFF12090CE51330E20FE524B40105756D
:10011E0024048003752408D205E51320E302410A66
:10012E00120960E4FDFF120003E4FDFF12090C4109
:10013E000AE52464047044300514C205753A03D2EE
:10014E0001F53BF53CD202AD39AF2412090CE51393
:10015E0030E105752408D205E51330E207E4F53BDE
:10016E00F53C410AE524B40805752402800975247E
:10017E0001E4FDFF12090CD205410AE52464087062
:10018E007B300514C205D201753A03F53BF53CD21E
:10019E0002AD39AF2412090CE51330E00A12029CAD
:1001AE008F14E4FD120003E51320E10E752404D232
:1001BE0005120960E4FDFF120003E51330E207E4C7
:1001CE00F53BF53C8028E524B40405752401801C1C
:1001DE00752402120B558F14E4FD120003E5147002
:1001EE0004FDFF8004AD39AF2412090CD205E513CE
:1001FE0030E309120960E4FDFF1200031203DD1261
:10020E0004E9EF600F120960E4FDFF120003E4FD44
:10021E00FF12090C120B55EF6005E4F53BF53CADF2
:10022E003DAF2412067DC3E53C94D0E53B940750C8
:10023E0002014FE4F53BF53CF5B1F5B2F5B3F5B47B
:10024E00F5ACF5AD53E1FE120960E4FDFF120B4073
:10025E00E4FDFF120003120A6643B38053B47FA27B
:10026E00AF920375C7AA75C75575910143B38075D3
:10027E00C7AA75C755E4F591A20392AFD2AA4387D8
:0E028E0002F5E9C2A8C2AA539BFDD200014F9F
:03001300020012D6
:0100120032BB
:03003B000209AA0D
:1009AA00C0E0C0F0C083C082C0D075D000C000C013
:1009BA0001C002C003C004C005C006C007E5ECB40C
:1009CA00100312000E75EC00D007D006D005D00433
:1009DA00D003D002D001D000D0D0D082D083D0F0C2
:0309EA00D0E03228
:070B4D00011A00021800006C
:1009ED0053B3F743B40853B1FE43B20153B1FD43C2
:1009FD00B20253B1F743B208C293C280C281C2831F
:100A0D0053B3FE43B40153B3FD43B40253B3DF43B9
:0E0A1D00B420C290C291C295E4F51BC206221D
:100A660043B30843B40843B10143B20143B102435F
:100A7600B20243B10843B20843B30143B40143B3DE
:0B0A86000243B40243B32043B420221B
:100B1500EF139293EFC313FF139280EFC313FF13E9
:090B25009281EFC31313928322A5
:0D0B40008D17120B15E4F518F519C20722E8
:100B2E00EF139290EFC313FF139295EFC31313922B
:020B3E00912202
:08000300ED24FF9206020B2E12
:0505BB00E4F51BAF1A7E
:1005C000EF64017029E539C3940540047E0FC17AB8
:1005D000E539B404047E07C17AE539B403047E0327
:1005E000C17AE53964026002C17A7E01C17AEF64A2
:1005F000047028E539B406047E0F807EE539B40521
:10060000047E078075E539B404047E03806CE53907
:10061000B403047E018063E4FE805FEF6402702F08
:10062000E539C3940540047E0F804FE539B40404D6
:100630007E078046E539B403047E03803DE539B486
:1006400002047E018034E5396401702EFE802BEFB8
:1006500064087026E539B406047E0F801DE539B4C0
:1006600005047E078014E539B404047E03800BE59D
:0C06700039B403047E018002E4FEAF06F2
:01067C00225B
:02090C008D1547
:10090E008F1AE4F518F519E51A7004FDFF803FE51E
:10091E001AB401091205BBAC07E4FD8031E51AB427
:10092E0004091205BBAC07E4FD8023E51A640270CE
:10093E00131205BCAC07EC7005FD7F018010AF04EF
:10094E00E4FD800AE51AB408081205BBE4FD120B9B
:01095E004058
:01095F002275
:04067D008F158D1632
:10068100E51AB40115E51964587004E518640260AF
:1006910002E12FF51AFDFF020B40E51A6404701305
:1006A100E519646445186002E12FF518F519200772
:1006B100318054E51A64027039E5196432451870C5
:1006C1006DF518F51920071AD207F518751901AF3C
:1006D1001A1205C0AC07EC7005EC25E004FCAF0470
:1006E1008049C207E4F518F519AF1A1205C0AC0725
:1006F1008039E51A64087036E51964644518702E6E
:10070100F518F519200716D207F518751901AF1A52
:100711001205C0AC07EC25E004FCFF800EC207E423
:0E072100F518F519AF1A1205C0AC07120B152A
:01072F0022A7
:100ABA00E4F50DF50CF50AF50BC20AF509F508433C
:100ACA00B38053B47F43AC0153ADFE43B12053B25C
:020ADA00DF2219
:10080000E4FFE5367002019FE4F536200A07A2975F
:1008100033F50D800D309707C20AE4F50AF50B8514
:100820000C0DE50D650C6017850D0CD3E50B940AD6
:10083000E50A940040027F01E4F50AF50B8032E5F9
:100840000D702E050BE50B7002050AC394F4E50A42
:1008500094014008750A01750BF48015C3E50B94EB
:1008600090E50A9401400A750A01750BF47F08D2DD
:100870000A30B005E4F509800F0509E509D39414A1
:100880004006750914430702308505E4F508800F1A
:0F0890000508E508D394144006750814430704BF
:01089F002236
:100A2B0043B38053B47FA2AF920375C7AA75C75562
:100A3B0075910143B18075C7AA75C755E4F591A2AD
:100A4B000392AF43E90143E98043EA8053EB7F43D1
:0B0A5B009B02D2AF43870253E9FE224A
:04000E00E4F51122E2
:100ADC00E4F51253B3FB43B404D292C208F511539C
:100AEC00B1BF43B240C28653B1EF43B210C28422AD
:10096000539BFDE4F51253DEFEA2AF9203C2AF75B6
:10097000C7AA75C755439101A20392AFF5D2F5DA24
:10098000A2AF9203C2AF75C7AA75C7555391FEA215
:100990000392AFD2DEC2DCC292C208F511C284C299
:0A09A0008653B3FB43B404C2922255
:10029C00E51260026135D286D20875E905F5EA757A
:1002AC00EB10439B02751201D28453B3FB53B4FB86
:1002BC0043DE0153DF3F538EBF75D10375D9E7A2DF
:1002CC00AF9203C2AF75C7AA75C755439101A2037C
:1002DC0092AF75D20175DAF3A2AF9203C2AF75C7B4
:1002EC00AA75C7555391FEA20392AFD2DEA2AF926C
:1002FC0003C2AF75C7AA75C755439101A20392AF4C
:10030C0075D20175DA80A2AF9203C2AF75C7AA7518
:10031C00C7555391FEA20392AFD2DED2DF750F0107
:10032C00751080F50EC20961D8E5126401705A751A
:10033C00120243DE0153DF3F538EBF75D10375D9D3
:10034C00E7A2AF9203C2AF75C7AA75C75543910117
:10035C00A20392AF75D20175DAF3A2AF9203C2AFCA
:10036C0075C7AA75C7555391FEA20392AFD2DEA2F0
:10037C00AF9203C2AF75C7AA75C755439101A203CB
:10038C0092AFF5D275DAF08022E512640270357501
:10039C001204A2AF9203C2AF75C7AA75C755439199
:1003AC0001A20392AF75D20175DA80A2AF9203C29B
:1003BC00AF75C7AA75C7555391FEA20392AFD2DE93
:1003CC00D2DF8008E512B40403120960AF127E007C
:0103DC0022FE
:030B5500AF1222BA
:100A91003009037F0022AFD2EFFEADDAEDFFD3EFD5
:100AA1009420EE940140037F0122D3EF9480EE94D1
:080AB1000040037F02227F03D5
:010AB900221A
:1004E900300824E512B40115D3E51094F0E50F9412
:1004F90000400AE511D3940A40037F0122E511D394
:10050900940140037F0122E51264016002A1B83021
:100519000902A1B8050EE50EC394145002A1B8E46E
:10052900F50E74FA2510F51074FF350FF50FC3E5B4
:1005390010940AE50F9400404074FA2510F51074E0
:10054900FF350FF50FA2AF9203C2AF75C7AA75C7E2
:1005590055439101A20392AFE50FF5D2E510F5DA03
:10056900A2AF9203C2AF75C7AA75C7555391FEA230
:100579000392AFD2DEC2DC8036D20953DEFEA2AFCF
:100589009203C2AF75C7AA75C755439101A20392D9
:10059900AFE4F5D2F5DAA2AF9203C2AF75C7AA7577
:1005A900C7555391FEA20392AFD2DEC2DCC2927F3D
:0205B90000221E
:03000000020730C4
:1007300075C7AA75C75575FD5A75C7AA75C755758A
:10074000FDA5787FE4F6D8FD9000007FFF7E03E4EE
:0C075000F0A3DFFCDEFA75813F02079782
:10075C0002003EE493A3F8E493A34003F68001F275
:10076C0008DFF48029E493A3F85407240CC8C3339E
:10077C00C4540F4420C8834004F456800146F6DF6D
:10078C00E4800B0102040810204080900B4DE47EA5
:10079C00019360BCA3FF543F30E509541FFEE49362
:1007AC00A360010ECF54C025E060A840B8E493A329
:1007BC00FAE493A3F8E493A3C8C582C8CAC583CA54
:1007CC00F0A3C8C582C8CAC583CADFE9DEE780BE0C
:010B540000A0
:00000001FF
