:03000B00020016DA
:10001600C0E0758CE5758AF5753601053CE53C70E2
:1000260002053B05250519E5197002051830080279
:050036000511D0E032CD
:100B1F007589FF5389F0438901538EF7758CE575FD
:090B2F008AF5D2A9D2AFD28C22C2
:100ABA00E4FFFEFDED25E02426F8E6FA08E62FFF1E
:100ACA00EA3EFE0DBD08EDEF7803CEC313CE13D870
:020ADA00F9FF22
:010ADC0022F7
:1003E000E525D39400500281FEE4F525C2EFD2EE5C
:1003F00030EFFDAFC37537008F38E538C4F8540FC0
:10040000C868F538E537C454F048F537E5C2540FED
:100410004238E53E25E02426F8A63708A638053EF2
:10042000E53EC39408500281FEE4F53E120ABA8EFE
:10043000378F38120B8D8F16E516B40113120A91FF
:10044000BF01028019BF0204741080147420801050
:10045000E516B4020474108007E516B4040B7408A2
:100460002538F538E43537F537300222E539C394BD
:1004700003500474B0800DE539C39405500474C072
:10048000800274D02538F53874FF3537F537D3E559
:10049000389420E537940D40057515068043D3E563
:1004A0003894B0E537940C40057515058033D3E5D5
:1004B000389440E537940C40057515048023D3E546
:1004C0003894E0E537940B40057515038013D3E5A8
:1004D0003894A0E537940B40057515028003751517
:1004E00001E53965156004053F8003E4F53FE53F0C
:1004F000D394044006E4F53F8515397F01227F003F
:0105000022D8
:1008A0001209ED120B1FE4F525F53E120ADD120ABE
:1008B000FF752401D205E4F53AC201F522F523F5CE
:1008C0003DC202F53F53E8F043E80243B18053B222
:1008D0007FF5F643F60443E101200414C3E53C949C
:1008E0003CE53B940050051203E080F0D2048010F8
:1008F000C3E53C940AE53B940050051203E080F008
:0C090000E4F53BF53CF518F519F525224F
:100B510043B12053B2DF75EA20E4F5EB75E9404378
:050B61009B02D2AF224F
:10003E00E4F5B1F5B2F5B3F5B4F5ACF5ADD200C259
:10004E00043000051208A0C200E53660F4E5234531
:10005E00226008E5231523700215221208008F1363
:10006E00E52464017052300516C205FDFF12090C1D
:10007E00E4FDFF120003E4F53AF53BF53CC202E560
:10008E001330E012753A01D201752202752358AD74
:10009E0039AF2412090CE51330E105752402D2059F
:1000AE00E51320E202410AE524B402057524088016
:1000BE0003752404D205410AE524640270733005E9
:1000CE000DC205753A02D201F53BF53CC202E513AD
:1000DE0030E01912029F8F14E4FD120003E5147034
:1000EE0004FDFF8004AD39AF2412090CE51320E1A5
:1000FE0014752401D205120960E4FDFF120003E419
:10010E00FDFF12090CE51330E20FE524B40105756D
:10011E0024048003752408D205E51320E302410A66
:10012E00120960E4FDFF120003E4FDFF12090C4109
:10013E000AE52464047044300514C205753A03D2EE
:10014E0001F53BF53CD202AD39AF2412090CE51393
:10015E0030E105752408D205E51330E207E4F53BDE
:10016E00F53C410AE524B40805752402800975247E
:10017E0001E4FDFF12090CD205410AE52464087062
:10018E007B300514C205D201753A03F53BF53CD21E
:10019E0002AD39AF2412090CE51330E00A12029FAA
:1001AE008F14E4FD120003E51320E10E752404D232
:1001BE0005120960E4FDFF120003E51330E207E4C7
:1001CE00F53BF53C8028E524B40405752401801C1C
:1001DE00752402120B8D8F14E4FD120003E51470CA
:1001EE0004FDFF8004AD39AF2412090CD205E513CE
:1001FE0030E309120960E4FDFF1200031203E0125E
:10020E000501EF600F120960E4FDFF120003E4FD2B
:10021E00FF12090C120B8DEF6005E4F53BF53CADBA
:10022E003DAF24120693C3E53C94D0E53B940750B2
:10023E0002014FE4F53BF53CF5B1F5B2F5B3F5B47B
:10024E00F5ACF5AD53E1FE120960E4FDFF120B783B
:10025E00E4FDFF120003120A66120B5143B38053E2
:10026E00B47FA2AF920375C7AA75C75575910143A6
:10027E00B38075C7AA75C755E4F591A20392AFD2A4
:10028E00AA438702F5E9C2A8C2AA539BFDD2000178
:01029E004F10
:03001300020012D6
:0100120032BB
:03003B000209AA0D
:1009AA00C0E0C0F0C083C082C0D075D000C000C013
:1009BA0001C002C003C004C005C006C007E5ECB40C
:1009CA00100312000E75EC00D007D006D005D00433
:1009DA00D003D002D001D000D0D0D082D083D0F0C2
:0309EA00D0E03228
:070B8500011A000218000034
:1009ED0053B3F743B40853B1FE43B20153B1FD43C2
:1009FD00B20253B1F743B208C293C280C281C2831F
:100A0D0053B3FE43B40153B3FD43B40253B3DF43B9
:0E0A1D00B420C290C291C295E4F51BC206221D
:100A660043B30843B40843B10143B20143B102435F
:100A7600B20243B10843B20843B30143B40143B3DE
:0B0A86000243B40243B32043B420221B
:100B3800EF139293EFC313FF139280EFC313FF13C6
:090B48009281EFC3131392832282
:0D0B78008D17120B38E4F518F519C207228D
:100B6600EF139290EFC313FF139295EFC3131392F3
:020B76009122CA
:08000300ED24FF9206020B66DA
:0505D100E4F51BAF1A68
:1005D600EF64017029E539C3940540047E0FC1908C
:1005E600E539B404047E07C190E539B403047E03FB
:1005F600C190E53964026002C1907E01C190EF644A
:10060600047028E539B406047E0F807EE539B4050A
:10061600047E078075E539B404047E03806CE539F1
:10062600B403047E018063E4FE805FEF6402702FF2
:10063600E539C3940540047E0F804FE539B40404C0
:100646007E078046E539B403047E03803DE539B470
:1006560002047E018034E5396401702EFE802BEFA2
:1006660064087026E539B406047E0F801DE539B4AA
:1006760005047E078014E539B404047E03800BE587
:0C06860039B403047E018002E4FEAF06DC
:010692002245
:02090C008D1547
:10090E008F1AE4F518F519E51A7004FDFF803FE51E
:10091E001AB401091205D1AC07E4FD8031E51AB411
:10092E0004091205D1AC07E4FD8023E51A640270B8
:10093E00131205D2AC07EC7005FD7F018010AF04D9
:10094E00E4FD800AE51AB408081205D1E4FD120B85
:01095E007820
:01095F002275
:040693008F158D161C
:10069700E51AB40115C3E5199458E51894025002F8
:1006A700E151E4F51AFDFF020B78E51A64047017AF
:1006B700C3E5199464E51894005002E151E4F51874
:1006C700F519200735805CE51A6402703DC3E5190A
:1006D7009432E51894004072E4F518F51920071ACA
:1006E700D207F518751901AF1A1205D6AC07EC70C9
:1006F70005EC25E004FCAF04804DC207E4F518F5CE
:1007070019AF1A1205D6AC07803DE51A6408703A8E
:10071700C3E5199464E5189400402FE4F518F5191A
:10072700200716D207F518751901AF1A1205D6ACAE
:1007370007EC25E004FCFF800EC207E4F518F51965
:0A074700AF1A1205D6AC07120B38EA
:010751002285
:100ADD00E4F50DF50CF50AF50BC20AF509F5084319
:100AED00B38053B47F43AC0153ADFE43B12053B239
:020AFD00DF22F6
:10080000E4FFE5367002019FE4F536200A07A2975F
:1008100033F50D800D309707C20AE4F50AF50B8514
:100820000C0DE50D650C6017850D0CD3E50B940AD6
:10083000E50A940040027F01E4F50AF50B8032E5F9
:100840000D702E050BE50B7002050AC394F4E50A42
:1008500094014008750A01750BF48015C3E50B94EB
:1008600090E50A9401400A750A01750BF47F08D2DD
:100870000A30B005E4F509800F0509E509D39414A1
:100880004006750914430702308505E4F508800F1A
:0F0890000508E508D394144006750814430704BF
:01089F002236
:100A2B0043B38053B47FA2AF920375C7AA75C75562
:100A3B0075910143B18075C7AA75C755E4F591A2AD
:100A4B000392AF43E90143E98043EA8053EB7F43D1
:0B0A5B009B02D2AF43870253E9FE224A
:04000E00E4F51122E2
:100AFF00E4F51253B3FB43B404D292C208F5115379
:100B0F00B1BF43B240C28653B1EF43B210C2842289
:10096000539BFDE4F51253DEFEA2AF9203C2AF75B6
:10097000C7AA75C755439101A20392AFF5D2F5DA24
:10098000A2AF9203C2AF75C7AA75C7555391FEA215
:100990000392AFD2DEC2DCC292C208F511C284C299
:0A09A0008653B3FB43B404C2922255
:10029F00E51260026138D286D20875E905F5EA7574
:1002AF00EB10439B02751201D28453B3FB53B4FB83
:1002BF0043DE0153DF3F538EBF75D10375D9E7A2DC
:1002CF00AF9203C2AF75C7AA75C755439101A20379
:1002DF0092AF75D20175DAF3A2AF9203C2AF75C7B1
:1002EF00AA75C7555391FEA20392AFD2DEA2AF9269
:1002FF0003C2AF75C7AA75C755439101A20392AF49
:10030F0075D20175DA80A2AF9203C2AF75C7AA7515
:10031F00C7555391FEA20392AFD2DED2DF750F0104
:10032F00751080F50EC20961DBE5126401705A7514
:10033F00120243DE0153DF3F538EBF75D10375D9D0
:10034F00E7A2AF9203C2AF75C7AA75C75543910114
:10035F00A20392AF75D20175DAF3A2AF9203C2AFC7
:10036F0075C7AA75C7555391FEA20392AFD2DEA2ED
:10037F00AF9203C2AF75C7AA75C755439101A203C8
:10038F0092AFF5D275DAF08022E5126402703575FE
:10039F001204A2AF9203C2AF75C7AA75C755439196
:1003AF0001A20392AF75D20175DA80A2AF9203C298
:1003BF00AF75C7AA75C7555391FEA20392AFD2DE90
:1003CF00D2DF8008E512B40403120960AF127E0079
:0103DF0022FB
:030B8D00AF122282
:100A91003009037F0022AFD2EFFEADDAEDFFD3EFD5
:100AA1009420EE940140037F0122D3EF9480EE94D1
:080AB1000040037F02227F03D5
:010AB900221A
:10050100300822D3E51094F0E50F9400400AE5117C
:10051100D39403400D7F0122E511D3940640037F5C
:1005210001227F0122E51264016002A1CE3009029D
:10053100A1CE050EE50EC394145002A1CEE4F50E32
:1005410074FA2510F51074FF350FF50FC3E51094FB
:100551000AE50F9400404074FA2510F51074FF3538
:100561000FF50FA2AF9203C2AF75C7AA75C7554366
:100571009101A20392AFE50FF5D2E510F5DAA2AF32
:100581009203C2AF75C7AA75C7555391FEA20392D4
:10059100AFD2DEC2DC8036D20953DEFEA2AF9203B7
:1005A100C2AF75C7AA75C755439101A20392AFE4C3
:1005B100F5D2F5DAA2AF9203C2AF75C7AA75C755D6
:1005C1005391FEA20392AFD2DEC2DCC2927F00221F
:03000000020752A2
:1007520075C7AA75C75575FD5A75C7AA75C7557568
:10076200FDA5787FE4F6D8FD9000007FFF7E03E4CC
:0C077200F0A3DFFCDEFA75813F0207B93E
:10077E0002003EE493A3F8E493A34003F68001F253
:10078E0008DFF48029E493A3F85407240CC8C3337C
:10079E00C4540F4420C8834004F456800146F6DF4B
:1007AE00E4800B0102040810204080900B85E47E4B
:1007BE00019360BCA3FF543F30E509541FFEE49340
:1007CE00A360010ECF54C025E060A840B8E493A307
:1007DE00FAE493A3F8E493A3C8C582C8CAC583CA32
:1007EE00F0A3C8C582C8CAC583CADFE9DEE780BEEA
:010B8C000068
:00000001FF
