:03000B00020016DA
:10001600C0E0758CE5758AF5753601053CE53C70E2
:1000260002053B0525051AE51A7002051930060278
:050036000511D0E032CD
:100B29007589FF5389F0438901538EF7758CE575F3
:090B39008AF5D2A9D2AFD28C22B8
:100AE400E4FFFEFDED25E02426F8E6FA08E62FFFF4
:100AF400EA3EFE0DBD08EDEF7803CEC313CE13D846
:020B0400F9FFF7
:010B060022CC
:1003E500E525D394005002A103E4F525C2EFD2EE32
:1003F50030EFFDAFC37537008F38E538C4F8540FBB
:10040500C868F538E537C454F048F537E5C2540FE8
:100415004238E53E25E02426F8A63708A638053EED
:10042500E53EC394085002A103E4F53E120AE48EAA
:10043500378F3812000E8F17E517B40113120A977C
:10044500BF01028019BF020474108014742080104B
:10045500E517B4020474108007E517B4040B74089B
:100465002538F538E43537F537300222E539C394B8
:1004750003500474B0800DE539C39405500474C06D
:10048500800274D02538F53874FF3537F537D3E554
:10049500389420E537940D40057516068043D3E55D
:1004A5003894B0E537940C40057516058033D3E5CF
:1004B500389440E537940C40057516048023D3E540
:1004C5003894E0E537940B40057516038013D3E5A2
:1004D5003894A0E537940B40057516028003751610
:1004E50001E53965166004053F8003E4F53FE53F06
:1004F500D394044006E4F53F8516397F01227F0039
:0105050022D3
:1008A2001209F3120B29E4F525F53E120B07120A81
:1008B200C0752401D205E4F53AC201F522F523F50B
:1008C2003DC202F53F53E8F043E80243B18053B220
:1008D2007FF5F643F60443E101200414C3E53C949A
:1008E2003CE53B940050051203E580F0D2048010F1
:1008F200C3E53C940AE53B940050051203E580F001
:0C090200E4F53BF53CF519F51AF525224B
:100B5B0043B12053B2DF75EA20E4F5EB75E940436E
:050B6B009B02D2AF2245
:10003E00E4F5B1F5B2F5B3F5B4F5ACF5ADD200C259
:10004E00043000051208A2C200E53660F4E523452F
:10005E00226008E5231523700215221208028F1460
:10006E00E52464017052300516C205FDFF12090E1B
:10007E00E4FDFF120003E4F53AF53BF53CC202E560
:10008E001430E012753A01D201752202752358AD73
:10009E0039AF2412090EE51430E105752402D2059C
:1000AE00E51420E202410AE524B402057524088015
:1000BE0003752404D205410AE524640270733005E9
:1000CE000DC205753A02D201F53BF53CC202E514AC
:1000DE0030E0191202A18F15E4FD120003E5157030
:1000EE0004FDFF8004AD39AF2412090EE51420E1A2
:1000FE0014752401D205120962E4FDFF120003E417
:10010E00FDFF12090EE51430E20FE524B40105756A
:10011E0024048003752408D205E51420E302410A65
:10012E00120962E4FDFF120003E4FDFF12090E4105
:10013E000AE52464047044300514C205753A03D2EE
:10014E0001F53BF53CD202AD39AF2412090EE51490
:10015E0030E105752408D205E51430E207E4F53BDD
:10016E00F53C410AE524B40805752402800975247E
:10017E0001E4FDFF12090ED205410AE52464087060
:10018E007B300514C205D201753A03F53BF53CD21E
:10019E0002AD39AF2412090EE51430E00A1202A1A5
:1001AE008F15E4FD120003E51420E10E752404D230
:1001BE0005120962E4FDFF120003E51430E207E4C4
:1001CE00F53BF53C8028E524B40405752401801C1C
:1001DE0075240212000E8F15E4FD120003E5157052
:1001EE0004FDFF8004AD39AF2412090ED205E514CB
:1001FE0030E309120962E4FDFF1200031203E51257
:10020E000506EF6011120962E4FDFF120003E4FD22
:10021E00FF12090ED20512000EEF6005E4F53BF554
:10022E003CAD3DAF24120697C3E53C94D0E53B941C
:10023E00075002014FE4F53BF53CF5B1F5B2F5B3CD
:10024E00F5B4F5ACF5AD53E1FE120962E4FDFF1213
:10025E000B82E4FDFF120003120A6C120B5B43B318
:10026E008053B47FA2AF920375C7AA75C755759117
:10027E000143B38075C7AA75C755E4F591A20392E1
:10028E00AFD2AA438702F5E9C2A8C2AA539BFDD2F8
:03029E0000014F0D
:03001300020011D7
:0100110032BC
:03003B000209B007
:1009B000C0E0C0F0C083C082C0D075D000C000C00D
:1009C00001C002C003C004C005C006C007E5ECB406
:1009D0001003120B9775EC00D007D006D005D00499
:1009E000D003D002D001D000D0D0D082D083D0F0BC
:0309F000D0E03222
:070B8F00011B000219000028
:1009F30053B3F743B40853B1FE43B20153B1FD43BC
:100A0300B20253B1F743B208C293C280C281C28318
:100A130053B3FE43B40153B3FD43B40253B3DF43B3
:0E0A2300B420C290C291C295E4F51CC2092213
:100A6C0043B30843B40843B10143B20143B1024359
:100A7C00B20243B10843B20843B30143B40143B3D8
:0B0A8C000243B40243B32043B4202215
:100B4200EF139293EFC313FF139280EFC313FF13BC
:090B52009281EFC3131392832278
:0D0B82008D18120B42E4F519F51AC20A2273
:100B7000EF139290EFC313FF139295EFC3131392E9
:020B80009122C0
:08000300ED24FF9209020B70CD
:0505D500E4F51CAF1B62
:1005DA00EF64017029E539C3940540047E0FC19484
:1005EA00E539B404047E07C194E539B403047E03F3
:1005FA00C194E53964026002C1947E01C194EF643A
:10060A00047028E539B406047E0F807EE539B40506
:10061A00047E078075E539B404047E03806CE539ED
:10062A00B403047E018063E4FE805FEF6402702FEE
:10063A00E539C3940540047E0F804FE539B40404BC
:10064A007E078046E539B403047E03803DE539B46C
:10065A0002047E018034E5396401702EFE802BEF9E
:10066A0064087026E539B406047E0F801DE539B4A6
:10067A0005047E078014E539B404047E03800BE583
:0C068A0039B403047E018002E4FEAF06D8
:010696002241
:02090E008D1644
:100910008F1BE4F519F51AE51B7004FDFF803FE518
:100920001BB401091205D5AC07E4FD8031E51BB409
:1009300004091205D5AC07E4FD8023E51B640270B1
:10094000131205D6AC07EC7005FD7F018010AF04D3
:10095000E4FD800AE51BB408081205D5E4FD120B7E
:010960008214
:010961002273
:040697008F168D1716
:10069B00E51BB40115C3E51A9458E51994025002F1
:1006AB00E155E4F51BFDFF020B82E51B640470179B
:1006BB00C3E51A9464E51994005002E155E4F51969
:1006CB00F51A200A35805CE51B6402703DC3E51A00
:1006DB009432E51994004072E4F519F51A200A1AC0
:1006EB00D20AF519751A01AF1B1205DAAC07EC70BB
:1006FB0005EC25E004FCAF04804DC20AE4F519F5C6
:10070B001AAF1B1205DAAC07803DE51B6408703A83
:10071B00C3E51A9464E5199400402FE4F519F51A12
:10072B00200A16D20AF519751A01AF1B1205DAAC9D
:10073B0007EC25E004FCFF800EC20AE4F519F51A5C
:0A074B00AF1B1205DAAC07120B42D7
:010755002281
:100B0700E4F50DF50CF50AF50BC20BF509F50843ED
:100B1700B38053B47F43AC0153ADFE43B12053B20E
:020B2700DF22CB
:10080200E4FFE536700201A1E4F536200B07A2975A
:1008120033F50D800D309707C20BE4F50AF50B8511
:100822000C0DE50D650C6017850D0CD3E50B940AD4
:10083200E50A940040027F01E4F50AF50B8032E5F7
:100842000D702E050BE50B7002050AC394F4E50A40
:1008520094014008750A01750BF48015C3E50B94E9
:1008620090E50A9401400A750A01750BF47F08D2DB
:100872000B30B005E4F509800F0509E509D394149E
:100882004006750914430702308505E4F508800F18
:0F0892000508E508D394144006750814430704BD
:0108A1002234
:100A310043B38053B47FA2AF920375C7AA75C7555C
:100A410075910143B18075C7AA75C755E4F591A2A7
:100A51000392AF43E90143E98043EA8053EB7F43CB
:0B0A61009B02D2AF43870253E9FE2244
:060B9700E4F511D2072273
:100AC000E4F51353B3FB43B404D292C206C207F554
:100AD00012F51153B1BF43B240C28653B1EF43B2D6
:040AE00010C284229A
:10096200539BFDE4F51353DEFEA2AF9203C2AF75B3
:10097200C7AA75C755439101A20392AFF5D2F5DA22
:10098200A2AF9203C2AF75C7AA75C7555391FEA213
:100992000392AFD2DEC2DCC292C206C207F511F5E3
:0E09A20012C284C28653B3FB43B404C2922235
:1002A100E5136002613DD286D20675126475E905D7
:1002B100F5EA75EB10439B02751301D28453B3FB2E
:1002C10053B4FB43DE0153DF3F538EBF75D103753A
:1002D100D9E7A2AF9203C2AF75C7AA75C7554391BB
:1002E10001A20392AF75D20175DAF3A2AF9203C2F4
:1002F100AF75C7AA75C7555391FEA20392AFD2DE5F
:10030100A2AF9203C2AF75C7AA75C755439101A2A7
:100311000392AF75D20175DA80A2AF9203C2AF75B5
:10032100C7AA75C7555391FEA20392AFD2DED2DFA1
:10033100750F01751080F50EC20861E0E5136401C7
:10034100705A75130243DE0153DF3F538EBF75D1DF
:100351000375D9E7A2AF9203C2AF75C7AA75C75596
:10036100439101A20392AF75D20175DAF3A2AF9264
:1003710003C2AF75C7AA75C7555391FEA20392AFC9
:10038100D2DEA2AF9203C2AF75C7AA75C75543911A
:1003910001A20392AFF5D275DAF08022E51364026F
:1003A1007035751304A2AF9203C2AF75C7AA75C7A2
:1003B10055439101A20392AF75D20175DA80A2AFC4
:1003C1009203C2AF75C7AA75C7555391FEA2039296
:1003D100AFD2DED2DF8008E513B40403120962AFA5
:0403E100137E002265
:03000E00AF13220B
:100A97003008037F0022AFD2EFFEADDAEDFFD3EFD0
:100AA7009420EE940140037F0122D3EF9480EE94CB
:080AB7000040037F02227F03CF
:010ABF002214
:1005060030062130070EC3E5109405E50F94004030
:10051600037F0122E512D394004009D51206200775
:10052600037F0122E51364016002A1D2300802A113
:10053600D2050EE50EC394145002A1D2E4F50E7452
:10054600FA2510F51074FF350FF50FC3E510940A60
:10055600E50F9400404074FA2510F51074FF350F2E
:10056600F50FA2AF9203C2AF75C7AA75C7554391DF
:1005760001A20392AFE50FF5D2E510F5DAA2AF922C
:1005860003C2AF75C7AA75C7555391FEA20392AFB2
:10059600D2DEC2DC8036D20853DEFEA2AF9203C2A0
:1005A600AF75C7AA75C755439101A20392AFE4F58B
:1005B600D2F5DAA2AF9203C2AF75C7AA75C7555373
:0F05C60091FEA20392AFD2DEC2DCC2927F00226E
:030000000207569E
:1007560075C7AA75C75575FD5A75C7AA75C7557564
:10076600FDA5787FE4F6D8FD9000007FFF7E03E4C8
:0C077600F0A3DFFCDEFA75813F0207BD36
:1007820002003EE493A3F8E493A34003F68001F24F
:1007920008DFF48029E493A3F85407240CC8C33378
:1007A200C4540F4420C8834004F456800146F6DF47
:1007B200E4800B0102040810204080900B8FE47E3D
:1007C200019360BCA3FF543F30E509541FFEE4933C
:1007D200A360010ECF54C025E060A840B8E493A303
:1007E200FAE493A3F8E493A3C8C582C8CAC583CA2E
:1007F200F0A3C8C582C8CAC583CADFE9DEE780BEE6
:010B9600005E
:00000001FF
