:03000B0002075E8B
:10075E00C0E0758CE5758AF5753D010542E5427080
:10076E00020541053F05240514E5147002051330FA
:07077E0009020516D0E0326C
:100800007589FF5389F0438901538EF7758CE5751F
:090810008AF5D2A9D2AFD28C22E4
:10001600E4FFFE7D04ED25E02425F8E6FA08E62F48
:10002600FFEA3EFE0DBD0CEDEF7803CEC313CE13F3
:03003600D8F9FFF7
:0100390022A4
:10078500E53EB404047F0F801DE53EB403047F07F6
:100795008014E53EB402047F03800BE53EB40104FA
:0607A5007F018002E4FF69
:0107AB00222B
:10036A00E524D3940050028142E4F524C2EFD2EE90
:10037A0030EFFDAFC37510008F11E511C4F8540FAB
:10038A00C868F511E510C454F048F510E5C2540FD9
:10039A004211E54425E02425F8A61008A6110544D3
:1003AA00E544C3940C50028142E4F5441200168ECF
:1003BA00108F11120853BF04047420800CBF02046A
:1003CA0074108005BF010B74082511F511E435106E
:1003DA00F51030020C74802511F51174FF3510F5F3
:1003EA0010D3E51194A0E510940C40057512048011
:1003FA003AD3E5119440E510940C40057512038038
:10040A002AD3E51194D0E510940B400575120280A9
:10041A001AD3E5119460E510940B4005751201801A
:10042A000AC3E510940A5003E4F51285123E054505
:0A043A001207858F437F01227F0027
:010444002295
:100591001206BA12080053E8F043E80243B180534F
:1005A100B27FE4F5F643F60443E101F524F5441284
:1005B10007AC1207CE752301D205E4F540C201F55F
:1005C10022F543C202F545200414C3E54294C8E56F
:1005D100419400500712036A052480EED204E4F529
:0405E10041F542227C
:10003E00E4F5B1F5B2F5B3F5B4F5ACF5ADD200C259
:10004E0004300005120591C200E53D60F4E5226022
:10005E000215221204F18F0EE5236401704830055B
:10006E0016C205FDFF120842E4FDFF120003E4F57F
:10007E0040F541F542C202E50E30E008754001D26E
:10008E00017522C8E50E30E105752302D205E50E95
:10009E0020E20221C2E523B4020575230880037510
:1000AE002304D20521C2E5236402705830050DC227
:1000BE0005754002D201F541F542C202E50E30E06F
:1000CE000A1202758F0FE4FD120003E50E20E10EF9
:1000DE00752301D205120678E4FDFF120003E50E2A
:1000EE0030E218E523B40105752304800375230857
:1000FE00120678E4FDFF120003D205E50E20E3029E
:10010E0021C221B9E52364047040300516C205757D
:10011E004003D201F541F542D202120678E4FDFF0A
:10012E00120003E50E30E105752308D205E50E3009
:10013E00E207E4F541F542807BE523B4080575231B
:10014E00028003752301D205806AE523640870647A
:10015E0030050DC205D201754003F541F542D202BC
:10016E00E50E30E00A1202758F0FE4FD120003E572
:10017E000E20E10E752304D205120678E4FDFF125F
:10018E000003E50E30E207E4F541F5428018E52361
:10019E00B404057523018003752302D20512067877
:1001AE00E4FDFF120003E50E30E309120678E4FDCC
:1001BE00FF12000312036AE5406025300111E5438A
:1001CE00600DE54014F50FFDAF43120842C201E584
:1001DE0022700DE540B40108E4F540FDFF1208421F
:1001EE00120832EF6009120678E4FDFF12000312C6
:1001FE000853EF6005E4F541F542AF431205E5C340
:10020E00E54294D0E54194075002014FE4F541F5E3
:10021E0042F5B1F5B2F5B3F5B4F5ACF5AD53E1FE7B
:10022E00120678E4FDFF120842E4FDFF12000312ED
:10023E00073343B38053B47FA2AF920375C7AA7539
:10024E00C75575910143B38075C7AA75C755E4F5B7
:10025E0091A20392AFD2AA438702F5E9C2A8C2AA1D
:07026E00539BFDD200014F7C
:0300130002003AAE
:01003A003293
:03003B0002063585
:10063500C0E0C0F0C083C082C0D075D000C000C08B
:1006450001C002C003C004C005C006C007E5ECB484
:10065500100312084F75EC00D007D006D005D00462
:10066500D003D002D001D000D0D0D082D083D0F03A
:03067500D0E032A0
:04000E0002130000D9
:1006BA0053B3F743B40853B1FE43B20153B1FD43F8
:1006CA00B20253B1F743B208C293C280C281C28355
:1006DA0053B3FE43B40153B3FD43B40253B3DF43F0
:0E06EA00B420C290C291C295E4F515C206225A
:1007330043B30843B40843B10143B20143B1024395
:10074300B20243B10843B20843B30143B40143B314
:0B0753000243B40243B32043B4202251
:10081900EF139293EFC313FF139280EFC313FF13E8
:090829009281EFC31313928322A4
:0D0842008D15120819E4F513F514C20722F4
:1007EE00EF139295EFC313FF139291EFC31313926E
:0207FE00902247
:08000300ED24FF92060207EE56
:1005E500E5156401701CE51464587004E513640294
:1005F500703DF513F51420072CD207F5137514017A
:100605008020E51564027027E51464C84513701F42
:10061500F513F51420070ED207F513751401EF2510
:10062500E004FF8007C207E4F513F5141208192248
:1007AC00E4F50DF50CF50AF50BC208F509F508434F
:1007BC00B38053B47F43AC0153ADFE43B12053B26D
:0207CC00DF222A
:1004F100E4FFE53D7002A190E4F53D200807A297D5
:1005010033F50D800D309707C208E4F50AF50B8528
:100511000C0DE50D650C6017850D0CD3E50B940AE8
:10052100E50A940040027F01E4F50AF50B8032E50B
:100531000D702E050BE50B7002050AC394F4E50A54
:1005410094014008750A01750BF48015C3E50B94FD
:1005510090E50A9401400A750A01750BF47F08D2EF
:100561000830B005E4F509800F0509E509D39414B5
:100571004006750914430702308505E4F508800F2C
:0F0581000508E508D394144006750814430704D1
:010590002248
:1006F80043B38053B47FA2AF920375C7AA75C75599
:1007080075910143B18075C7AA75C755E4F591A2E3
:100718000392AF43E90143E98043EA8053EB7F4307
:0B0728009B02D2AF43870253E9FE2280
:04084F00E4F5162294
:1007CE00E4F51743B30443B404D292C209F51653A9
:1007DE00B1BF43B240C28653B1EF43B210C28422BE
:10067800539BFDE4F51753DEFEA2AF9203C2AF759C
:10068800C7AA75C755439101A20392AFF5D2F5DA0F
:10069800A2AF9203C2AF75C7AA75C7555391FEA200
:1006A8000392AFD2DEC2DCC292C209F516C284C27E
:0206B800862298
:10027500E517706CD286D20975E905F5EA75EB10BC
:10028500439B02751701D28443DE0153DF3F538E32
:10029500BF75D10375D9E7A2AF9203C2AF75C7AADF
:1002A50075C755439101A20392AF75D20175DAF373
:1002B500A2AF9203C2AF75C7AA75C7555391FEA2E7
:1002C5000392AFD2DEA2AF9203C2AF75C7AA75C7BC
:1002D50055439101A20392AF75D20175DA80802151
:1002E500E51764017034751702A2AF9203C2AF75AA
:1002F500C7AA75C755439101A20392AFF5D275DA26
:10030500F0A2AF9203C2AF75C7AA75C7555391FE48
:10031500A20392AFD2DED2DF8046E51764027038C1
:1003250075170453DEFEA2AF9203C2AF75C7AA7557
:10033500C755439101A20392AFF5D2F5DAA2AF9268
:1003450003C2AF75C7AA75C7555391FEA20392AFF5
:10035500D2DEC2DCC2928008E517B4040312067827
:05036500AF177E00222D
:03085300AF1722BA
:1008320030090AE516D3940540037F01227F002286
:03000000020445B2
:1004450075C7AA75C75575FD5A75C7AA75C7557578
:10045500FDA5787FE4F6D8FD9000007FFF7E03E4DC
:0C046500F0A3DFFCDEFA7581450204AC58
:1004710002003EE493A3F8E493A34003F68001F263
:1004810008DFF48029E493A3F85407240CC8C3338C
:10049100C4540F4420C8834004F456800146F6DF5B
:1004A100E4800B010204081020408090000EE47EDD
:1004B100019360BCA3FF543F30E509541FFEE49350
:1004C100A360010ECF54C025E060A840B8E493A317
:1004D100FAE493A3F8E493A3C8C582C8CAC583CA42
:1004E100F0A3C8C582C8CAC583CADFE9DEE780BEFA
:0100120000ED
:00000001FF
