:03000B000206D218
:1006D200C0E0758CE5758AF5753D010542E542700D
:1006E200020541053F05240514E514700205133087
:0706F20008020516D0E032FA
:100759007589FF5389F0438901538EF7758CE575C7
:090769008AF5D2A9D2AFD28C228C
:10001600E4FFFE7D04ED25E02425F8E6FA08E62F48
:10002600FFEA3EFE0DBD0CEDEF7803CEC313CE13F3
:03003600D8F9FFF7
:0100390022A4
:10073B00E53EB404047F0F8014E53EB403047F0749
:0D074B00800BE53EB402047F0380027F01B5
:01075800227E
:10033300E524D39400500261FFE4F524C2EFD2EE2A
:1003430030EFFDAFC37510008F11E511C4F8540FE2
:10035300C868F511E510C454F048F510E5C2540F10
:100363004211E54425E02425F8A61008A61105440A
:10037300E544C3940C500261FFE4F5441200168E69
:10038300108F111207BEBF04047420800CBF020437
:1003930074108005BF010B74082511F511E43510A5
:1003A300F51030020C74602511F51174FF3510F54A
:1003B30010D3E51194D0E510940C40057512048018
:1003C3002ED3E5119470E510940C4005751203804B
:1003D3001ED3E5119400E510940C400575120280BC
:1003E3000EC3E5119480E510940B5003751201853B
:0E03F300123E054512073B8F437F01227F001B
:0104010022D8
:10069A0012062112075953E8F043E80243B1805386
:1006AA00B27FE4F5F643F60443E101F524F544127A
:1006BA0006F912071B752301D204E4F540C201F5BD
:0806CA0022F543C202F54522AE
:10003E00E4F5B1F5B2F5B3F5B4F5ACF5ADD20030EB
:10004E00000512069AC200E53D60F4E52260021535
:10005E00221204AE8F0EE52364017048300416C2DE
:10006E0004FDFF1207ADE4FDFF120003E4F540F5B9
:10007E0041F542C202E50E30E008754001D201752D
:10008E0022C8E50E30E105752302D204E50E20E20A
:10009E0002219FE523B4020575230880037523040E
:1000AE00D204219FE5236402704C30040DC2047506
:1000BE004002D201F541F542C202E50E30E00A12CD
:1000CE0002408F0FE4FD120003E50E20E1087523B8
:1000DE0001D2041205E1E50E30E212E523B401056A
:1000EE0075230480037523081205E1D204E50E2062
:1000FE00E302219F2196E5236404703730040DC27C
:10010E0004754003D201F541F542D202E50E30E10D
:10011E0005752308D204E50E30E207E4F541F542F9
:10012E00806FE523B408057523028003752301D281
:10013E0004805EE5236408705830040DC204D201B9
:10014E00754003F541F542D202E50E30E00A120287
:10015E00408F0FE4FD120003E50E20E10875230425
:10016E00D2041205E1E50E30E207E4F541F54280D6
:10017E0012E523B404057523018003752302D2040E
:10018E001205E1E50E30E3091205E1E4FDFF120070
:10019E0003120333E5406025300111E543600DE5A0
:1001AE004014F50FFDAF431207ADC201E522700DED
:1001BE00E540B40108E4F540FDFF1207AD12079DBE
:1001CE00EF60091205E1E4FDFF1200031207BEEF16
:1001DE006005E4F541F542AF4312054EC3E5429486
:1001EE00D0E54194075002014DE4F541F542120568
:1001FE00E1E4FDFF1207ADE4FDFF12000343B380FF
:10020E0053B47FA2AF920375C7AA75C755759101F6
:10021E0043B38075C7AA75C755E4F591A20392AF93
:10022E00D2AA438702F5E9C2A8C2AA539BFDD20007
:02023E00014D70
:0300130002003AAE
:01003A003293
:03003B0002059E1D
:10059E00C0E0C0F0C083C082C0D075D000C000C023
:1005AE0001C002C003C004C005C006C007E5ECB41C
:1005BE0010031207BA75EC00D007D006D005D00490
:1005CE00D003D002D001D000D0D0D082D083D0F0D2
:0305DE00D0E03238
:04000E0002130000D9
:1006210053B3F743B40853B1FE43B20153B1FD4391
:10063100B20253B1F743B208C293C280C281C283EE
:1006410053B3FE43B40153B3FD43B40253B3DF4389
:0E065100B420C290C291C295E4F515C20522F4
:10077200EF139293EFC313FF139280EFC313FF1390
:090782009281EFC313139283224C
:0D07AD008D15120772E4F513F514C2062233
:10078B00EF139295EFC313FF139291EFC3131392D1
:02079B009022AA
:08000300ED24FF920502078BBA
:10054E00E5156401701CE51464587004E51364022B
:10055E00703DF513F51420062CD206F51375140113
:10056E008020E51564027027E51464C84513701FDA
:10057E00F513F51420060ED206F513751401EF25AA
:10058E00E004FF8007C206E4F513F5141207722289
:1006F900E4F50DF50CF50AF50BC207F509F5084304
:10070900B38053B47F43AC0153ADFE43B12053B220
:02071900DF22DD
:1004AE00E4FFE53D7002A14DE4F53D200707A2975C
:1004BE0033F50D800D309707C207E4F50AF50B856D
:1004CE000C0DE50D650C6017850D0CD3E50B940A2C
:1004DE00E50A940040027F01E4F50AF50B8032E54F
:1004EE000D702E050BE50B7002050AC394F4E50A98
:1004FE0094014008750A01750BF48015C3E50B9441
:10050E0090E50A9401400A750A01750BF47F08D232
:10051E000730B005E4F509800F0509E509D39414F9
:10052E004006750914430702308505E4F508800F6F
:0F053E000508E508D39414400675081443070414
:01054D00228B
:10065F0043B38053B47FA2AF920375C7AA75C75532
:10066F0075910143B18075C7AA75C755E4F591A27D
:10067F000392AF43E90143E98043EA8053EB7F43A1
:0B068F009B02D2AF43870253E9FE221A
:0407BA00E4F516222A
:10071B00E4F51743B30443B404D292C208F516535D
:10072B00B1BF43B240C28653B1EF43B210C2842271
:1005E100539BFDE4F51753DEFEA2AF9203C2AF7534
:1005F100C7AA75C755439101A20392AFF5D2F5DAA7
:10060100A2AF9203C2AF75C7AA75C7555391FEA297
:100611000392AFD2DEC2DCC292C208F516C28422B6
:10024000E517706AD20875E905F5EA75EB10439B6E
:1002500002751701D28443DE0153DF3F538EBF7511
:10026000D10375D9E7A2AF9203C2AF75C7AA75C70C
:1002700055439101A20392AF75D20175DAF3A2AF93
:100280009203C2AF75C7AA75C7555391FEA20392D8
:10029000AFD2DEA2AF9203C2AF75C7AA75C75543EE
:1002A0009101A20392AF75D20175DA808021E51722
:1002B00064017034751702A2AF9203C2AF75C7AA6A
:1002C00075C755439101A20392AFF5D275DAF0A23A
:1002D000AF9203C2AF75C7AA75C7555391FEA2036B
:1002E00092AFD2DED2DF8046E51764027038751710
:1002F0000453DEFEA2AF9203C2AF75C7AA75C755FD
:10030000439101A20392AFF5D2F5DAA2AF9203C2F4
:10031000AF75C7AA75C7555391FEA20392AFD2DE3F
:10032000C2DCC2928008E517B404031205E1AF17DE
:030330007E00222A
:0307BE00AF172250
:10079D0030080AE516D3940540037F01227F00221D
:03000000020402F5
:1004020075C7AA75C75575FD5A75C7AA75C75575BB
:10041200FDA5787FE4F6D8FD9000007FFF7E03E41F
:0C042200F0A3DFFCDEFA758145020469DE
:10042E0002003EE493A3F8E493A34003F68001F2A6
:10043E0008DFF48029E493A3F85407240CC8C333CF
:10044E00C4540F4420C8834004F456800146F6DF9E
:10045E00E4800B010204081020408090000EE47E20
:10046E00019360BCA3FF543F30E509541FFEE49393
:10047E00A360010ECF54C025E060A840B8E493A35A
:10048E00FAE493A3F8E493A3C8C582C8CAC583CA85
:10049E00F0A3C8C582C8CAC583CADFE9DEE780BE3D
:0100120000ED
:00000001FF
