:10177B000A2061646376616C756574656D703D25D7
:10178B0064000A2061646376616C75653D256400B5
:0C179B000A206261743D25302E34660087
:0718EA0002250000013D0092
:1018680075C7AA75C755A2AF920BC2AF75C7AA753F
:0A187800C755439F80A20B92AF22D8
:10156F008F4D8E4C8D4B8C4A53B1FB53B2FB53B303
:10157F00BF53B4BF75F85075C40853C4DFAB4DAA41
:10158F004CA94BA84A7F407E427D0F7C0012059AE2
:10159F00C374FF9FFF74FF9EFEE49DFDE49CFC78E7
:1015AF000812063A8FC6AB4DAA4CA94BA84A7F40EA
:1015BF007E427D0F7C0012059AC374FF9FFF8FC57B
:0415CF0043C40822E7
:0700030030F8FDAF9AC2F8CE
:01000A0022D3
:080FF700C2F98F9A30F9FD22C6
:0819010030F9FDC2F98F9A22B2
:03000B0002184890
:10184800C0E0758CE5758AF57539010543E5437087
:1018580002054205280515E51570020514D0E03289
:101882007589FF5389F0438901538EF7758CE5758D
:091892008AF5D2A9D2AFD28C2252
:10001600E4FFFEFDED25E02429F8E6FA08E62FFFC9
:10002600EA3EFE0DBD08EDEF7803CEC313CE13D81E
:02003600F9FFD0
:0100380022A5
:10146000BD01067A007B288015BD02067A007B1E2E
:10147000800CBD03067A007B148003E4FAFBE53C94
:10148000B401028013E53CB40202800CE53CB403D5
:10149000028005E53CB40405C374C88046E53CB44D
:1014A000051FD3EF9448EE940D400474508034D35C
:1014B000EF94E4EE940C400474648003C374B4802D
:1014C00022E53CB40624D3EF9448EE940D40047416
:1014D000328010D3EF94E4EE940C400474508003F7
:0E14E000C374969BF582E49AF583AF82AE83C7
:0114EE0022DB
:100D3600E528D39F5002E148E4F528759504C2EFF3
:100D4600D2EE30EFFDE4F595AFC3F54C8F4DE54D92
:100D5600C4F8540FC868F54DE54CC454F048F54C3A
:100D6600E5C2540F424DE54525E02429F8A64C0876
:100D7600A64D0545E545C394085002E148E4F5450E
:100D8600E546D3940040037F00221200168E4C8F56
:100D96004D7BFF7A17797B854C51854D521206E5BE
:100DA6001217FB8F4BE54BB401131217D2BF01028A
:100DB6008019BF02047448801474708010E54BB427
:100DC600020474488007E54BB4040B7428254DF5DE
:100DD6004DE4354CF54C300A17200F14AD4BAF4D92
:100DE600AE4C121460C3E54D9FF54DE54C9EF54C97
:100DF600200E2CC3E54D941CE54C940C5008753A16
:100E06000C753B1C8019D3E54D9448E54C940D4078
:100E160008753A0C753BE48006854C3A854D3B30A7
:100E26000C59E53B453A7006854C3A854D3BE53B0A
:100E36002408FFE4353AFED3E54D9FE54C9E401568
:100E4600053DE53DD394054032E4F53D7405253B6B
:100E5600F53BE4801EE53B24F8FFE53A34FFFEC38C
:100E6600E54D9FE54C9EE45010F53D74FB253BF5A2
:100E76003B74FF353AF53A8002F53D7BFF7A1779E8
:100E86008D853A51853B521206E5AC3AAD3BE412EC
:100E960001E97B8F7AC27955784012003EE4FBFA6D
:100EA60079807845120147E4FBFA794078401200D0
:100EB6003E8F418E408D3F8C3E7BFF7A17799B8F0C
:100EC600548E538D528C511206E5D3E53B94D0E5F2
:100ED6003A940C400A754A06300A47D20F8043D32B
:100EE600E53B94A0E53A940C4005754A058033D35A
:100EF600E53B9440E53A940C4005754A048023D3BB
:100F0600E53B94E0E53A940B4005754A038013D31C
:100F1600E53B94A0E53A940B4005754A02800375BB
:100F26004A01200F1AE53C654A600405478003E440
:100F3600F547E547D394054006E4F547854A3C7FE7
:040F460001227F0005
:010F4A002284
:1018B40043B12053B2DF75EA20E4F5EB75E9404308
:0518C4009B02D2AF22DF
:1015D300E4F542F543F5B1F5B2F5B3F5B4F5ACF581
:1015E300AD53E1FE12162EE4FF1218F6E4FF1200CB
:1015F3000E1217A71218B443B38053B47FA2AF924D
:101603000B75C7AA75C75575910143B38075C7AAF2
:1016130075C755E4F591A20B92AFD2AA438702F5A1
:0B162300E9C2A8C2AA539BFDD2092215
:1014EF007F007EC27D017C0012156FD2F912174268
:1014FF00121882E4F528F5451218261218007527E0
:10150F0001D20DE4F523F524F544C20AF547F53A67
:10151F00F53B53E8F043E80243B18053B27FF5F651
:10152F0043F60443E101200C23F542F543C3E543A1
:10153F0094C8E5429400500C208502D20AE4FF12B1
:10154F000D3680E9D20C7525077526D0E4F542F5E6
:10155F0043F514F515F528300E037546C8C20F2252
:100AF200E4F5B1F5B2F5B3F5B4F5ACF5ADD209C292
:100B02000CC20E3009051214EFC209E53960F4E592
:100B12002445236008E5241524700215231213C00E
:100B22008F48E52764017049300D1EC20D12162E42
:100B3200E4FF12167EE4FF12000EE4F542F543C212
:100B42000AF545300E037546C8E54830E00B7523BB
:100B520002752458AF2712167EE54830E105752745
:100B620002D20DE54820E20281D6752704D20D811A
:100B7200D6E5276402600261FE300D2BC20DF542FC
:100B8200F543C20A1217FB8F4912000EE5497003A2
:100B9200FF8002AF2712167E751402751558E4F510
:100BA20045300E037546C8E54830E0161210008F36
:100BB2004912000EAF2712167EE4F545300E03757A
:100BC20046C8E54820E112752701D20D12162EE41F
:100BD200FF12000EE4FF12167EE54830E20575278B
:100BE20008D20DE54820E30281D612162EE4FF1248
:100BF200000EE4F545200E0281D681D3E527640478
:100C0200704B300D24C20DF542F543D20A12162E56
:100C1200E4FF12000EAF2712167E751402751558E6
:100C2200E4F545300E037546C8E54830E105752701
:100C320008D20DE54830E207E4F542F54381D67566
:100C42002701C20AE4FF12167ED20D81D6E527647F
:100C520008600281D6300D1EC20DF542F543D20A5C
:100C62001217FB8F4912000EAF2712167EE4F545CC
:100C7200300E037546C8E54830E0111210008F4966
:100C820012000EE4F545300E037546C8E54820E132
:100C92000D752704D20D12162EE4FF12000EE54840
:100CA20030E207E4F542F5438014752702C20A12C6
:100CB20017FB8F4912000EAF2712167ED20DE548A0
:100CC20030E31112162EE4FF12000EE4F545300E49
:100CD200037546C8E546D39400400215467F0512C7
:100CE2000D36300F0CE54830E205753C068002C235
:100CF2000F12116BEF601312162EE4FF12000ED2C8
:100D02000DE4F545300E037546C81217FBEF60057A
:100D1200E4F542F543AF2712131EC3E5439526E5DA
:100D2200429525500261057525077526D0D20E120F
:040D320015D361056F
:03001300020011D7
:0100110032BC
:03003B000216C4E6
:1016C400C0E0C0F0C083C082C0D075D000C000C0EC
:1016D40001C002C003C004C005C006C007E5ECB4E5
:1016E40010031218DB75EC00D007D006D005D00427
:1016F400D003D002D001D000D0D0D082D083D0F09B
:03170400D0E03200
:0418F10002140000DD
:1017420053B3F743B40853B1FE43B20153B1FD435F
:10175200B20253B1F743B208C293C280C281C283BC
:1017620053B3FE43B40153B3FD43B40253B3DF4357
:09177200B420C290C291C295227C
:1017A70043B30843B40843B10143B20143B1024311
:1017B700B20243B10843B20843B30143B40143B390
:0B17C7000243B40243B32043B42022CD
:10189B00EF139293EFC313FF139280EFC313FF1356
:0918AB009281EFC3131392832212
:0B18F60012189BE4F514F515C2132234
:1018C900EF139290EFC313FF139295EFC313139283
:0218D90091225A
:03000E000218C90C
:09125700D213F514751501AF0462
:10126000EF6401702AE53CC3940540047E0F611BC6
:10127000E53CB404047E07611BE53CB403047E0333
:10128000611BE53CB402047E01611BE4FE611BEFBF
:1012900064047028E53CB406047E0F807EE53CB40F
:1012A00005047E078075E53CB404047E03806CE58C
:1012B0003CB403047E018063E4FE805FEF6402704F
:1012C0002FE53CC3940540047E0F804FE53CB404F9
:1012D000047E078046E53CB403047E03803DE53C84
:1012E000B402047E018034E53C6401702EFE802B44
:1012F000EF64087026E53CB406047E0F801DE53CD3
:10130000B405047E078014E53CB404047E03800B1E
:0D131000E53CB403047E018002E4FEAF065C
:01131D0022AD
:02167E00AC07B7
:10168000E4F514F515EC7003FF8035BC0109AF04D7
:10169000121260AD078029BC0409AF04121260ADBC
:1016A00007801DBC0212AF04121260AD07ED70047A
:1016B0007F01800CAF058008BC0808AF04121260DF
:0316C0001218F607
:0116C3002204
:02131E00AC071A
:10132000BC0113C3E5159458E5149402500261BF43
:10133000E4FCFF0218F6EC64047015C3E515946430
:10134000E51494004079E4F514F51520132B805131
:10135000EC64027034C3E5159432E5149400405FE8
:10136000E4F514F515201311121257AD07ED7005B1
:10137000ED25E004FDAF058043C213E4F514F51537
:10138000AF04121260AD078033EC64087031C3E51E
:10139000159464E51494004026E4F514F515201323
:1013A0000D121257AD07ED25E004FDFF800EC213AC
:0F13B000E4F514F515AF04121260AD0712189B87
:0113BF00220B
:10182600E4F50DF50CF50AF50BC214F509F50843B8
:10183600B38053B47F43AC0153ADFE43B12053B2E2
:02184600DF229F
:1013C000E4FFE5397002815FE4F539201407A29744
:1013D00033F50D800D309707C214E4F50AF50B853F
:1013E0000C0DE50D650C6017850D0CD3E50B940A0B
:1013F000E50A940040027F01E4F50AF50B8032E52E
:101400000D702E050BE50B7002050AC394F4E50A76
:1014100094014008750A01750BF48015C3E50B941F
:1014200090E50A9401400A750A01750BF47F08D211
:101430001430B005E4F509800F0509E509D39414CB
:101440004006750914430702308505E4F508800F4E
:0F1450000508E508D394144006750814430704F3
:01145F00226A
:1017070043B38053B47FA2AF920B75C7AA75C75571
:1017170075910143B18075C7AA75C755E4F591A2C4
:101727000B92AF43E90143E98043EA8053EB7F43E0
:0B1737009B02D2AF43870253E9FE2261
:0F18DB00E511D3940040021511301002D21122F2
:10180000E4F51353B3FB43B404D292C210C211F5F2
:1018100012F51153B1BF43B240C28653B1EF43B288
:0618200010C284C2122276
:10162E00539BFDE4F51353DEFEA2AF920BC2AF75D2
:10163E00C7AA75C755439101A20B92AFF5D2F5DA41
:10164E00A2AF920BC2AF75C7AA75C7555391FEA232
:10165E000B92AFD2DEC2DCC292C210C211F511F5EE
:10166E0012C284C28653B3FB43B404C292C2122286
:10100000E513600201C1D286A2AF920B75C7AA7523
:10101000C75575910143B41075C7AA75C755F591A9
:10102000A20B92AF43B31053B4EF43E90143E9403D
:1010300053EAEF43EB10439B0253B3FB53B4FB4320
:10104000DE0153DF3F538EBF75D10375D9E7A2AFE1
:10105000920BC2AF75C7AA75C755439101A20B92F7
:10106000AF75D20175DAF3A2AF920BC2AF75C7AA02
:1010700075C7555391FEA20B92AFD2DEA2AF920B71
:10108000C2AF75C7AA75C755439101A20B92AF7540
:10109000D20175DA80A2AF920BC2AF75C7AA75C72D
:1010A000555391FEA20B92AFD2DED2DF75130175BC
:1010B0000F01751080F50EC212D210F512D28421E4
:1010C00066E5136401705A75130243DE0153DF3F76
:1010D000538EBF75D10375D9E7A2AF920BC2AF751E
:1010E000C7AA75C755439101A20B92AF75D201757E
:1010F000DAF3A2AF920BC2AF75C7AA75C755539169
:10110000FEA20B92AFD2DEA2AF920BC2AF75C7AAFE
:1011100075C755439101A20B92AFF5D275DAF080F5
:1011200022E51364027037751304A2AF920BC2AFAD
:1011300075C7AA75C755439101A20B92AF75D2012D
:1011400075DA80A2AF920BC2AF75C7AA75C75553A7
:1011500091FEA20B92AFD2DED2DFC2128008E5135D
:0B116000B4040312162EAF137E002211
:0317FB00AF132207
:1017D2003012037F0022AFD2EFFEADDAEDFFD3EF7E
:1017E2009420EE940140037F0122D3EF9480EE9483
:0817F2000040037F02227F0387
:0117FA0022CC
:10116B0030103E0512E512C39414403505112011C1
:10117B000AE512D3946440297F0122301123121700
:10118B00D27E00EF640170047C0A800CEF64024E87
:10119B0070047C0580027C03E511C39C40037F0136
:1011AB0022E5136401600241543012024154050ED2
:1011BB00E50EC3941450024154E4F50E74FA251055
:1011CB00F51074FF350FF50FC3E510940AE50F9476
:1011DB0000404074FA2510F51074FF350FF50FA27F
:1011EB00AF920BC2AF75C7AA75C755439101A20B3E
:1011FB0092AFE50FF5D2E510F5DAA2AF920BC2AFC5
:10120B0075C7AA75C7555391FEA20B92AFD2DEC21A
:10121B00DC8036D21253DEFEA2AF920BC2AF75C783
:10122B00AA75C755439101A20B92AFE4F5D2F5DA3B
:10123B00A2AF920BC2AF75C7AA75C7555391FEA249
:0B124B000B92AFD2DEC2DCC2927F002B
:011256002275
:03000000020F4BA1
:100F4B0075C7AA75C75575FD5A75C7AA75C7557567
:100F5B00FDA5787FE4F6D8FD9000007FFF7E03E4CB
:0C0F6B00F0A3DFFCDEFA758169020FB212
:10003E00EC4D6011E8497017ED33EC3304600DE4BC
:10004E00FCFFFEFD22E933E8330470F8020257127A
:10005E00022258046009E4CC24815006285009027B
:10006E00026128400302025EC0E0EB4A7044B98090
:10007E0006D0E0FB02024DEF4E701CBD8008EBFF78
:10008E00EAFEE9FD80EBE98DF0A4FEE5F002012722
:10009E00E9CDF9EAFEEBFFEF89F0A4FCE5F0CE899D
:1000AE00F0A42EFFE435F0CD89F0A42DFEE435F05A
:1000BE008067EF4E7005BD80D780C3EF8BF0A4AC88
:1000CE00F0EE8BF0A42CFCE435F0F8EF8AF0A42CC3
:1000DE00E5F038FCE433CB8DF0A42CFCE5F03BF8D6
:1000EE00EE8AF0A42CFCE5F038F8E433CF89F0A4C6
:1000FE002CFCE5F038CF3400CE89F0A42FFFE5F0CC
:10010E003EFEE433C98DF0A42EFEE5F039CD8AF023
:10011E00A42FFFE5F03EFEE43DFD33D0E0FB50079B
:10012E000BBB000F020261EC2CFCEF33FFEE33FE33
:06013E00ED33FD02023961
:10014400020261EC5D046005E85904700302025781
:10015400120222580460F6EC4860F2EC7004FDFED2
:10016400FF22C860DB2481C85009C398600250068E
:1001740002025E9850CAF582E9294B4A7005AB82A7
:1001840002024D75F0007C1A7880C3EF9BEE9AED65
:1001940099400DC3EF9BFFEE9AFEED99FDE842F006
:1001A400DC23ACF0D0E0FFD0E0FED0E0FDAB822059
:1001B400E7101BEB60BAEC2CFCEF33FFEE33FEEDE3
:1001C40033FD020239E803F830E705C0F075F000AA
:1001D400EF2FFFEE33FEED33FD40B830E7C280AAC7
:1001E40075F020800E75F010800575F0087D007E96
:1001F400007F003392D530D50312062CEC33401027
:10020400EF33FFEE33FEED33FDEC33FCD5F0ED229E
:0E021400E5F0247EA2D513CC92E7CDCEFF22DA
:10068300E5652451F8E6056522784E300702785176
:10069300E475F00112064D0205062000EB7F2ED211
:1006A300008018EF540F2490D43440D4FF30040B4F
:1006B300EF24BFB41A0050032461FFE566600215FE
:1006C300660569E5697002056830070D784EE475C3
:1006D300F00112064DEF02054C0219017403D20713
:1006E3008003E4C207F5658B4E8A4F8950E4F566B3
:1006F300F568F569E56660077F201206BE80F5752B
:1007030067FFC201C200C202C203C205C206C20819
:1007130012068CFF700D3007057F001206CFAF69FC
:10072300AE6822B4255FC2D5C20412068CFF24D062
:10073300B40A00501A75F00A786630D50508B6FF7A
:100743000106C6A426F620D5047002D20380D9245C
:10075300CFB41A00EF5004C2E5D2040209BCD2019F
:1007630080C6D20080C0D20280BCD2D580BAD20566
:1007730080B47F201206BE2002077401B5660040D4
:10078300F1120683FF1206BE0206F7D208D20680D4
:1007930095120683FB120683FA120683F94A4B70FD
:1007A3000679B37A0A7BFF20022EE566602A7E0073
:1007B3008E8275830012051F60060EEE656770F06A
:1007C300C2D5EBC0E0EAC0E0E9C0E0EE120A1CD0FB
:1007D300E0F9D0E0FAD0E0FB120506FF60AAEBC017
:1007E300E0EAC0E0E9C0E01206BED0E02401F9D09F
:1007F300E03400FAD0E0FBE5670460DCD567D9801C
:1008030087D20280A21209FF60F7E5677001041224
:10081300026CA967600DE567600914F567120AA603
:10082300EF60F3EA30E702F404C3995077EAF42562
:10083300670430E701E404F567800D1209FF60C126
:10084300EA0567256712026CEA7864F630E701E48B
:10085300256704D5670420050114120A1CE4C0E0CF
:10086300120AA67864E6601320E70714F61206A6B8
:10087300802204F6D0E014C0E07F001206A6E567EC
:10088300600712069D1567800B30050312069DD085
:10089300E00206F7D0E00480C51209FF60A0E56717
:1008A3000412026C7864EAF6E5672005026001042D
:0508B3002404120A1CE0
:1008B80074FF04C0E0120AA61206A6E56720050226
:1008C800600312069DD0E0B567E87F451206B07850
:1008D80064E67F2B30E7047F2DF404C0E01206BEE7
:1008E800D0E075F00A84C0F01206A7D0E01206A77F
:1008F8000206F7791080027908C206C2088008D279
:10090800D5790A8004790AC2D5E567047002F567CB
:10091800E4FAFDFEFF120683FC7B08200113120691
:1009280083FD7B1030000A120683FE120683FF7BCC
:1009380020EC3382D592D55013C3E43000069FFFD4
:10094800E49EFEE42001039DFDE49CFCE4CBF8C298
:1009580001EC700CCFCECDCCE824F8F870F38017FA
:10096800C3EF33FFEE33FEED33FDEC33FCEB33FB2B
:10097800994002FB0FD8E9EB300105F8D0E0C448F4
:10098800B201C0E00AEC4D4E4F78207B0070C2EAFD
:10099800B5670040BCC0E0120A1ED0F0D0E02001CC
:1009A80004C4C0E0C4B201C0F01206A7D0F0D5F06C
:1009B800EB0206F712065D07945308FB5807654CCF
:1009C80007614208FF4F090744090749077A4309A5
:1009D8000D55083E46089C450808470AD350076944
:1009E8002D076D2E07902B077123078E200ABC2A2E
:1009F80007294800000788E567B4FF0375670612F2
:100A08000683FC120683FD120683FE120683FF7816
:100A18005D02029B790AA2D5200314300509B9109A
:100A2800020404B9080104A2D520060250010420DA
:100A380002689202B566005034C0E07F2030031986
:100A48007F30A20272067205500F120A75C202C2E6
:100A580006C205C2087F30800F300503E9C0E012E6
:100A680006BE300503D0E0F9D0E0B566CC300517F6
:100A78007F30B9100C1206BE7F583004077F78808B
:100A880003B908031206BE3002057F2D0206BE7F99
:100A9800202008F87F2B2006F322920280CF7F00C7
:100AA800B407005005245DF8E6FF22286E756C6CCB
:100AB8002900D2011206833001F8C201786630D5C8
:100AC8000108F60207292D504349581206832403CA
:100AD800B405004001E4900ACE931206AF743A12AE
:0A0AE80006AFD2037566040208FB96
:10022200E9D2E7C933E833F892D5EDD2E7CD33EC22
:0702320033FC5002B2D5229B
:10023900EC30E7100FBF000C0EBE00080DBD000426
:100249000BEB6014A2D5EB13FCED92E7FD2274FFD2
:10025900FCFDFEFF22E480F8A2D574FF13FC7D802B
:03026900E480EF3F
:10026C00F920E72824F950037907E4F42402FB1859
:10027C00DBFDE624FB5014E9600DE4F618E604F609
:0F028C00B40A08E4F6D9F57401F60A22C2D522A5
:10029B00ED33EC3392D5FA602AB4FF33EDC2E77B32
:1002AB00FF60067A0279C0E4227A0279C920D5046C
:1002BB007A0279C4224E614E002B494E46002D49DD
:1002CB004E4600E47A08F608DAFC7B00740722E855
:1002DB00C0E0ECC0E0EDC0E0EEC0E0EFC0E0EA75DE
:1002EB00F010A4CAABF075F04DA42BFBE435F0FC79
:1002FB00EA2410FAEB34C5FBEC34D9FCEDC2E7FF72
:10030B0075F056A4F42411C5F0F434C58FF0A42A6B
:10031B00E5F03BE43CF620E7141204C6D0E0FFD036
:10032B00E0FED0E0FDD0E0FC1201478014F4041293
:10033B0004C6D0E0FFD0E0FED0E0FDD0E0FC120020
:10034B003ED0E0F8E6FAEDD2E7CD33EC332482FB76
:10035B00E4C3CF33CFCE33CECD33CD33DBF37B07FB
:10036B0075F00A846004F6081B0AE5F0F6088FF0B6
:10037B00740AA4FFACF08EF0740AA42CFEACF050FF
:10038B00010C8DF0740AA42CFDE435F0F608DBDECD
:03039B00740722C2
:10039E00020257E86480F8E933E83360110460F034
:1003AE00ED33EC337009E8FCE9FDEAFEEBFF2204C5
:1003BE0060DED3EB9FEA9EE99DE8C2E78CF0C2F7C0
:1003CE0095F0400CE8CCF8E9CDF9EACEFAEBCFFB8C
:1003DE0012022285D0F05804700320D5B3E80470C1
:1003EE00075002B2D502026192D5EC0460F7E4CC5C
:1003FE00C0E0C398F8603B94186008400DD0E0FB55
:10040E00020239E4FBFAC9FC8028E830E406E4C9AC
:10041E00FBE4CAFCE830E305E4C9CACBFCE85407A8
:10042E006010F8C3E913F9EA13FAEB13FBEC13FCB3
:10043E00D8F130F52FC3E49CFCEF9BFFEE9AFEED56
:10044E0099FDD0E0FBEF4E4D4C701222DB03020201
:10045E005EEC2CFCEF33FFEE33FEED33FDED30E7BB
:10046E00EB020239EF2BFFEE3AFEED39FDD0E0FB49
:10047E0050130BBB0003020261ED13FDEE13FEEFF2
:08048E0013FFEC13FC0202391C
:100496003F8000004120000042C80000447A00006E
:1004A600461C400047C35000497424004B189680F0
:1004B6004CBEBC205A0E1BCA6753C21C749DC5AEE7
:1004C600FB60065407601C23231204F4EB543860C7
:1004D600091204E01204EF12003EECF8EDF9EEFA10
:1004E600EFCB22EB1204EF80F1543803241C900466
:1004F60096FE93FC0EEE93FD0EEE930ECE93FF2228
:100F7700020AF2E493A3F8E493A34003F68001F294
:100F870008DFF48029E493A3F85407240CC8C3337B
:100F9700C4540F4420C8834004F456800146F6DF4A
:100FA700E4800B01020408102040809018EAE47ED8
:100FB700019360BCA3FF543F30E509541FFEE4933F
:100FC700A360010ECF54C025E060A840B8E493A306
:100FD700FAE493A3F8E493A3C8C582C8CAC583CA31
:100FE700F0A3C8C582C8CAC583CADFE9DEE780BEE9
:0118F50000F2
:10050600BB010689828A83E0225002E722BBFE02F3
:09051600E32289828A83E4932226
:10051F00BB010CE58229F582E5833AF583E0225091
:10052F0006E92582F8E622BBFE06E92582F8E222DB
:0D053F00E58229F582E5833AF583E49322F5
:10054C00BB010689828A83F0225002F722BBFE018E
:02055C00F32288
:10055E0075F008758200EF2FFFEE33FECD33CDCC54
:10056E0033CCC58233C5829BED9AEC99E5829840D7
:10057E000CF582EE9BFEED9AFDEC99FC0FD5F0D6B4
:10058E00E4CEFBE4CDFAE4CCF9A88222B800C1B9DE
:10059E000059BA002DEC8BF084CFCECDFCE5F0CB1C
:1005AE00F97818EF2FFFEE33FEED33FDEC33FCEB55
:1005BE0033FB10D703994004EB99FB0FD8E5E4F910
:1005CE00FA227818EF2FFFEE33FEED33FDEC33FCFD
:1005DE00C933C910D7059BE99A4007EC9BFCE99AF1
:1005EE00F90FD8E0E4C9FAE4CCFB2275F010EF2F36
:1005FE00FFEE33FEED33FDCC33CCC833C810D70736
:10060E009BEC9AE899400AED9BFDEC9AFCE899F870
:0E061E000FD5F0DAE4CDFBE4CCFAE4C8F92203
:0E062C00C3E49FFFE49EFEE49DFDE49CFC22DF
:10063A00E8600FECC313FCED13FDEE13FEEF13FF9E
:03064A00D8F122C2
:10064D00FAE6FB0808E6F925F0F618E6CA3AF622AE
:10065D00D083D082F8E4937012740193700DA3A32C
:10066D0093F8740193F5828883E473740293686040
:06067D00EFA3A3A380DF40
:00000001FF
