:1010C20061703D25640A0061653D25640A00706C0B
:1010D2003D25640A00746C3D25640A0061743D2557
:1010E200640A005030350A005030370A00737973B1
:1010F200696E6974206F7665720A00706F77657227
:10110200206C6576656C3D25640A007764742072F4
:10111200657365740A00696E69742073746167652A
:1011220020410A00696E6974207374616765204208
:101132000A006D6F746F72206C6576656C3D256474
:101142000A00696E697420737461676520430A003E
:10115200696E697420737461676520440A006D6F5B
:10116200746F722D6C6F636B65642C25640A006565
:0A1172006E746572206470640A0058
:0317B500013C00F4
:101462008F0C8E0B8D0A8C0953B1FB53B2FB53B315
:10147200BF53B4BF75F85075C40853C4DFAB0CAA90
:101482000BA90AA8097F407E427D0F7C00120B0443
:10149200C374FF9FFF74FF9EFEE49DFDE49CFC78F5
:1014A20008120BA78FC6AB0CAA0BA90AA8097F408A
:1014B2007E427D0F7C00120B04C374FF9FFF8FC519
:0414C20043C40822F5
:0700030030F8FDAF9AC2F8CE
:01000A0022D3
:0817A500C2F98F9A30F9FD2210
:0817AD0030F9FDC2F98F9A2208
:1014C6008F618E608D5F8C5E538EEF438910D28E56
:1014D600E4FFFEFDFCAB61AA60A95FA85EC3120B28
:1014E600966028758B7E758DFF308FFDC28FE56106
:1014F60024FFFFE56034FFFEE55F34FFFDE55E3463
:0E150600FF8F618E608D5FF55E80C5C28E2204
:03000B000215A833
:1015A800C0E0C0D0758CE5758AF57538010546E54B
:1015B80046700205450527E527700205260563E5FF
:1015C80063700205620542E54270020541C3E544C5
:1015D80094D0E543940750080544E5447002054358
:0515E800D0D0D0E0327C
:100FE6007589FF5389F0438901538EF7758CE57532
:090FF6008AF5D2A9D2AFD28C22F7
:061630008B0C8A0D890EEF
:10163600E4F50FF510FFAB0CAA0DA90E75F002EF3D
:10164600A4F58285F083120A90ACF02510F510EC13
:10165600350FF50F0FBF08DEE510AE0F7803CEC3CA
:0A16660013CE13D8F9F5108E0FFF14
:011670002257
:061739008E598F5A8D5BF2
:10173F00E53BC3940350067A007BB4800FE53BC3AF
:10174F0094057A0050047B7880027B3CAF03AE0295
:01175F002267
:10080000D3E5279FE52694005002418D759504C2DB
:10081000EFD2EE30EFFDE4F595AFC3F50A8F0BE5AF
:100820000BC4F8540FC868F50BE50AC454F048F53A
:100830000AE5C2540F420BE54825E02428F8A60A31
:1008400008A60B0548E4F526F527F541F542E548ED
:10085000C394085002418DE4F548E549D394004023
:10086000037F00227B007A0079281216308E0A8FCF
:100870000B300B28E5587068C3E50B94B8E50A9473
:100880000B500474CE800DC3E50B9480E50A940CE4
:10089000504E74EC250BF50B74FF8040E55860401A
:1008A000B4011F121710BF0109743C250BF50BE4AE
:1008B000802ABF0204745080027478250BF50BE483
:1008C000801AE558B402097450250BF50BE4800C2E
:1008D000E558B4040B743C250BF50BE4350AF50A16
:1008E0007BFF7A1079C2850A0F850B101200A020B9
:1008F0000D0221A9300B59E53A2408FFE43539FEF1
:10090000D3E50B9FE50A9E4023053CE53CD39403C9
:100910005002219DE4F53CE50B953AFFE50A953937
:10092000C313FEEF13253AF53AEE8069E53A24F851
:10093000FFE53934FFFEC3E50B9FE50A9EE4500C4A
:10094000F53C74FB253AF53A74FF8049F53C804D3F
:10095000E53A2408FFE43539FED3E50B9FE50A9E0E
:100960004015053CE53CD394054032E4F53C740564
:10097000253AF53AE4801EE53A24F8FFE53934FFDC
:10098000FEC3E50B9FE50A9EE45010F53C74FB2581
:100990003AF53A74FF3539F5398002F53CE53A45C8
:1009A000397006850A39850B3A7BFF7A1079C9853B
:1009B000390F853A101200A0D3E53A94E4E5399452
:1009C0000C400A750906300B47D2108043D3E53A34
:1009D000946CE539940C40057509058033D3E53AEC
:1009E00094EAE539940B40057509048023D3E53A70
:1009F00094A4E539940B40057509038013D3E53AB7
:100A0000940EE539940B40057509028003750901C0
:100A1000201074E53B65096004054A8003E4F54A4B
:100A2000754B00853B4C7BFF7A1079D0854B0F8549
:100A30004C101200A0754B0085094C7BFF7A107991
:100A4000D7854B0F854C101200A0754B00854A4C82
:100A50007BFF7A1079DE854B0F854C101200A0E5E4
:100A60004AD394054024E4F54A300B09E509D395AF
:100A70003B4017800DE5586009E509C3953B500AD6
:0F0A8000800085093B8003753B067F01227F00C4
:010A8F002244
:1013F100A2AF920CC2AF75C7AA75C755439F01A290
:101401000C92AF75A604E4F5A775AE0F75AFE1A216
:10141100AF920CC2AF75C7AA75C75543A504A20CFC
:1014210092AFA2AF920CC2AF75C7AA75C75543A4BC
:1014310001A20C92AFE59F20E6FBA2AF920CC2AFD6
:1014410075C7AA75C75553A5FBA20C92AFA2AF925F
:101451000CC2AF75C7AA75C755539FFEA20C92AFB8
:011461002268
:100DB100A2AF920CC2AF75C7AA75C755439F01A2D6
:100DC1000C92AFE4F5A6F5A775AFC0A2AF920CC225
:100DD100AF75C7AA75C75543A401A20C92AFAFAEB8
:100DE10075A601A2AF920CC2AF75C7AA75C75543CC
:100DF100A401A20C92AFAEAE75A602A2AF920CC234
:100E0100AF75C7AA75C75543A401A20C92AFADAE89
:100E110075A603A2AF920CC2AF75C7AA75C7554399
:100E2100A401A20C92AFACAE75A604A2AF920CC203
:100E3100AF75C7AA75C75543A401A20C92AFABAE5B
:100E41004303F0A2AF920CC2AF75C7AA75C7554351
:100E5100A504A20C92AF75AFE2F5A7F5A675AEFF9A
:100E6100A2AF920CC2AF75C7AA75C75543A401A220
:100E71000C92AF75AFE18FAEA2AF920CC2AF75C746
:100E8100AA75C75543A401A20C92AF75A6018EAEF7
:100E9100A2AF920CC2AF75C7AA75C75543A401A2F0
:100EA1000C92AF75A6028DAEA2AF920CC2AF75C700
:100EB100AA75C75543A401A20C92AF75A6038CAEC7
:100EC100A2AF920CC2AF75C7AA75C75543A401A2C0
:100ED1000C92AF75A6048BAEA2AF920CC2AF75C7D0
:100EE100AA75C75543A401A20C92AFA2AF920CC23E
:100EF100AF75C7AA75C75553A5FBA20C92AFA2AF98
:100F0100920CC2AF75C7AA75C755539FFEA20C922A
:010F1100AF30
:010F120022BC
:10136A00D286E4F545F546F5B1F5B2F5B3F5B4F52F
:10137A00ACF5AD53E1FE121514E4FF12179AE4FF1F
:10138A0012000E1216E543B12053B2DF3085FD7B01
:10139A00FF7A1079E51200A075E94075EA20E4F5B4
:1013AA00EB439B02D2AF43B38053B47F7BFF7A10E7
:1013BA0079EA1200A0A2AF920C75C7AA75C7557533
:1013CA00910143B38075C7AA75C755E4F591A20C7C
:1013DA0092AFD2AA120DB1438702E4F5E9C2A8C2BC
:0713EA00AA539BFDD209226A
:100F13007F007EC27D017C00121462D2F9E4F5E900
:100F2300C2A8C2AA539BFD1216AC120FE6E4F52623
:100F3300F527F5481200161207E1752501D20EE4D4
:100F4300F523F524F547C20BF54AF539F53A53E88D
:100F5300F043E80243B18053B27FF5F643F604430E
:100F6300E10153B1BF43B240F545F546200D18C228
:100F730086C20BC3E546942CE54594015007E4FF74
:100F830012080080EED20DD286E4F545F546F562EF
:100F9300F563F526F527300F037549C8C2107BFFAB
:100FA3007A1079EF1200A0754B00853B4C7BFF7ADA
:100FB3001079FD854B0F854C101200A0E5AA30E394
:100FC3001C7BFF7A11790D1200A0A2AF920CC2AF65
:100FD30075C7AA75C75553AAF7A20C92AF1213F19E
:030FE300C20A221D
:10039A00E4F5B1F5B2F5B3F5B4F5ACF5ADD209C2F1
:1003AA000DC20FF543F544300905120F13C209E5D2
:1003BA003860F4E52445236008E524152470021505
:1003CA00231212CA8F08E5256401705B300E297B5F
:1003DA00FF7A1179181200A0C20E121514E4FF1246
:1003EA001562C20AE4FF12000EE4F545F546C20B97
:1003FA00F548300F037549C8E50830E01275230245
:10040A00752458AF25121562D20AE4F545F546E57A
:10041A000830E105752502D20EE50820E202C11274
:10042A00752504D20EC112E5256402600281FC30F2
:10043A000E397BFF7A1179261200A0C20EE4F54527
:10044A00F546C20BAF5812000EE5587008FF121598
:10045A0062C20A8007AF25121562D20A7562027556
:10046A006358E4F548300F037549C8E50830E03EA3
:10047A00120C48754B0085584C7BFF7A11793485EC
:10048A004B0F854C101200A0AF5812000EE55870A1
:10049A0008FF121562C20A8007AF25121562D20A36
:1004AA00E4F548300F037549C8E4F545F546E50813
:1004BA0020E114752501D20E121514E4FF12000E64
:1004CA00E4FF121562C20AE50830E205752508D272
:1004DA000EE50820E302C112121514E4FF12000E01
:1004EA00E4FF121562C20AE4F548300F4D7549C897
:1004FA00C10DE52564047054300E307BFF7A117902
:10050A00441200A0C20EE4F545F546D20B121514AA
:10051A00E4FF12000EAF25121562D20A7562027547
:10052A006358E4F548300F037549C8E50830E1051A
:10053A00752508D20EE50830E202C10D752501C203
:10054A000BE4FF121562C20AD20EC112E525640835
:10055A006002C112300E277BFF7A1179521200A075
:10056A00C20EE4F545F546D20BAF5812000EAF2580
:10057A00121562D20AE4F548300F037549C8E50836
:10058A0030E02B120C48754B0085584C7BFF7A11D2
:10059A007934854B0F854C101200A0AF5812000E0B
:1005AA00E4F548300F037549C8E4F545F546E50812
:1005BA0020E114752504D20E121514E4FF12000E60
:1005CA00E4FF121562C20AE50830E207E4F545F5D0
:1005DA00468013752502C20BAF5812000EAF2512C2
:1005EA001562D20AD20EE50830E31D121514E4FF93
:1005FA0012000EAF25121562D20AE4F548300F0335
:10060A007549C8E4F545F546C3E54494E8E54394DD
:10061A00035002C286300B3ED3E54494E8E5439486
:10062A000340337543037544E9E542B4E80FE541F5
:10063A00B4030A7541037542E9C2868028C3E542BC
:10064A00941AE5419404401DE4FF120800D286E49E
:10065A00F541F542800F120038EF60047F508002A6
:10066A007F04120800E549D394004002154930106E
:10067A000CE50830E205753B068002C2101206F549
:10068A00EF60227BFF7A117960750F0375109B1258
:10069A0000A0121514E4FF12000ED20EE4F5483041
:1006AA000F037549C8E5586005E4F545F546300A73
:1006BA0005AF25121228C3E54694D0E545940740B4
:1006CA0015E4F543F544D20F7BFF7A1179711200D4
:1006DA00A0D20F12136AA2AF920CC2AF75C7AA7545
:0B06EA00C75543AA40A20C92AF61B1BB
:03001300020011D7
:0100110032BC
:03003B000215EDBE
:1015ED00C0E0C0F0C083C082C0D075D000C000C0C4
:1015FD0001C002C003C004C005C006C007E5ECB4BD
:10160D00100312178B75EC00D007D006D005D0044F
:10161D00D003D002D001D000D0D0D082D083D0F072
:03162D00D0E032D8
:0417B80002620000C9
:1016AC0053B3F743B40853B1FE43B20153B1FD43F6
:1016BC00B20253B1F743B208C293C280C281C28353
:1016CC0053B3FE43B40153B3FD43B40253B3DF43EE
:0916DC00B420C290C291C2952213
:1016E50043B30843B40843B10143B20143B10243D4
:1016F500B20243B10843B20843B30143B40143B353
:0B1705000243B40243B32043B420228F
:10176000EF139293EFC313FF139280EFC313FF1392
:091770009281EFC313139283224E
:0B179A00121760E4F562F563C2142230
:10177900EF139290EFC313FF139295EFC3131392D4
:021789009122AB
:03000E000217795D
:09100000D214F562756301AF041E
:10100900EF64017021E53BC3940540047E0F01BFE5
:10101900E53BB404047E0701BFE53BB403047E034A
:1010290001BF7E0101BFEF6404702AE53BC394064A
:1010390040047E0F01BFE53BB405047E078077E5D8
:101049003BB404047E03806EE53BB403047E018057
:1010590065E4FE8061EF6402702FE53BC3940540AF
:10106900047E0F8051E53BB404047E078048E53BCC
:10107900B403047E03803FE53BB402047E0180365D
:10108900E53B64017030FE802DEF64087028E53B74
:10109900C3940640047E0F801DE53BB405047E071A
:1010A9008014E53BB404047E03800BE53BB40304E0
:0810B9007E018002E4FEAF0697
:0110C100220C
:02156200AC07D4
:10156400E4F562F563EC7003FF8035BC0109AF0458
:10157400121009AD078029BC0409AF04121009AD8B
:1015840007801DBC0212AF04121009AD07ED7004F0
:101594007F01800CAF058008BC0808AF0412100955
:0315A40012179A81
:0115A7002221
:02122800AC0711
:10122A00BC0113C3E5639458E5629402500241C9B4
:10123A00E4FCFF02179AEC64047015C3E563946436
:10124A00E56294004079E4F562F56320142B80513D
:10125A00EC64027034C3E5639432E5629400405F43
:10126A00E4F562F563201411121000AD07ED700564
:10127A00ED25E004FDAF058043C214E4F562F56391
:10128A00AF04121009AD078033EC64087031C3E56E
:10129A00639464E56294004026E4F562F5632014E1
:1012AA000D121000AD07ED25E004FDFF800EC214FB
:0F12BA00E4F562F563AF04121009AD0712176077
:0112C9002202
:10001600E4F552F551F54FF550C215F54EF54D4341
:10002600B38053B47F43AC0153ADFE43B12053B20A
:02003600DF22C7
:1012CA00E4FFE53870026169E4F538201507A29752
:1012DA0033F552800D309707C215E4F54FF5508566
:1012EA005152E55265516017855251D3E550940A1F
:1012FA00E54F940040027F01E4F54FF5508032E556
:10130A0052702E0550E5507002054FC394F4E54F14
:10131A0094014008754F017550F48015C3E5509447
:10132A0090E54F9401400A754F017550F47F08D239
:10133A001530B005E4F54E800F054EE54ED39414F2
:10134A004006754E14430702308505E4F54D800FBB
:0F135A00054DE54DD394144006754D144307041B
:011369002261
:1016710043B38053B47FA2AF920C75C7AA75C75507
:1016810075910143B18075C7AA75C755E4F591A25B
:101691000C92AF43E90143E98043EA8053EB7F4376
:0B16A1009B02D2AF43870253E9FE22F8
:0F178B00E556D3940040021556301102D21222B7
:1007E100E4F55853B3FB43B404D292C211C212F5DB
:0E07F10057F55653B1EF43B210C284C2132223
:10151400539BFDE4F55853DEFEA2AF920CC2AF75A7
:10152400C7AA75C755439101A20C92AFF5D2F5DA5B
:10153400A2AF920CC2AF75C7AA75C7555391FEA24C
:101544000C92AFD2DEC2DCD292C211C212F556F5B1
:0E15540057C28453B3FB43B404D292C2132295
:100C4800E5586002A107A2AF920C75C7AA75C755EF
:100C580075910143B41075C7AA75C755F591A20CD3
:100C680092AF43B31053B4EF43E90143E94053EA69
:100C7800EF43EB10439B0253B3FB53B4FB43DE013A
:100C880053DF3F538EBF75D10375D9E7A2AF920CDE
:100C9800C2AF75C7AA75C755439101A20C92AF752B
:100CA800D20175DAF3A2AF920CC2AF75C7AA75C7A5
:100CB800555391FEA20C92AFD2DEA2AF920CC2AFF6
:100CC80075C7AA75C755439101A20C92AF75D20199
:100CD80075DA80A2AF920CC2AF75C7AA75C7555313
:100CE80091FEA20C92AFD2DED2DF75580175540185
:100CF800755580F553C213D211F557D284A1ACE5CE
:100D0800586401705A75580243DE0153DF3F538E11
:100D1800BF75D10375D9E7A2AF920CC2AF75C7AA48
:100D280075C755439101A20C92AF75D20175DAF3DC
:100D3800A2AF920CC2AF75C7AA75C7555391FEA250
:100D48000C92AFD2DEA2AF920CC2AF75C7AA75C71C
:100D580055439101A20C92AFF5D275DAF08022E5E5
:100D68005864027037755804A2AF920CC2AF75C7A9
:100D7800AA75C755439101A20C92AF75D20175DAD5
:100D880080A2AF920CC2AF75C7AA75C7555391FE22
:100D9800A20C92AFD2DED2DFC2138008E558B404A9
:090DA80003121514AF587E00225D
:03003800AF58229C
:101710003013037F0022AFD2EFFEADDAEDFFD3EF3F
:101720009420EE940140037F0122D3EF9480EE9445
:081730000040037F02227F0349
:01173800228E
:1006F50030113E0557E557C3943C40350556201249
:100705000AE557D3946440297F012230122312173A
:10071500107E00EF640170047C0A800CEF64024EC9
:1007250070047C0880027C05E556C39C40037F016C
:1007350022E55864016002E1DE301302E1DE055373
:10074500E553C394145002E1DEE4F55374FA2555DC
:10075500F55574FF3554F554C3E555940AE554949D
:1007650000404074FA2555F55574FF3554F554A2EB
:10077500AF920CC2AF75C7AA75C755439101A20CBC
:1007850092AFE554F5D2E555F5DAA2AF920CC2AFBA
:1007950075C7AA75C7555391FEA20C92AFD2DEC29A
:1007A500DC8036D21353DEFEA2AF920CC2AF75C702
:1007B500AA75C755439101A20C92AFE4F5D2F5DABB
:1007C500A2AF920CC2AF75C7AA75C7555391FEA2C9
:0B07D5000C92AFD2DEC2DCC2927F00AB
:0107E00022F6
:0300000002117C6E
:10117C0075C7AA75C75575FD5A75C7AA75C7557534
:10118C00FDA5787FE4F6D8FD9000007FFF7E03E498
:0C119C00F0A3DFFCDEFA7581630211E3B2
:1011A80002039AE493A3F8E493A34003F68001F2C0
:1011B80008DFF48029E493A3F85407240CC8C33348
:1011C800C4540F4420C8834004F456800146F6DF17
:1011D800E4800B01020408102040809017B5E47EDB
:1011E800019360BCA3FF543F30E509541FFEE4930C
:1011F800A360010ECF54C025E060A840B8E493A3D3
:10120800FAE493A3F8E493A3C8C582C8CAC583CAFD
:10121800F0A3C8C582C8CAC583CADFE9DEE780BEB5
:0117BC00002C
:100A9000BB0110E58229F582E5833AF583E0F5F0A4
:100AA000A3E0225009E92582F886F008E622BBFE81
:100AB0000AE92582F8E2F5F008E222E5832AF583C7
:080AC000E993F5F0A3E993228C
:100AC80075F008758200EF2FFFEE33FECD33CDCCE5
:100AD80033CCC58233C5829BED9AEC99E582984068
:100AE8000CF582EE9BFEED9AFDEC99FC0FD5F0D645
:100AF800E4CEFBE4CDFAE4CCF9A88222B800C1B96F
:100B08000059BA002DEC8BF084CFCECDFCE5F0CBAC
:100B1800F97818EF2FFFEE33FEED33FDEC33FCEBE5
:100B280033FB10D703994004EB99FB0FD8E5E4F9A0
:100B3800FA227818EF2FFFEE33FEED33FDEC33FC8D
:100B4800C933C910D7059BE99A4007EC9BFCE99A81
:100B5800F90FD8E0E4C9FAE4CCFB2275F010EF2FC6
:100B6800FFEE33FEED33FDCC33CCC833C810D707C6
:100B78009BEC9AE899400AED9BFDEC9AFCE899F801
:0E0B88000FD5F0DAE4CDFBE4CCFAE4C8F92294
:100B9600EB9FF5F0EA9E42F0E99D42F0E89C45F0B5
:010BA600222C
:100BA700E8600FECC313FCED13FDEE13FEEF13FF2C
:030BB700D8F12250
:10003E00E51B240FF8E6051B22780C300702780F1B
:10004E00E475F001120C12020BBA2000EB7F2ED2D7
:10005E00008018EF540F2490D43440D4FF30040B9A
:10006E00EF24BFB41A0050032461FFE51C60021593
:10007E001C051FE51F7002051E30070D780CE47578
:10008E00F001120C12EF020C000217AD7403D2072E
:10009E008003E4C207F51B8B0C8A0D890EE4F51C58
:1000AE00F51EF51FE51C60077F2012007980F5759F
:1000BE001DFFC201C200C202C203C205C206C208AF
:1000CE00120047FF700D3007057F0012008AAF1F28
:1000DE00AE1E22B4255FC2D5C204120047FF24D043
:1000EE00B40A00501A75F00A781C30D50508B6FF10
:1000FE000106C6A426F620D5047002D20380D924A8
:10010E00CFB41A00EF5004C2E5D20402028AD20123
:10011E0080C6D20080C0D20280BCD2D580BAD205B1
:10012E0080B47F201200792002077401B51C0040B4
:10013E00F112003EFF1200790200B2D208D2068000
:10014E009512003EFB12003EFA12003EF94A4B7029
:10015E0006795B7A037BFF20022EE51C602A7E0067
:10016E008E82758300120BD360060EEE651D70F045
:10017E00C2D5EBC0E0EAC0E0E9C0E0EE1202D1D099
:10018E00E0F9D0E0FAD0E0FB120BBAFF60AAEBC0A8
:10019E00E0EAC0E0E9C0E0120079D0E02401F9D035
:1001AE00E03400FAD0E0FBE51D0460DCD51DD980FB
:1001BE00877BFF7A0279CDD202809C7910800279FA
:1001CE0008C206C2088008D2D5790A8004790AC20C
:1001DE00D5E51D047002F51DE4FAFDFEFF12003E8A
:1001EE00FC7B0820011312003EFD7B1030000A122A
:1001FE00003EFE12003EFF7B20EC3382D592D5509E
:10020E0013C3E43000069FFFE49EFEE42001039D2D
:10021E00FDE49CFCE4CBF8C201EC700CCFCECDCC4F
:10022E00E824F8F870F38017C3EF33FFEE33FEEDDA
:10023E0033FDEC33FCEB33FB994002FB0FD8E9EBBB
:10024E00300105F8D0E0C448B201C0E00AEC4D4ED2
:10025E004F78207B0070C2EAB51D0040BCC0E01292
:10026E0002D3D0F0D0E0200104C4C0E0C4B201C07B
:10027E00F0120062D0F0D5F0EB0200B2120C2201A7
:10028E004F5301C95801204C011C4201CD4F01D5DD
:0F029E004401D54901354301DB5501BF4601BF7E
:1002AD004501BF47037B5001242D01282E014B2B07
:1002BD00012C2301492003642A00E4480000014376
:1002CD003F3F3F00790AA2D5200314300509B9102C
:1002DD00020404B9080104A2D5200602500104202D
:1002ED0002689202B51C005034C0E07F2030031923
:1002FD007F30A20272067205500F12032AC202C28B
:10030D0006C205C2087F30800F300503E9C0E01238
:10031D000079300503D0E0F9D0E0B51CCC300517DD
:10032D007F30B9100C1200797F583004077F788028
:10033D0003B908031200793002057F2D0200797F81
:10034D00202008F87F2B2006F322920280CF286E02
:10035D00756C6C2900D20112003E3001F8C2017893
:10036D001C30D50108F60200E42D50434958120007
:10037D003E2403B405004001E49003769312006A15
:0D038D00743A12006AD203751C040201C903
:100BBA00BB010689828A83E0225002E722BBFE0239
:090BCA00E32289828A83E493226C
:100BD300BB010CE58229F582E5833AF583E02250D7
:100BE30006E92582F8E622BBFE06E92582F8E22221
:0D0BF300E58229F582E5833AF583E493223B
:100C0000BB010689828A83F0225002F722BBFE01D3
:020C1000F322CD
:100C1200FAE6FB0808E6F925F0F618E6CA3AF622E3
:100C2200D083D082F8E4937012740193700DA3A361
:100C320093F8740193F5828883E473740293686075
:060C4200EFA3A3A380DF75
:00000001FF
