:03000B00020016DA
:10001600C0E0758CE5758AF57535010539E53970E9
:1000260002053805240519E519700205183008027D
:050036000511D0E032CD
:100905007589FF5389F0438901538EF7758CE57519
:090915008AF5D2A9D2AFD28C22DE
:1008A000E4FFFEFDED25E02425F8E6FA08E62FFF3B
:1008B000EA3EFE0DBD08EDEF7803CEC313CE13D88C
:0208C000F9FF3E
:0108C2002213
:10087900E536B404047F0F801DE536B403047F0711
:100889008014E536B402047F03800BE536B4010415
:060899007F018002E4FF74
:01089F002236
:1003B600E524D394005002818EE4F524C2EFD2EEF8
:1003C60030EFFDAFC37515008F16E516C4F8540F50
:1003D600C868F516E515C454F048F515E5C2540F7E
:1003E6004216E53B25E02425F8A61508A616053B8A
:1003F600E53BC394085002818EE4F53B1208A08EBB
:10040600158F161207F9BF01047420800CBF020471
:1004160074108005BF040B74082516F516E435150F
:10042600F51530020C74D02516F51674FF3515F542
:1004360015D3E51694A0E515940C400575170480B0
:100446003AD3E5169440E515940C400575170380DC
:100456002AD3E51694D0E515940B4005751702804E
:100466001AD3E5169460E515940B400575170180BF
:100476000AC3E515940A5003E4F517851736053CBB
:0A0486001208798F3A7F01227F00EF
:010490002249
:10069500120800120905E4F524F53B1208C31208F7
:1006A500E5752301D205E4F537C201F522F53AC215
:1006B50002F53C53E8F043E80243B18053B27FF5BD
:1006C500F643F60443E101200412C3E539943CE501
:1006D50038940050051203B680F0D204E4F538F5DD
:0806E50039F518F519F524227E
:10003E00E4F5B1F5B2F5B3F5B4F5ACF5ADD200C259
:10004E0004300005120695C200E53560F4E5226025
:10005E000215221205F58F13E52364017048300551
:10006E0016C205FDFF120949E4FDFF120003E4F577
:10007E0037F538F539C202E51330E008753701D28D
:10008E00017522C8E51330E105752302D205E5138B
:10009E0020E20221C2E523B4020575230880037510
:1000AE002304D20521C2E5236402705830050DC227
:1000BE0005753702D201F538F539C202E51330E085
:1000CE000A1202758F14E4FD120003E51320E10EEF
:1000DE00752301D20512073DE4FDFF120003E5135F
:1000EE0030E218E523B40105752304800375230857
:1000FE0012073DE4FDFF120003D205E51320E302D3
:10010E0021C221B9E52364047040300516C205757D
:10011E003703D201F538F539D20212073DE4FDFF5F
:10012E00120003E51330E105752308D205E51330FF
:10013E00E207E4F538F539807BE523B4080575232D
:10014E00028003752301D205806AE523640870647A
:10015E0030050DC205D201753703F538F539D202D7
:10016E00E51330E00A1202758F14E4FD120003E568
:10017E001320E10E752304D20512073DE4FDFF1294
:10018E000003E51330E207E4F538F5398018E5236E
:10019E00B404057523018003752302D20512073DB1
:1001AE00E4FDFF120003E51330E30912073DE4FD01
:1001BE00FF1200031203B6E5376025300111E53A50
:1001CE00600DE53714F514FDAF3A120949C201E589
:1001DE0022700DE537B40108E4F537FDFF12094929
:1001EE00120491EF600912073DE4FDFF12000312A5
:1001FE0007F9EF6005E4F538F539AF3A1206EDC3AD
:10020E00E53994D0E53894075002014FE4F538F5FE
:10021E0039F5B1F5B2F5B3F5B4F5ACF5AD53E1FE84
:10022E0012073DE4FDFF120949E4FDFF120003121F
:10023E0007CA43B38053B47FA2AF920375C7AA75A2
:10024E00C75575910143B38075C7AA75C755E4F5B7
:10025E0091A20392AFD2AA438702F5E9C2A8C2AA1D
:07026E00539BFDD200014F7C
:030013000207FCE5
:0107FC0032CA
:03003B0002078732
:10078700C0E0C0F0C083C082C0D075D000C000C038
:1007970001C002C003C004C005C006C007E5ECB431
:1007A70010031207F575EC00D007D006D005D0046A
:1007B700D003D002D001D000D0D0D082D083D0F0E7
:0307C700D0E0324D
:04000E0002180000D4
:1008000053B3F743B40853B1FE43B20153B1FD43B0
:10081000B20253B1F743B208C293C280C281C2830D
:1008200053B3FE43B40153B3FD43B40253B3DF43A8
:0E083000B420C290C291C295E4F51AC206220D
:1007CA0043B30843B40843B10143B20143B10243FE
:1007DA00B20243B10843B20843B30143B40143B37D
:0B07EA000243B40243B32043B42022BA
:10091E00EF139293EFC313FF139280EFC313FF13E2
:09092E009281EFC313139283229E
:0D0949008D1A12091EE4F518F519C20722D7
:10093700EF139290EFC313FF139295EFC313139224
:020947009122FB
:08000300ED24FF92060209370B
:1006ED00E51A6401701CE51964587004E51864027C
:1006FD00703DF518F51920072CD207F5187519015D
:10070D008020E51A64027027E51964C84518701F2A
:10071D00F518F51920070ED207F518751901EF25F3
:10072D00E004FF8007C207E4F518F51912091E222F
:1008C300E4F50DF50CF50AF50BC20AF509F5084335
:1008D300B38053B47F43AC0153ADFE43B12053B255
:0208E300DF2212
:1005F500E4FFE5357002C194E4F535200A07A297BA
:1006050033F50D800D309707C20AE4F50AF50B8521
:100615000C0DE50D650C6017850D0CD3E50B940AE3
:10062500E50A940040027F01E4F50AF50B8032E506
:100635000D702E050BE50B7002050AC394F4E50A4F
:1006450094014008750A01750BF48015C3E50B94F8
:1006550090E50A9401400A750A01750BF47F08D2EA
:100665000A30B005E4F509800F0509E509D39414AE
:100675004006750914430702308505E4F508800F27
:0F0685000508E508D394144006750814430704CC
:010694002243
:10083E0043B38053B47FA2AF920375C7AA75C75551
:10084E0075910143B18075C7AA75C755E4F591A29C
:10085E000392AF43E90143E98043EA8053EB7F43C0
:0B086E009B02D2AF43870253E9FE2239
:0407F500E4F51122F4
:1008E500E4F51253B3FB43B404D292C208F5115395
:1008F500B1BF43B240C28653B1EF43B210C28422A6
:10073D00539BFDE4F51253DEFEA2AF9203C2AF75DB
:10074D00C7AA75C755439101A20392AFF5D2F5DA49
:10075D00A2AF9203C2AF75C7AA75C7555391FEA23A
:10076D000392AFD2DEC2DCC292C208F511C284C2BE
:0A077D008653B3FB43B404C292227A
:10027500E5126002610ED286D20875E905F5EA75C8
:10028500EB10439B02751201D28453B3FB53B4FBAD
:1002950043DE0153DF3F538EBF75D10375D9E7A206
:1002A500AF9203C2AF75C7AA75C755439101A203A3
:1002B50092AF75D20175DAF3A2AF9203C2AF75C7DB
:1002C500AA75C7555391FEA20392AFD2DEA2AF9293
:1002D50003C2AF75C7AA75C755439101A20392AF73
:1002E50075D20175DA80A2AF9203C2AF75C7AA7540
:1002F500C7555391FEA20392AFD2DED2DF750F012F
:10030500751080F50EC20961B1E5126401705A7568
:10031500120243DE0153DF3F538EBF75D10375D9FA
:10032500E7A2AF9203C2AF75C7AA75C7554391013E
:10033500A20392AF75D20175DAF3A2AF9203C2AFF1
:1003450075C7AA75C7555391FEA20392AFD2DEA217
:10035500AF9203C2AF75C7AA75C755439101A203F2
:1003650092AFF5D275DAF08022E512640270357528
:100375001204A2AF9203C2AF75C7AA75C7554391C0
:1003850001A20392AF75D20175DA80A2AF9203C2C2
:10039500AF75C7AA75C7555391FEA20392AFD2DEBA
:1003A500D2DF8008E512B4040312073DAF127E00C8
:0103B5002225
:0307F900AF12221A
:1004910030080AE511D3940A40037F0122E5126472
:1004A100016002A146300902A146050EE50EC39482
:1004B100145002A146E4F50E74FA2510F51074FFEC
:1004C100350FF50FC3E510940AE50F940040407411
:1004D100FA2510F51074FF350FF50FA2AF9203C284
:1004E100AF75C7AA75C755439101A20392AFE50F36
:1004F100F5D2E510F5DAA2AF9203C2AF75C7AA75BE
:10050100C7555391FEA20392AFD2DEC2DC8036D230
:100511000953DEFEA2AF9203C2AF75C7AA75C755D4
:10052100439101A20392AFE4F5D2F5DAA2AF9203AF
:10053100C2AF75C7AA75C7555391FEA20392AFD238
:08054100DEC2DCC2927F002241
:03000000020549AD
:1005490075C7AA75C75575FD5A75C7AA75C7557573
:10055900FDA5787FE4F6D8FD9000007FFF7E03E4D7
:0C056900F0A3DFFCDEFA75813C0205B057
:1005750002003EE493A3F8E493A34003F68001F25E
:1005850008DFF48029E493A3F85407240CC8C33387
:10059500C4540F4420C8834004F456800146F6DF56
:1005A500E4800B010204081020408090000EE47ED8
:1005B500019360BCA3FF543F30E509541FFEE4934B
:1005C500A360010ECF54C025E060A840B8E493A312
:1005D500FAE493A3F8E493A3C8C582C8CAC583CA3D
:1005E500F0A3C8C582C8CAC583CADFE9DEE780BEF5
:0100120000ED
:00000001FF
