:101714000A2061646376616C756574656D703D3033
:10172400782578000A2061646376616C75653D30C4
:10173400782578000A206261743D25302E346600D5
:0A185E0002250000013D00014600D4
:1018000075C7AA75C755A2AF920BC2AF75C7AA75A7
:0A181000C755439F80A20B92AF2240
:10150A008F4D8E4C8D4B8C4A53B1FB53B2FB53B368
:10151A00BF53B4BF75F85075C40853C4DFAB4DAAA6
:10152A004CA94BA84A7F407E427D0F7C0012059A47
:10153A00C374FF9FFF74FF9EFEE49DFDE49CFC784C
:10154A000812063A8FC6AB4DAA4CA94BA84A7F404F
:10155A007E427D0F7C0012059AC374FF9FFF8FC5E0
:04156A0043C408224C
:0700030030F8FDAF9AC2F8CE
:01000A0022D3
:08188700C2F98F9A30F9FD222D
:08188F0030F9FDC2F98F9A2225
:03000B000217DDFC
:1017DD00C0E0758CE5758AF57539010543E54370F3
:1017ED0002054205280515E51570020514D0E032F5
:10181A007589FF5389F0438901538EF7758CE575F5
:09182A008AF5D2A9D2AFD28C22BA
:10179800E4FFFEFDED25E02429F8E6FA08E62FFF30
:1017A800EA3EFE0DBD08EDEF7803CEC313CE13D885
:0217B800F9FF37
:0117BA00220C
:100AF200E528D39F5002A16AE4F528759504C2EF58
:100B0200D2EE30EFFDE4F595AFC3F54D8F4EE54ED5
:100B1200C4F8540FC868F54EE54DC454F048F54D7D
:100B2200E5C2540F424EE54525E02429F8A64D08BA
:100B3200A64E0545E545C394085002A16AE4F54571
:100B42001217988E4D8F4E7BFF7A177914854D526E
:100B5200854E531206E51217FD8F4B300A5FE54BA7
:100B6200605BB4012612176F8F4CE54CB40104741C
:100B720020800BE54CB40204743880027460254E68
:100B8200F54EE4354DF54D7480802AE54BB4020FE5
:100B92007438254EF54EE4354DF54D74708016E5EA
:100BA2004BB4040F7420254EF54EE4354DF54D74CB
:100BB2006080027450254EF54E74FF8049200A4C25
:100BC200E54B6048B4012512176F8F4CE54CB40118
:100BD200097428254EF54EE4802CE54CB4020474C9
:100BE2004880027470254EF54EE4801AE54BB4023B
:100BF200097448254EF54EE4800CE54BB40431747B
:100C020028254EF54EE4354DF54D8024300A21E578
:100C12004B701D7450254EF54E74FF354DF54DD376
:100C2200E54E9440E54D940D4006754D0D754E40D0
:100C3200200C37C3E54E9440E54D940D400EE54E31
:100C420024C0F53BE54D34FFF53A800BE4254EF523
:100C52003BE54D3401F53AD3E53B9420E53A940D5A
:100C62004047753A0D753B20803FE53B453A70069B
:100C7200854D3A854E3BE53B2408FFE4353AFED3E9
:100C8200E54E9FE54D9E4016053DE53DD39405405A
:100C920018E4F53D053BE53B700F053A800BE4F5A2
:100CA2003DE53B153B7002153A7BFF7A17792885A3
:100CB2003A52853B531206E5AC3AAD3BE41201E9E8
:100CC2007B8F7AC27955784012003EE4FBFA798034
:100CD2007845120147E4FBFA7940784012003E8FD2
:100CE200418E408D3F8C3E7BFF7A1779388F558E2F
:100CF200548D538C521206E5D3E53B94D0E53A94D9
:100D02000C4005754A068043D3E53B94A0E53A942E
:100D12000C4005754A058033D3E53B9440E53A948F
:100D22000C4005754A048023D3E53B94E0E53A94F0
:100D32000B4005754A038013D3E53B94A0E53A9432
:100D42000B4005754A028003754A01E53C654A601D
:100D52000405478003E4F547E547D394054006E4DC
:0A0D6200F547854A3C7F01227F001F
:010D6C002264
:100FE90043B12053B2DF75EA20E4F5EB75E94043DC
:050FF9009B02D2AF22B3
:10156E00E4F542F543F5B1F5B2F5B3F5B4F5ACF5E6
:10157E00AD53E1FE1215C9E4FF12187CE4FF120010
:10158E000E121744120FE943B38053B47FA2AF92E9
:10159E000B75C7AA75C75575910143B38075C7AA58
:1015AE0075C755E4F591A20B92AFD2AA438702F507
:0B15BE00E9C2A8C2AA539BFDD209227B
:100F6E007F007EC27D017C0012150AD2F91216DBBB
:100F7E0012181AE4F528F5451217BB12001675273C
:100F8E0001D20DE4F523F524F544C20AF547F53AEE
:100F9E00F53B53E8F043E80243B18053B27FF5F6D8
:100FAE0043F60443E101200C23F542F543C3E54328
:100FBE0094C8E5429400500C208502D20AE4FF1238
:100FCE000AF280E9D20C7525077526D0E4F542F5B4
:0B0FDE0043F514F515F5287546322286
:100D6D00E4F5B1F5B2F5B3F5B4F5ACF5ADD209C214
:100D7D000C300905120F6EC209E53960F4E5244502
:100D8D00236008E52415247002152312146A8F4878
:100D9D00E52764017046300D1BC20D1215C9E4FF25
:100DAD00121617E4FF12000EE4F542F543C20AF5E0
:100DBD0045754690E54830E00B752302752458AF14
:100DCD0027121617E54830E105752702D20DE548C3
:100DDD0020E202E120752704D20DE120E52764020F
:100DED00706A300D28C20DF542F543C20A1217FD87
:100DFD008F4912000EE5497003FF8002AF271216CE
:100E0D0017751402751558E4F545754690E548308B
:100E1D00E0101210008F4912000EAF27121617E4C2
:100E2D00F545E54820E112752701D20D1215C9E4EB
:100E3D00FF12000EE4FF121617E54830E205752784
:100E4D0008D20DE54820E302E120E112E527640414
:100E5D007048300D21C20DF542F543D20A1215C965
:100E6D00E4FF12000EAF27121617751402751558F0
:100E7D00E4F545754690E54830E105752708D20D36
:100E8D00E54830E207E4F542F543E120752701C25C
:100E9D000AE4FF121617D20D8079E52764087073E6
:100EAD00300D1BC20DF542F543D20A1217FD8F49C5
:100EBD0012000EAF27121617E4F545754690E5485A
:100ECD0030E00B1210008F4912000EE4F545E54895
:100EDD0020E10D752704D20D1215C9E4FF12000E85
:100EED00E54830E207E4F542F5438014752702C268
:100EFD000A1217FD8F4912000EAF27121617D20DC9
:100F0D00E54830E30E1215C9E4FF12000EE4F54575
:100F1D00754690E546D394004004154680057F053F
:100F2D00120AF2121169EF60101215C9E4FF1200D6
:100F3D000ED20DE4F5457546901217FDEF6005E4F0
:100F4D00F542F543AF271213C8C3E5439526E54295
:100F5D0095255002A17E7525077526D012156EA117
:010F6D007E05
:03001300020011D7
:0100110032BC
:03003B0002165D4D
:10165D00C0E0C0F0C083C082C0D075D000C000C053
:10166D0001C002C003C004C005C006C007E5ECB44C
:10167D00100312186D75EC00D007D006D005D004FC
:10168D00D003D002D001D000D0D0D082D083D0F002
:03169D00D0E03268
:041868000214000066
:1016DB0053B3F743B40853B1FE43B20153B1FD43C7
:1016EB00B20253B1F743B208C293C280C281C28324
:1016FB0053B3FE43B40153B3FD43B40253B3DF43BF
:09170B00B420C290C291C29522E3
:1017440043B30843B40843B10143B20143B1024374
:10175400B20243B10843B20843B30143B40143B3F3
:0B1764000243B40243B32043B4202230
:10183300EF139293EFC313FF139280EFC313FF13BE
:091843009281EFC313139283227A
:0B187C00121833E4F514F515C2112218
:10184C00EF139290EFC313FF139295EFC313139200
:02185C009122D7
:03000E0002184C89
:09125500D211F514751501AF0466
:10125E00EF6401702AE53CC3940540047E0F6119CA
:10126E00E53CB404047E076119E53CB403047E0337
:10127E006119E53CB402047E016119E4FE6119EFC7
:10128E0064047028E53CB406047E0F807EE53CB411
:10129E0005047E078075E53CB404047E03806CE58E
:1012AE003CB403047E018063E4FE805FEF64027051
:1012BE002FE53CC3940540047E0F804FE53CB404FB
:1012CE00047E078046E53CB403047E03803DE53C86
:1012DE00B402047E018034E53C6401702EFE802B46
:1012EE00EF64087026E53CB406047E0F801DE53CD5
:1012FE00B405047E078014E53CB404047E03800B21
:0D130E00E53CB403047E018002E4FEAF065E
:01131B0022AF
:02161700AC071E
:10161900E4F514F515EC7003FF8035BC0109AF043E
:1016290012125EAD078029BC0409AF0412125EAD27
:1016390007801DBC0212AF0412125EAD07ED7004E3
:101649007F01800CAF058008BC0808AF0412125E48
:0316590012187CE8
:01165C00226B
:0213C800AC0770
:1013CA00BC0113C3E5159458E514940250028169CF
:1013DA00E4FCFF02187CEC64047015C3E515946400
:1013EA00E51494004079E4F514F51520112B805189
:1013FA00EC64027034C3E5159432E5149400405F3E
:10140A00E4F514F515201111121255AD07ED70050A
:10141A00ED25E004FDAF058043C211E4F514F5158E
:10142A00AF0412125EAD078033EC64087031C3E575
:10143A00159464E51494004026E4F514F51520117A
:10144A000D121255AD07ED25E004FDFF800EC21105
:0F145A00E4F514F515AF0412125EAD0712183346
:011469002260
:1017BB00E4F50DF50CF50AF50BC212F509F5084326
:1017CB00B38053B47F43AC0153ADFE43B12053B24E
:0217DB00DF220B
:10146A00E4FFE5397002A109E4F539201207A297D1
:10147A0033F50D800D309707C212E4F50AF50B8596
:10148A000C0DE50D650C6017850D0CD3E50B940A60
:10149A00E50A940040027F01E4F50AF50B8032E583
:1014AA000D702E050BE50B7002050AC394F4E50ACC
:1014BA0094014008750A01750BF48015C3E50B9475
:1014CA0090E50A9401400A750A01750BF47F08D267
:1014DA001230B005E4F509800F0509E509D3941423
:1014EA004006750914430702308505E4F508800FA4
:0F14FA000508E508D39414400675081443070449
:0115090022BF
:1016A00043B38053B47FA2AF920B75C7AA75C755D9
:1016B00075910143B18075C7AA75C755E4F591A22C
:1016C0000B92AF43E90143E98043EA8053EB7F4348
:0B16D0009B02D2AF43870253E9FE22C9
:0F186D00E511D3940040021511300E02D20F2264
:10001600E4F51353B3FB43B404D292C20EC20FF5F8
:1000260012F51153B1BF43B240C28653B1EF43B28A
:0400360010C284224E
:1015C900539BFDE4F51353DEFEA2AF920BC2AF7538
:1015D900C7AA75C755439101A20B92AFF5D2F5DAA7
:1015E900A2AF920BC2AF75C7AA75C7555391FEA298
:1015F9000B92AFD2DEC2DCC292C20EC20FF511F558
:0E16090012C284C28653B3FB43B404C29222C1
:10100000E513600201C1D286A2AF920B75C7AA7523
:10101000C75575910143B41075C7AA75C755F591A9
:10102000A20B92AF43B31053B4EF43E90143E9403D
:1010300053EAEF43EB10439B0253B3FB53B4FB4320
:10104000DE0153DF3F538EBF75D10375D9E7A2AFE1
:10105000920BC2AF75C7AA75C755439101A20B92F7
:10106000AF75D20175DAF3A2AF920BC2AF75C7AA02
:1010700075C7555391FEA20B92AFD2DEA2AF920B71
:10108000C2AF75C7AA75C755439101A20B92AF7540
:10109000D20175DA80A2AF920BC2AF75C7AA75C72D
:1010A000555391FEA20B92AFD2DED2DF75130175BC
:1010B0000F01751080F50EC210D20EF512D28421E8
:1010C00064E5136401705A75130243DE0153DF3F78
:1010D000538EBF75D10375D9E7A2AF920BC2AF751E
:1010E000C7AA75C755439101A20B92AF75D201757E
:1010F000DAF3A2AF920BC2AF75C7AA75C755539169
:10110000FEA20B92AFD2DEA2AF920BC2AF75C7AAFE
:1011100075C755439101A20B92AFF5D275DAF080F5
:1011200022E51364027035751304A2AF920BC2AFAF
:1011300075C7AA75C755439101A20B92AF75D2012D
:1011400075DA80A2AF920BC2AF75C7AA75C75553A7
:1011500091FEA20B92AFD2DED2DF8008E513B40479
:09116000031215C9AF137E002231
:0317FD00AF132205
:10176F003010037F0022AFD2EFFEADDAEDFFD3EFE3
:10177F009420EE940140037F0122D3EF9480EE94E6
:08178F000040037F02227F03EA
:01179700222F
:10116900300E3E0512E512C3941440350511200FC7
:101179000AE512D3946440297F0122300F23121704
:101189006F7E00EF640170047C0A800CEF64024EEC
:1011990070047C0580027C03E511C39C40037F0138
:1011A90022E5136401600241523010024152050EDA
:1011B900E50EC3941450024152E4F50E74FA251059
:1011C900F51074FF350FF50FC3E510940AE50F9478
:1011D90000404074FA2510F51074FF350FF50FA281
:1011E900AF920BC2AF75C7AA75C755439101A20B40
:1011F90092AFE50FF5D2E510F5DAA2AF920BC2AFC7
:1012090075C7AA75C7555391FEA20B92AFD2DEC21C
:10121900DC8036D21053DEFEA2AF920BC2AF75C787
:10122900AA75C755439101A20B92AFE4F5D2F5DA3D
:10123900A2AF920BC2AF75C7AA75C7555391FEA24B
:0B1249000B92AFD2DEC2DCC2927F002D
:011254002277
:0300000002131CCC
:10131C0075C7AA75C75575FD5A75C7AA75C7557592
:10132C00FDA5787FE4F6D8FD9000007FFF7E03E4F6
:0C133C00F0A3DFFCDEFA75816A02138367
:10003E00EC4D6011E8497017ED33EC3304600DE4BC
:10004E00FCFFFEFD22E933E8330470F8020257127A
:10005E00022258046009E4CC24815006285009027B
:10006E00026128400302025EC0E0EB4A7044B98090
:10007E0006D0E0FB02024DEF4E701CBD8008EBFF78
:10008E00EAFEE9FD80EBE98DF0A4FEE5F002012722
:10009E00E9CDF9EAFEEBFFEF89F0A4FCE5F0CE899D
:1000AE00F0A42EFFE435F0CD89F0A42DFEE435F05A
:1000BE008067EF4E7005BD80D780C3EF8BF0A4AC88
:1000CE00F0EE8BF0A42CFCE435F0F8EF8AF0A42CC3
:1000DE00E5F038FCE433CB8DF0A42CFCE5F03BF8D6
:1000EE00EE8AF0A42CFCE5F038F8E433CF89F0A4C6
:1000FE002CFCE5F038CF3400CE89F0A42FFFE5F0CC
:10010E003EFEE433C98DF0A42EFEE5F039CD8AF023
:10011E00A42FFFE5F03EFEE43DFD33D0E0FB50079B
:10012E000BBB000F020261EC2CFCEF33FFEE33FE33
:06013E00ED33FD02023961
:10014400020261EC5D046005E85904700302025781
:10015400120222580460F6EC4860F2EC7004FDFED2
:10016400FF22C860DB2481C85009C398600250068E
:1001740002025E9850CAF582E9294B4A7005AB82A7
:1001840002024D75F0007C1A7880C3EF9BEE9AED65
:1001940099400DC3EF9BFFEE9AFEED99FDE842F006
:1001A400DC23ACF0D0E0FFD0E0FED0E0FDAB822059
:1001B400E7101BEB60BAEC2CFCEF33FFEE33FEEDE3
:1001C40033FD020239E803F830E705C0F075F000AA
:1001D400EF2FFFEE33FEED33FD40B830E7C280AAC7
:1001E40075F020800E75F010800575F0087D007E96
:1001F400007F003392D530D50312062CEC33401027
:10020400EF33FFEE33FEED33FDEC33FCD5F0ED229E
:0E021400E5F0247EA2D513CC92E7CDCEFF22DA
:10068300E5662452F8E6056622784F300702785271
:10069300E475F00112064D0205062000EB7F2ED211
:1006A300008018EF540F2490D43440D4FF30040B4F
:1006B300EF24BFB41A0050032461FFE567600215FD
:1006C30067056AE56A7002056930070D784FE475BE
:1006D300F00112064DEF02054C02188F7403D20786
:1006E3008003E4C207F5668B4F8A508951E4F567AE
:1006F300F569F56AE56760077F201206BE80F57528
:1007030068FFC201C200C202C203C205C206C20818
:1007130012068CFF700D3007057F001206CFAF6AFB
:10072300AE6922B4255FC2D5C20412068CFF24D061
:10073300B40A00501A75F00A786730D50508B6FF79
:100743000106C6A426F620D5047002D20380D9245C
:10075300CFB41A00EF5004C2E5D2040209BCD2019F
:1007630080C6D20080C0D20280BCD2D580BAD20566
:1007730080B47F201206BE2002077401B5670040D3
:10078300F1120683FF1206BE0206F7D208D20680D4
:1007930095120683FB120683FA120683F94A4B70FD
:1007A3000679B37A0A7BFF20022EE567602A7E0072
:1007B3008E8275830012051F60060EEE656870F069
:1007C300C2D5EBC0E0EAC0E0E9C0E0EE120A1CD0FB
:1007D300E0F9D0E0FAD0E0FB120506FF60AAEBC017
:1007E300E0EAC0E0E9C0E01206BED0E02401F9D09F
:1007F300E03400FAD0E0FBE5680460DCD568D9801A
:1008030087D20280A21209FF60F7E5687001041223
:10081300026CA968600DE568600914F568120AA600
:10082300EF60F3EA30E702F404C3995077EAF42562
:10083300680430E701E404F568800D1209FF60C124
:10084300EA0568256812026CEA7865F630E701E488
:10085300256804D5680420050114120A1CE4C0E0CD
:10086300120AA67865E6601320E70714F61206A6B7
:10087300802204F6D0E014C0E07F001206A6E568EB
:10088300600712069D1568800B30050312069DD084
:10089300E00206F7D0E00480C51209FF60A0E56816
:1008A3000412026C7865EAF6E5682005026001042B
:0508B3002404120A1CE0
:1008B80074FF04C0E0120AA61206A6E56820050225
:1008C800600312069DD0E0B568E87F451206B0784F
:1008D80065E67F2B30E7047F2DF404C0E01206BEE6
:1008E800D0E075F00A84C0F01206A7D0E01206A77F
:1008F8000206F7791080027908C206C2088008D279
:10090800D5790A8004790AC2D5E568047002F568C9
:10091800E4FAFDFEFF120683FC7B08200113120691
:1009280083FD7B1030000A120683FE120683FF7BCC
:1009380020EC3382D592D55013C3E43000069FFFD4
:10094800E49EFEE42001039DFDE49CFCE4CBF8C298
:1009580001EC700CCFCECDCCE824F8F870F38017FA
:10096800C3EF33FFEE33FEED33FDEC33FCEB33FB2B
:10097800994002FB0FD8E9EB300105F8D0E0C448F4
:10098800B201C0E00AEC4D4E4F78207B0070C2EAFD
:10099800B5680040BCC0E0120A1ED0F0D0E02001CB
:1009A80004C4C0E0C4B201C0F01206A7D0F0D5F06C
:1009B800EB0206F712065D07945308FB5807654CCF
:1009C80007614208FF4F090744090749077A4309A5
:1009D8000D55083E46089C450808470AD350076944
:1009E8002D076D2E07902B077123078E200ABC2A2E
:1009F80007294800000788E568B4FF0375680612F0
:100A08000683FC120683FD120683FE120683FF7816
:100A18005E02029B790AA2D5200314300509B91099
:100A2800020404B9080104A2D520060250010420DA
:100A380002689202B567005034C0E07F2030031985
:100A48007F30A20272067205500F120A75C202C2E6
:100A580006C205C2087F30800F300503E9C0E012E6
:100A680006BE300503D0E0F9D0E0B567CC300517F5
:100A78007F30B9100C1206BE7F583004077F78808B
:100A880003B908031206BE3002057F2D0206BE7F99
:100A9800202008F87F2B2006F322920280CF7F00C7
:100AA800B407005005245EF8E6FF22286E756C6CCA
:100AB8002900D2011206833001F8C201786730D5C7
:100AC8000108F60207292D504349581206832403CA
:100AD800B405004001E4900ACE931206AF743A12AE
:0A0AE80006AFD2037567040208FB95
:10022200E9D2E7C933E833F892D5EDD2E7CD33EC22
:0702320033FC5002B2D5229B
:10023900EC30E7100FBF000C0EBE00080DBD000426
:100249000BEB6014A2D5EB13FCED92E7FD2274FFD2
:10025900FCFDFEFF22E480F8A2D574FF13FC7D802B
:03026900E480EF3F
:10026C00F920E72824F950037907E4F42402FB1859
:10027C00DBFDE624FB5014E9600DE4F618E604F609
:0F028C00B40A08E4F6D9F57401F60A22C2D522A5
:10029B00ED33EC3392D5FA602AB4FF33EDC2E77B32
:1002AB00FF60067A0279C0E4227A0279C920D5046C
:1002BB007A0279C4224E614E002B494E46002D49DD
:1002CB004E4600E47A08F608DAFC7B00740722E855
:1002DB00C0E0ECC0E0EDC0E0EEC0E0EFC0E0EA75DE
:1002EB00F010A4CAABF075F04DA42BFBE435F0FC79
:1002FB00EA2410FAEB34C5FBEC34D9FCEDC2E7FF72
:10030B0075F056A4F42411C5F0F434C58FF0A42A6B
:10031B00E5F03BE43CF620E7141204C6D0E0FFD036
:10032B00E0FED0E0FDD0E0FC1201478014F4041293
:10033B0004C6D0E0FFD0E0FED0E0FDD0E0FC120020
:10034B003ED0E0F8E6FAEDD2E7CD33EC332482FB76
:10035B00E4C3CF33CFCE33CECD33CD33DBF37B07FB
:10036B0075F00A846004F6081B0AE5F0F6088FF0B6
:10037B00740AA4FFACF08EF0740AA42CFEACF050FF
:10038B00010C8DF0740AA42CFDE435F0F608DBDECD
:03039B00740722C2
:10039E00020257E86480F8E933E83360110460F034
:1003AE00ED33EC337009E8FCE9FDEAFEEBFF2204C5
:1003BE0060DED3EB9FEA9EE99DE8C2E78CF0C2F7C0
:1003CE0095F0400CE8CCF8E9CDF9EACEFAEBCFFB8C
:1003DE0012022285D0F05804700320D5B3E80470C1
:1003EE00075002B2D502026192D5EC0460F7E4CC5C
:1003FE00C0E0C398F8603B94186008400DD0E0FB55
:10040E00020239E4FBFAC9FC8028E830E406E4C9AC
:10041E00FBE4CAFCE830E305E4C9CACBFCE85407A8
:10042E006010F8C3E913F9EA13FAEB13FBEC13FCB3
:10043E00D8F130F52FC3E49CFCEF9BFFEE9AFEED56
:10044E0099FDD0E0FBEF4E4D4C701222DB03020201
:10045E005EEC2CFCEF33FFEE33FEED33FDED30E7BB
:10046E00EB020239EF2BFFEE3AFEED39FDD0E0FB49
:10047E0050130BBB0003020261ED13FDEE13FEEFF2
:08048E0013FFEC13FC0202391C
:100496003F8000004120000042C80000447A00006E
:1004A600461C400047C35000497424004B189680F0
:1004B6004CBEBC205A0E1BCA6753C21C749DC5AEE7
:1004C600FB60065407601C23231204F4EB543860C7
:1004D600091204E01204EF12003EECF8EDF9EEFA10
:1004E600EFCB22EB1204EF80F1543803241C900466
:1004F60096FE93FC0EEE93FD0EEE930ECE93FF2228
:10134800020D6DE493A3F8E493A34003F68001F241
:1013580008DFF48029E493A3F85407240CC8C333A6
:10136800C4540F4420C8834004F456800146F6DF75
:10137800E4800B010204081020408090185EE47E8F
:10138800019360BCA3FF543F30E509541FFEE4936A
:10139800A360010ECF54C025E060A840B8E493A331
:1013A800FAE493A3F8E493A3C8C582C8CAC583CA5C
:1013B800F0A3C8C582C8CAC583CADFE9DEE780BE14
:01186C00007B
:10050600BB010689828A83E0225002E722BBFE02F3
:09051600E32289828A83E4932226
:10051F00BB010CE58229F582E5833AF583E0225091
:10052F0006E92582F8E622BBFE06E92582F8E222DB
:0D053F00E58229F582E5833AF583E49322F5
:10054C00BB010689828A83F0225002F722BBFE018E
:02055C00F32288
:10055E0075F008758200EF2FFFEE33FECD33CDCC54
:10056E0033CCC58233C5829BED9AEC99E5829840D7
:10057E000CF582EE9BFEED9AFDEC99FC0FD5F0D6B4
:10058E00E4CEFBE4CDFAE4CCF9A88222B800C1B9DE
:10059E000059BA002DEC8BF084CFCECDFCE5F0CB1C
:1005AE00F97818EF2FFFEE33FEED33FDEC33FCEB55
:1005BE0033FB10D703994004EB99FB0FD8E5E4F910
:1005CE00FA227818EF2FFFEE33FEED33FDEC33FCFD
:1005DE00C933C910D7059BE99A4007EC9BFCE99AF1
:1005EE00F90FD8E0E4C9FAE4CCFB2275F010EF2F36
:1005FE00FFEE33FEED33FDCC33CCC833C810D70736
:10060E009BEC9AE899400AED9BFDEC9AFCE899F870
:0E061E000FD5F0DAE4CDFBE4CCFAE4C8F92203
:0E062C00C3E49FFFE49EFEE49DFDE49CFC22DF
:10063A00E8600FECC313FCED13FDEE13FEEF13FF9E
:03064A00D8F122C2
:10064D00FAE6FB0808E6F925F0F618E6CA3AF622AE
:10065D00D083D082F8E4937012740193700DA3A32C
:10066D0093F8740193F5828883E473740293686040
:06067D00EFA3A3A380DF40
:00000001FF
