:03000B000206F6F4
:1006F600C0E0758CE5758AF5753C010541E54170EC
:10070600020540053E05230513E513700205123068
:0707160007020515D0E032D7
:10075B007589FF5389F0438901538EF7758CE575C5
:09076B008AF5D2A9D2AFD28C228A
:10001600E4FFFE7D04ED25E02424F8E6FA08E62F49
:10002600FFEA3EFE0DBD0CEDEF7803CEC313CE13F3
:03003600D8F9FFF7
:0100390022A4
:10073D00E53DB404047F0F8014E53DB403047F0749
:0D074D00800BE53DB402047F0380027F01B4
:01075A00227C
:10033300E523D39401500261FAE4F523C2EFD2EE30
:1003430030EFFDAFC37510008F11E511C4F8540FE2
:10035300C868F511E510C454F048F510E5C2540F10
:100363004211E54325E02424F8A61008A61105430D
:10037300E543C3940C500261FAE4F5431200168E70
:10038300108F111207C0BF04047420800CBF020435
:1003930074108005BF010B74082511F511E43510A5
:1003A300F51030020C74602511F51174FF3510F54A
:1003B30010D3E51194D0E510940C4005753D0480ED
:1003C3002ED3E5119470E510940C4005753D038020
:1003D3001ED3E5119400E510940C4005753D028091
:1003E3000EC3E5119480E510940B5003753D011283
:0903F300073D8F427F01227F00CB
:0103FC0022DE
:1006C00012064712075B53E8F043E80243B1805338
:1006D000B27FE4F5F643F60443E101F523F5431256
:1006E000071D1205C5752201D204E4F53FC201F5CC
:0606F00021F542C20222C6
:10003E00E4F5B1F5B2F5B3F5B4F5ACF5ADD20030EB
:10004E0000051206C0C200E53C60F4E52160021511
:10005E00211204A98F0EE52264017048300416C2E5
:10006E0004FDFF1207AFE4FDFF120003E4F53FF5B8
:10007E0040F541C202E50E30E008753F01D2017530
:10008E0021C8E50E30E105752202D204E50E20E20C
:10009E0002219FE522B40205752208800375220411
:1000AE00D204219FE5226402704C30040DC2047507
:1000BE003F02D201F540F541C202E50E30E00A12D0
:1000CE0002408F0FE4FD120003E50E20E1087522B9
:1000DE0001D204120607E50E30E212E522B4010544
:1000EE007522048003752208120607D204E50E203D
:1000FE00E302219F2196E5226404703730040DC27D
:10010E0004753F03D201F540F541D202E50E30E110
:10011E0005752208D204E50E30E207E4F540F541FC
:10012E00806FE522B408057522028003752201D284
:10013E0004805EE5226408705830040DC204D201BA
:10014E00753F03F540F541D202E50E30E00A12028A
:10015E00408F0FE4FD120003E50E20E10875220426
:10016E00D204120607E50E30E207E4F540F54180B1
:10017E0012E522B404057522018003752202D20411
:10018E00120607E50E30E309120607E4FDFF120022
:10019E0003120333E53F6025300111E542600DE5A2
:1001AE003F14F50FFDAF421207AFC201E521700DEE
:1001BE00E53FB40108E4F53FFDFF1207AF12079FBC
:1001CE00EF6009120607E4FDFF1200031207C0EFED
:1001DE006005E4F540F541AF42120532C3E54194A6
:1001EE00D0E54094075002014DE4F540F54112066A
:1001FE0007E4FDFF1207AFE4FDFF12000343B380D7
:10020E0053B47FA2AF920375C7AA75C755759101F6
:10021E0043B38075C7AA75C755E4F591A20392AF93
:10022E00D2AA438702F5E9C2A8C2AA539BFDD20007
:02023E00014D70
:0300130002003AAE
:01003A003293
:03003B0002058239
:10058200C0E0C0F0C083C082C0D075D000C000C03F
:1005920001C002C003C004C005C006C007E5ECB438
:1005A20010031207BC75EC00D007D006D005D004AA
:1005B200D003D002D001D000D0D0D082D083D0F0EE
:0305C200D0E03254
:04000E0002120000DA
:1006470053B3F743B40853B1FE43B20153B1FD436B
:10065700B20253B1F743B208C293C280C281C283C8
:1006670053B3FD43B40253B3DF43B42053B3FE4344
:0E067700B401C291C295C290E4F514C20522EE
:10077400EF139293EFC313FF139280EFC313FF138E
:090784009281EFC313139283224A
:0D07AF008D14120774E4F512F513C2062232
:10078D00EF139290EFC313FF139295EFC3131392D0
:02079D009122A7
:08000300ED24FF920502078DB8
:10053200E5146401701CE51364587004E51264024A
:10054200703DF512F51320062CD206F51275130133
:100552008020E51464027027E51364C84512701FF9
:10056200F512F51320060ED206F512751301EF25CA
:10057200E004FF8007C206E4F512F51312077422A5
:10071D00E4F50DF50CF50AF50BF509F50843B38075
:10072D0053B47F43AC0153ADFE43B12053B2DF222E
:1004A900E4FFE53C7002A131E4F53CA29733F50D78
:1004B900650C6016850D0CD3E50B940AE50A9400CA
:1004C90040010FE4F50AF50B8030E50D702C050BA2
:1004D900E50B7002050AC394F4E50A940140087516
:1004E9000A01750BF48013C3E50B9490E50A940196
:1004F9004008750A01750BF47F0830B005E4F50969
:10050900800F0509E509D3941440067509144307BA
:1005190002308505E4F508800F0508E508D3941431
:080529004006750814430704A5
:0105310022A7
:1006850043B38053B47FA2AF920375C7AA75C7550C
:1006950075910143B18075C7AA75C755E4F591A257
:1006A5000392AF43E90143E98043EA8053EB7F437B
:0B06B5009B02D2AF43870253E9FE22F4
:0407BC00E4F5152229
:1005C500E4F51643B30443B404A2AF920375C7AA76
:1005D50075C75575910143B20175C7AA75C755F51C
:1005E50091A20392AF43B30153B4FED292C207F571
:1005F5001553B1BF43B240D28653B1EF43B210C2D7
:0206050084224D
:10060700539BFDE4F51653DEFEA2AF9203C2AF750E
:10061700C7AA75C755439101A20392AFF5D2F5DA80
:10062700A2AF9203C2AF75C7AA75C7555391FEA271
:100637000392AFD2DEC2DCD292C207F515C2842282
:10024000E516706AD20775E905F5EA75EB10439B70
:1002500002751601D28443DE0153DF3F538EBF7512
:10026000D10375D9E7A2AF9203C2AF75C7AA75C70C
:1002700055439101A20392AF75D20175DAF3A2AF93
:100280009203C2AF75C7AA75C7555391FEA20392D8
:10029000AFD2DEA2AF9203C2AF75C7AA75C75543EE
:1002A0009101A20392AF75D20175DA808021E51623
:1002B00064017034751602A2AF9203C2AF75C7AA6B
:1002C00075C755439101A20392AFF5D275DAF0A23A
:1002D000AF9203C2AF75C7AA75C7555391FEA2036B
:1002E00092AFD2DED2DF8046E51664027038751612
:1002F0000453DEFEA2AF9203C2AF75C7AA75C755FD
:10030000439101A20392AFF5D2F5DAA2AF9203C2F4
:10031000AF75C7AA75C7555391FEA20392AFD2DE3F
:10032000C2DCC2928008E516B40403120607AF16B9
:030330007E00222A
:0307C000AF16224F
:10079F0030070AE515D3940540037F01227F00221D
:030000000203FDFB
:1003FD0075C7AA75C75575FD5A75C7AA75C75575C1
:10040D00FDA5787FE4F6D8FD9000007FFF7E03E424
:0C041D00F0A3DFFCDEFA758143020464EA
:1004290002003EE493A3F8E493A34003F68001F2AB
:1004390008DFF48029E493A3F85407240CC8C333D4
:10044900C4540F4420C8834004F456800146F6DFA3
:10045900E4800B010204081020408090000EE47E25
:10046900019360BCA3FF543F30E509541FFEE49398
:10047900A360010ECF54C025E060A840B8E493A35F
:10048900FAE493A3F8E493A3C8C582C8CAC583CA8A
:10049900F0A3C8C582C8CAC583CADFE9DEE780BE42
:0100120000ED
:00000001FF
