:070D2C0002240000013C005D
:03000B00020CA440
:100CA400C0E0758CE5758AF5753801053EE53E7042
:100CB40002053D0527051BE51B7002051AD0E0322D
:100CC4007589FF5389F0438901538EF7758CE57557
:090CD4008AF5D2A9D2AFD28C221C
:10001600E4FFFEFDED25E02428F8E6FA08E62FFFCA
:10002600EA3EFE0DBD08EDEF7803CEC313CE13D81E
:02003600F9FFD0
:0100380022A5
:10095E00BD01067A007B1E8015BD02067A007B144F
:10096E00800CBD03067A007B0A8003E4FAFBE53BAC
:10097E00B401028013E53BB40202800CE53BB403E4
:10098E00028005E53BB40405C374B48046E53BB470
:10099E00051FD3EF9448EE940D400474508034D369
:1009AE00EF94E4EE940C4004745A8003C374A08058
:1009BE0022E53BB40624D3EF9448EE940D40047424
:1009CE00288010D3EF94E4EE940C4004743C800322
:0E09DE00C374829BF582E49AF583AF82AE83E8
:0109EC0022E8
:10028200E527D39F5002814FE4F527759504C2EF0D
:10029200D2EE30EFFDE4F595AFC3F5188F19E519ED
:1002A200C4F8540FC868F519E518C454F048F51895
:1002B200E5C2540F4219E54025E02428F8A61808A3
:1002C200A6190540E540C394085002814FE4F54069
:1002D200E541D3940040037F00221200168E188F4E
:1002E200191200068F17E517B40113120C33BF0160
:1002F200028019BF02047428801474308010E5173C
:10030200B4020474288007E517B4040B7418251985
:10031200F519E43518F518300117200614AD17AF9A
:1003220019AE1812095EC3E5199FF519E5189EF575
:100332001820052CC3E519941CE518940C50087577
:10034200390C753A1C8019D3E5199448E518940DB7
:10035200400875390C753AE4800685183985193AD2
:10036200300359E53A4539700685183985193AE559
:100372003A2408FFE43539FED3E5199FE5189E407B
:1003820015053CE53CD394084032E4F53C74052560
:100392003AF53AE4801EE53A24F8FFE53934FFFEE7
:1003A200C3E5199FE5189EE45010F53C74FB253A0D
:1003B200F53A74FF3539F5398002F53CD3E53A94C4
:1003C200D0E539940C400A751606300147D20680F2
:1003D20043D3E53A94A0E539940C4005751605809F
:1003E20033D3E53A9440E539940C40057516048000
:1003F20023D3E53A94E0E539940B40057516038062
:1004020013D3E53A94A0E539940B400575160280A2
:1004120003751601200633E53B651660040542802C
:1004220003E4F542E542D39405401FE4F54230016E
:1004320009E516D3953B4012800DE5176009E516D4
:0F044200C3953B5005800085163B7F01227F004C
:010451002288
:100CF60043B12053B2DF75EA20E4F5EB75E94043D2
:050D06009B02D2AF22A8
:100A6000E4F53DF53EF5B1F5B2F5B3F5B4F5ACF509
:100A7000AD53E1FE120ABBE4FF120D38E4FF120091
:100A800003120C08120CF643B38053B47FA2AF924A
:100A90000275C7AA75C75575910143B38075C7AA7A
:100AA00075C755E4F591A20292AFD2AA438702F529
:0B0AB000E9C2A8C2AA539BFDD200229D
:1009ED00120BCF120CC4E4F527F540120C82120C39
:1009FD005C752601D204E4F522F523F53FC201F51D
:100A0D0042F539F53A53E8F043E80243B18053B269
:100A1D007FF5F643F60443E101200323F53DF53E52
:100A2D00C3E53E94C8E53D9400500C208502D201EB
:100A3D00E4FF12028280E9D2037524077525D0E404
:100A4D00F53DF53EF51AF51BF5273005037541C843
:030A5D00C20622AC
:10003E00E4F5B1F5B2F5B3F5B4F5ACF5ADD200C259
:10004E0003C2053000051209EDC200E53860F4E583
:10005E002345226008E5231523700215221208BEDF
:10006E008F14E5266401704930041EC204120ABBC7
:10007E00E4FF120B0BE4FF120003E4F53DF53EC264
:10008E0001F5403005037541C8E51430E00B7522CB
:10009E0002752358AF26120B0BE51430E1057526B9
:1000AE0002D204E51420E2024122752604D2044154
:1000BE0022E52664026002214A30042BC204F53D7B
:1000CE00F53EC2011200068F15120003E5157003EE
:1000DE00FF8002AF26120B0B751A02751B58E4F542
:1000EE00403005037541C8E51430E0161204528FF6
:1000FE0015120003AF26120B0BE4F5403005037505
:10010E0041C8E51420E112752601D204120ABBE49F
:10011E00FF120003E4FF120B0BE51430E205752607
:10012E0008D204E51420E3024122120ABBE4FF12B6
:10013E000003E4F5402005024122411FE526640438
:10014E00704B300424C204F53DF53ED201120ABBB9
:10015E00E4FF120003AF26120B0B751A02751B5823
:10016E00E4F5403005037541C8E51430E105752608
:10017E0008D204E51430E207E4F53DF53E41227560
:10018E002601C201E4FF120B0BD2044122E52664C4
:10019E00086002412230041EC204F53DF53ED20134
:1001AE001200068F15120003AF26120B0BE4F5405A
:1001BE003005037541C8E51430E0111204528F1555
:1001CE00120003E4F5403005037541C8E51420E143
:1001DE000D752604D204120ABBE4FF120003E514C7
:1001EE0030E207E4F53DF53E8014752602C2011299
:1001FE0000068F15120003AF26120B0BD204E51466
:10020E0030E311120ABBE4FF120003E4F54030059F
:10021E00037541C8E541D39400400215417F051294
:10022E00028230060CE51430E205753B068002C2F0
:10023E00061205BDEF6013120ABBE4FF120003D2D3
:10024E0004E4F5403005037541C8120006EF600561
:10025E00E4F53DF53EAF2612081CC3E53E9525E5B7
:10026E003D9524500201517524077525D0D20512F3
:04027E000A600151C0
:03001300020009DF
:0100090032C4
:03003B00020B5164
:100B5100C0E0C0F0C083C082C0D075D000C000C06A
:100B610001C002C003C004C005C006C007E5ECB463
:100B71001003120D1D75EC00D007D006D005D0046E
:100B8100D003D002D001D000D0D0D082D083D0F019
:030B9100D0E0327F
:040D3300021A0000A0
:100BCF0053B3F743B40853B1FE43B20153B1FD43DE
:100BDF00B20253B1F743B208C293C280C281C2833B
:100BEF0053B3FE43B40153B3FD43B40253B3DF43D6
:090BFF00B420C290C291C29522FB
:100C080043B30843B40843B10143B20143B10243BB
:100C1800B20243B10843B20843B30143B40143B33A
:0B0C28000243B40243B32043B4202277
:100CDD00EF139293EFC313FF139280EFC313FF1320
:090CED009281EFC31313928322DC
:0B0D3800120CDDE4F51AF51BC20A22C4
:100D0B00EF139290EFC313FF139295EFC31313924C
:020D1B00912223
:03000300020D0BE0
:0906A900D20AF51A751B01AF0419
:1006B200EF6401702AE53BC3940540047E0FE16DAF
:1006C200E53BB404047E07E16DE53BB403047E031D
:1006D200E16DE53BB402047E01E16DE4FEE16DEF04
:1006E20064047028E53BB406047E0F807EE53BB4CB
:1006F20005047E078075E53BB404047E03806CE547
:100702003BB403047E018063E4FE805FEF64027009
:100712002FE53BC3940540047E0F804FE53BB404B4
:10072200047E078046E53BB403047E03803DE53B3F
:10073200B402047E018034E53B6401702EFE802BFE
:10074200EF64087026E53BB406047E0F801DE53B8E
:10075200B405047E078014E53BB404047E03800BD9
:0D076200E53BB403047E018002E4FEAF0617
:01076F002267
:020B0B00AC0735
:100B0D00E4F51AF51BEC7003FF8035BC0109AF0449
:100B1D001206B2AD078029BC0409AF041206B2ADAE
:100B2D0007801DBC0212AF041206B2AD07ED7004B2
:100B3D007F01800CAF058008BC0808AF041206B217
:030B4D00120D384E
:010B50002282
:02081C00AC0727
:10081E00BC0113C3E51B9458E51A9402500201BDA6
:10082E00E4FCFF020D38EC64047015C3E51B946400
:10083E00E51A94004079E4F51AF51B200A2B805135
:10084E00EC64027034C3E51B9432E51A9400405FE9
:10085E00E4F51AF51B200A111206A9AD07ED700575
:10086E00ED25E004FDAF058043C20AE4F51AF51B41
:10087E00AF041206B2AD078033EC64087031C3E5E5
:10088E001B9464E51A94004026E4F51AF51B200A21
:10089E000D1206A9AD07ED25E004FDFF800EC20A7C
:0F08AE00E4F51AF51BAF041206B2AD07120CDD0C
:0108BD002218
:100C8200E4F50DF50CF50AF50BC20BF509F5084371
:100C9200B38053B47F43AC0153ADFE43B12053B292
:020CA200DF224F
:1008BE00E4FFE5387002215DE4F538200B07A297BE
:1008CE0033F50D800D309707C20BE4F50AF50B8555
:1008DE000C0DE50D650C6017850D0CD3E50B940A18
:1008EE00E50A940040027F01E4F50AF50B8032E53B
:1008FE000D702E050BE50B7002050AC394F4E50A84
:10090E0094014008750A01750BF48015C3E50B942C
:10091E0090E50A9401400A750A01750BF47F08D21E
:10092E000B30B005E4F509800F0509E509D39414E1
:10093E004006750914430702308505E4F508800F5B
:0F094E000508E508D39414400675081443070400
:01095D002277
:100B940043B38053B47FA2AF920275C7AA75C755F9
:100BA40075910143B18075C7AA75C755E4F591A243
:100BB4000292AF43E90143E98043EA8053EB7F4368
:0B0BC4009B02D2AF43870253E9FE22E0
:0F0D1D00E511D3940040021511300702D20822CD
:100C5C00E4F51353B3FB43B404D292C207C208F5B4
:100C6C0012F51153B1BF43B240C28653B1EF43B238
:060C7C0010C284C209222F
:100ABB00539BFDE4F51353DEFEA2AF9202C2AF755A
:100ACB00C7AA75C755439101A20292AFF5D2F5DAC9
:100ADB00A2AF9202C2AF75C7AA75C7555391FEA2BA
:100AEB000292AFD2DEC2DCC292C207C208F511F588
:100AFB0012C284C28653B3FB43B404C292C209220E
:10045200E5136002A113D286A2AF920275C7AA75F4
:10046200C75575910143B41075C7AA75C755F59163
:10047200A20292AF43B31053B4EF43E90143E94000
:1004820053EAEF43EB10439B0253B3FB53B4FB43DA
:10049200DE0153DF3F538EBF75D10375D9E7A2AF9B
:1004A2009202C2AF75C7AA75C755439101A20292C3
:1004B200AF75D20175DAF3A2AF9202C2AF75C7AAC5
:1004C20075C7555391FEA20292AFD2DEA2AF92023D
:1004D200C2AF75C7AA75C755439101A20292AF7503
:1004E200D20175DA80A2AF9202C2AF75C7AA75C7F0
:1004F200555391FEA20292AFD2DED2DF751301757F
:100502000F01751080F50EC209D207F512D284A12F
:10051200B8E5136401705A75130243DE0153DF3FDD
:10052200538EBF75D10375D9E7A2AF9202C2AF75E0
:10053200C7AA75C755439101A20292AF75D2017540
:10054200DAF3A2AF9202C2AF75C7AA75C75553912B
:10055200FEA20292AFD2DEA2AF9202C2AF75C7AACA
:1005620075C755439101A20292AFF5D275DAF080B8
:1005720022E51364027037751304A2AF9202C2AF70
:1005820075C7AA75C755439101A20292AF75D201F0
:1005920075DA80A2AF9202C2AF75C7AA75C755536A
:1005A20091FEA20292AFD2DED2DFC2098008E51329
:0B05B200B40403120ABBAF137E00224A
:03000600AF132213
:100C33003009037F0022AFD2EFFEADDAEDFFD3EF31
:100C43009420EE940140037F0122D3EF9480EE942D
:080C53000040037F02227F0331
:010C5B002276
:1005BD0030073E0512E512C3943C40350511200865
:1005CD000AE512D3946440297F0122300823120CCE
:1005DD00337E00EF640170047C0A800CEF64024EE0
:1005ED0070047C0880027C05E511C39C40037F01EB
:1005FD0022E51364016002C1A6300902C1A6050EF1
:10060D00E50EC394145002C1A6E4F50E74FA25103C
:10061D00F51074FF350FF50FC3E510940AE50F942F
:10062D0000404074FA2510F51074FF350FF50FA238
:10063D00AF9202C2AF75C7AA75C755439101A20209
:10064D0092AFE50FF5D2E510F5DAA2AF9202C2AF87
:10065D0075C7AA75C7555391FEA20292AFD2DEC2DD
:10066D00DC8036D20953DEFEA2AF9202C2AF75C74F
:10067D00AA75C755439101A20292AFE4F5D2F5DAFE
:10068D00A2AF9202C2AF75C7AA75C7555391FEA20C
:0B069D000292AFD2DEC2DCC2927F00EE
:0106A800222F
:0300000002077084
:1007700075C7AA75C75575FD5A75C7AA75C755754A
:10078000FDA5787FE4F6D8FD9000007FFF7E03E4AE
:0C079000F0A3DFFCDEFA7581420207D7FF
:10079C0002003EE493A3F8E493A34003F68001F235
:1007AC0008DFF48029E493A3F85407240CC8C3335E
:1007BC00C4540F4420C8834004F456800146F6DF2D
:1007CC00E4800B0102040810204080900D2CE47E84
:1007DC00019360BCA3FF543F30E509541FFEE49322
:1007EC00A360010ECF54C025E060A840B8E493A3E9
:1007FC00FAE493A3F8E493A3C8C582C8CAC583CA14
:10080C00F0A3C8C582C8CAC583CADFE9DEE780BECB
:010D370000BB
:00000001FF
