:03000B00020AAA3C
:100AAA00C0E0758CE5758AF5753601053BE53B7046
:100ABA0002053A05250519E51970020518D0E03234
:100ACA007589FF5389F0438901538EF7758CE57553
:090ADA008AF5D2A9D2AFD28C2218
:100A6500E4FFFEFDED25E02426F8E6FA08E62FFF73
:100A7500EA3EFE0DBD08EDEF7803CEC313CE13D8C5
:020A8500F9FF77
:010A8700224C
:1003B600E525D39F500281D3E4F525C2EFD2EE3076
:1003C600EFFDAFC37537008F38E538C4F8540FC852
:1003D60068F538E537C454F048F537E5C2540F429E
:1003E60038E53D25E02426F8A63708A638053DE57C
:1003F6003DC39408500281D3E4F53D120A658E3759
:100406008F3812000E8F17E517B40113120A3CBF7E
:1004160001028019BF02047410801474208010E554
:1004260017B4020474108007E517B4040B7408258A
:1004360038F538E43537F537300122E539C394030A
:10044600500474B0800DE539C39405500474C0801F
:100456000274D02538F53874FF3537F537D3E538CB
:100466009420E537940D40057516068043D3E5388C
:1004760094B0E537940C40057516058033D3E538FE
:100486009440E537940C40057516048023D3E5386F
:1004960094E0E537940B40057516038013D3E538D1
:1004A60094A0E537940B4005751602800375160176
:1004B600E53965166004053E8003E4F53EE53ED366
:0F04C60094044006E4F53E8516397F01227F003D
:0104D5002204
:1008A0001209D8120ACAE4F525F53D120A88120089
:1008B00016752401D204E4F522F523F53CC201F5B6
:1008C0003E53E8F043E80243B18053B27FF5F6436C
:1008D000F60443E101200316C3E53B943CE53A945A
:1008E000005007E4FF1203B680EED2038012C3E586
:1008F0003B9414E53A940050077F011203B680EE52
:0C090000E4F53AF53BF518F519F5252251
:100AFC0043B12053B2DF75EA20E4F5EB75E94043CE
:050B0C009B02D2AF22A4
:10003E00E4F5B1F5B2F5B3F5B4F5ACF5ADD200C259
:10004E00033000051208A0C200E53660F4E5234532
:10005E00226008E5231523700215221208008F1462
:10006E00E52464017041300416C20412090CE4FF49
:10007E001207B4E4FF120008E4F53AF53BC201E5BD
:10008E001430E00B752202752358AF241207B4E525
:10009E001430E105752402D204E51420E20221DFBA
:1000AE00752404D20421DFE5246402706C30041C34
:1000BE00C204F53AF53BC20112000E8F151200086C
:1000CE00E5157003FF8002AF241207B4E51430E08B
:1000DE00141202728F15120008E5157003FF8002CC
:1000EE00AF241207B4E51420E112752401D20412D4
:1000FE00090CE4FF120008E4FF1207B4E51430E225
:10010E0005752408D204E51420E30221DF12090C40
:10011E00E4FF120008E4FF21DCE5246404703C30A7
:10012E000415C204F53AF53BD20112090CE4FF1294
:10013E000008AF241207B4E51430E105752408D287
:10014E0004E51430E207E4F53AF53B21DF752401AE
:10015E00C201E4FF1207B4D2048076E5246408706D
:10016E0070300415C204F53AF53BD20112000E8F21
:10017E0015120008AF241207B4E51430E00812027D
:10018E00728F15120008E51420E10D752404D204B7
:10019E0012090CE4FF120008E51430E207E4F53A08
:1001AE00F53B801B752402C20112000E8F15120042
:1001BE0008E5157003FF8002AF241207B4D204E5E0
:1001CE001430E30D12090CE4FF120008AF241207DD
:1001DE00B47F051203B61204D6EF600F12090CE4B9
:1001EE00FF120008E4FF1207B4D20412000EEF60F3
:1001FE0005E4F53AF53BAF24120712C3E53B94D064
:10020E00E53A94075002014FE4F53AF53BF5B1F5A6
:10021E00B2F5B3F5B4F5ACF5AD53E1FE12090CE44D
:10022E00FF120B2FE4FF120008120A11120AFC43F0
:10023E00B38053B47FA2AF920275C7AA75C7557526
:10024E00910143B38075C7AA75C755E4F591A20213
:10025E0092AFD2AA438702F5E9C2A8C2AA539BFD68
:04026E00D200014F6A
:03001300020011D7
:0100110032BC
:03003B0002095A5D
:10095A00C0E0C0F0C083C082C0D075D000C000C063
:10096A0001C002C003C004C005C006C007E5ECB45C
:10097A001003120B2375EC00D007D006D005D00463
:10098A00D003D002D001D000D0D0D082D083D0F012
:03099A00D0E03278
:0400030002180000DF
:1009D80053B3F743B40853B1FE43B20153B1FD43D7
:1009E800B20253B1F743B208C293C280C281C28334
:1009F80053B3FE43B40153B3FD43B40253B3DF43CF
:090A0800B420C290C291C29522F3
:100A110043B30843B40843B10143B20143B10243B4
:100A2100B20243B10843B20843B30143B40143B333
:0B0A31000243B40243B32043B4202270
:100AE300EF139293EFC313FF139280EFC313FF131C
:090AF3009281EFC31313928322D8
:0B0B2F00120AE3E4F518F519C20822D1
:100B1100EF139290EFC313FF139295EFC313139248
:020B210091221F
:03000800020B11D7
:0905A000D208F518751901AF0429
:1005A900EF64017029E539C3940540047E0FC163E6
:1005B900E539B404047E07C163E539B403047E0355
:1005C900C163E53964026002C1637E01C163EF64FE
:1005D900047028E539B406047E0F807EE539B40538
:1005E900047E078075E539B404047E03806CE5391F
:1005F900B403047E018063E4FE805FEF6402702F20
:10060900E539C3940540047E0F804FE539B40404ED
:100619007E078046E539B403047E03803DE539B49D
:1006290002047E018034E5396401702EFE802BEFCF
:1006390064087026E539B406047E0F801DE539B4D7
:1006490005047E078014E539B404047E03800BE5B4
:0C06590039B403047E018002E4FEAF0609
:010665002272
:0207B400AC0790
:1007B600E4F518F519EC7003FF8035BC0109AF04A8
:1007C6001205A9AD078029BC0409AF041205A9AD1D
:1007D60007801DBC0212AF041205A9AD07ED700417
:1007E6007F01800CAF058008BC0808AF041205A97C
:0307F600120B2FB4
:0107F90022DD
:02071200AC0732
:10071400BC0113C3E5199458E51894025002E1B3DF
:10072400E4FCFF020B2FEC64047015C3E519946418
:10073400E51894004079E4F518F51920082B805148
:10074400EC64027034C3E5199432E5189400405FF8
:10075400E4F518F5192008111205A0AD07ED700590
:10076400ED25E004FDAF058043C208E4F518F51952
:10077400AF041205A9AD078033EC64087031C3E5FA
:10078400199464E51894004026E4F518F519200836
:100794000D1205A0AD07ED25E004FDFF800EC20893
:0F07A400E4F518F519AF041205A9AD07120AE321
:0107B3002223
:100A8800E4F50DF50CF50AF50BC209F509F508436F
:100A9800B38053B47F43AC0153ADFE43B12053B28E
:020AA800DF224B
:10080000E4FFE5367002019FE4F536200907A29760
:1008100033F50D800D309707C209E4F50AF50B8515
:100820000C0DE50D650C6017850D0CD3E50B940AD6
:10083000E50A940040027F01E4F50AF50B8032E5F9
:100840000D702E050BE50B7002050AC394F4E50A42
:1008500094014008750A01750BF48015C3E50B94EB
:1008600090E50A9401400A750A01750BF47F08D2DD
:100870000930B005E4F509800F0509E509D39414A2
:100880004006750914430702308505E4F508800F1A
:0F0890000508E508D394144006750814430704BF
:01089F002236
:10099D0043B38053B47FA2AF920275C7AA75C755F2
:1009AD0075910143B18075C7AA75C755E4F591A23C
:1009BD000292AF43E90143E98043EA8053EB7F4361
:0B09CD009B02D2AF43870253E9FE22D9
:0C0B2300E511D3940040021511D2062207
:10001600E4F51353B3FB43B404D292C205C206F50A
:1000260012F51153B1BF43B240C28653B1EF43B28A
:0400360010C284224E
:10090C00539BFDE4F51353DEFEA2AF9202C2AF750A
:10091C00C7AA75C755439101A20292AFF5D2F5DA79
:10092C00A2AF9202C2AF75C7AA75C7555391FEA26A
:10093C000292AFD2DEC2DCC292C205C206F511F53C
:0E094C0012C284C28653B3FB43B404C292228B
:10027200E5136002610ED286D20575126475E90536
:10028200F5EA75EB10439B02751301D28453B3FB5D
:1002920053B4FB43DE0153DF3F538EBF75D1037569
:1002A200D9E7A2AF9202C2AF75C7AA75C7554391EB
:1002B20001A20292AF75D20175DAF3A2AF9202C225
:1002C200AF75C7AA75C7555391FEA20292AFD2DE8F
:1002D200A2AF9202C2AF75C7AA75C755439101A2D8
:1002E2000292AF75D20175DA80A2AF9202C2AF75E7
:1002F200C7AA75C7555391FEA20292AFD2DED2DFD2
:10030200750F01751080F50EC20761B1E513640126
:10031200705A75130243DE0153DF3F538EBF75D10E
:100322000375D9E7A2AF9202C2AF75C7AA75C755C6
:10033200439101A20292AF75D20175DAF3A2AF9294
:1003420002C2AF75C7AA75C7555391FEA20292AFFA
:10035200D2DEA2AF9202C2AF75C7AA75C75543914A
:1003620001A20292AFF5D275DAF08022E51364029F
:100372007035751304A2AF9202C2AF75C7AA75C7D2
:1003820055439101A20292AF75D20175DA80A2AFF4
:100392009202C2AF75C7AA75C7555391FEA20292C7
:1003A200AFD2DED2DF8008E513B4040312090CAF2A
:0403B200137E002294
:03000E00AF13220B
:100A3C003007037F0022AFD2EFFEADDAEDFFD3EF2C
:100A4C009420EE940140037F0122D3EF9480EE9426
:080A5C000040037F02227F032A
:010A6400226F
:1004D60030051C051130060AE511C3940A40107F49
:1004E6000122E512D394004006D512037F0122E5CE
:1004F6001364016002A19D300702A19D050EE50E61
:10050600C394145002A19DE4F50E74FA2510F5105B
:1005160074FF350FF50FC3E510940AE50F940040FC
:100526004074FA2510F51074FF350FF50FA2AF923F
:1005360002C2AF75C7AA75C755439101A20292AF11
:10054600E50FF5D2E510F5DAA2AF9202C2AF75C794
:10055600AA75C7555391FEA20292AFD2DEC2DC80C5
:1005660036D20753DEFEA2AF9202C2AF75C7AA7596
:10057600C755439101A20292AFE4F5D2F5DAA2AFD4
:100586009202C2AF75C7AA75C7555391FEA20292D1
:0A059600AFD2DEC2DCC2927F002269
:030000000206668F
:1006660075C7AA75C75575FD5A75C7AA75C7557555
:10067600FDA5787FE4F6D8FD9000007FFF7E03E4B9
:0C068600F0A3DFFCDEFA75813E0206CD19
:1006920002003EE493A3F8E493A34003F68001F240
:1006A20008DFF48029E493A3F85407240CC8C33369
:1006B200C4540F4420C8834004F456800146F6DF38
:1006C200E4800B0102040810204080900003E47EC5
:1006D200019360BCA3FF543F30E509541FFEE4932D
:1006E200A360010ECF54C025E060A840B8E493A3F4
:1006F200FAE493A3F8E493A3C8C582C8CAC583CA1F
:10070200F0A3C8C582C8CAC583CADFE9DEE780BED6
:0100070000F8
:00000001FF
