:0F0F0C000A2056616C7565203D203078257800ED
:03000B00020016DA
:10001600C0E0758CE5758AF5753601053CE53C70E2
:1000260002053B0525054CE54C7002054B301102D7
:050036000549D0E03295
:100EC8007589FF5389F0438901538EF7758CE57551
:090ED8008AF5D2A9D2AFD28C2216
:100E6300E4FFFEFDED25E02426F8E6FA08E62FFF71
:100E7300EA3EFE0DBD08EDEF7803CEC313CE13D8C3
:020E8300F9FF75
:010E8500224A
:100E3C00E539B404047F0F801DE539B403047F0742
:100E4C008014E539B402047F03800BE539B4010446
:060E5C007F018002E4FFAB
:010E6200226D
:10094100E525D3940050024119E4F525C2EFD2EE1A
:1009510030EFFDAFC3750A008F0BE50BC4F8540FE0
:10096100C868F50BE50AC454F048F50AE5C2540F0E
:10097100420BE53E25E02426F8A60A08A60B053E13
:10098100E53EC3940850024119E4F53E120E638E10
:100991000A8F0B1207FABF01047420800CBF0204F6
:1009A10074108005BF040B7408250BF50BE4350AA0
:1009B100F50A300B0C7480250BF50B74FF350AF525
:1009C1000AD3E50B94A0E50A940C4005750C04804C
:1009D1003AD3E50B9440E50A940C4005750C03806D
:1009E1002AD3E50B94D0E50A940B4005750C0280DF
:1009F1001AD3E50B9460E50A940B4005750C018050
:100A01000AC3E50A940A5003E4F50C850C39053F45
:0A0A1100120E3C8F3D7F01227F0092
:010A1B0022B8
:100DD80053B1BF53B2BF53B17F53B27F75985043DD
:100DE8008920438780438E1053C4DFAB07AA06A926
:100DF80005A8047F407E427D0F7C00120625EF0483
:090E0800F404F58DD28ED299227A
:080BED007F017E007D007C0009
:100BF5008F0D8E0C8D0B8C0A75C40743C408E4FF5A
:100C0500FEFDFCAB0DAA0CA90BA80AC31206B76022
:100C15002B75C5E575C6F5E5C430E4FB53C4EFE5B2
:100C25000D24FFFFE50C34FFFEE50B34FFFDE50A5F
:100C350034FF8F0D8E0C8D0BF50A80C253C4F7223D
:100B8000120D22E4F525F53E120E8643B11043B254
:100B900010120BED53E8F043E80543B11053B2EFE8
:100BA000E4F5F643F62043E101C2EFD2EE30EFFD6B
:100BB000AFC37537008F38E538C4F8540FC868F5EF
:100BC00038E537C454F048F537E5C2540F4238E5EC
:100BD00037C313F537E53813F5387BFF7A0F790CF7
:0D0BE00085370DF50E1200A0120BED80BC44
:10039A00E4F5B1F5B2F5B3F5B4F5ACF5AD438E02BB
:1003AA00F5B1F5B2F5B3F5B4F5ACF5ADFF7EC27DA6
:1003BA0001FC120DD8D209C20D300905120B80C2F8
:1003CA0009E53660F4E523600215231207568F0803
:1003DA00E52464017048300E16C20EFDFF120F1B91
:1003EA00E4FDFF120003E4F53AF53BF53CC20BE5E8
:1003FA000830E008753A01D20A7523C8E50830E1E9
:10040A0005752402D20EE50820E202A136E524B4DD
:10041A0002057524088003752404D20EA136E5244A
:10042A0064027058300E0DC20E753A02D20AF53BBC
:10043A00F53CC20BE50830E00A1208008F09E4FD1A
:10044A00120003E50820E10E752401D20E120C9564
:10045A00E4FDFF120003E50830E218E524B40105C3
:10046A007524048003752408120C95E4FDFF12001C
:10047A0003D20EE50820E302A136A12DE524640487
:10048A007040300E16C20E753A03D20AF53BF53C9F
:10049A00D20B120C95E4FDFF120003E50830E105CA
:1004AA00752408D20EE50830E207E4F53BF53C80F6
:1004BA007BE524B408057524028003752401D20E55
:1004CA00806AE52464087064300E0DC20ED20A7583
:1004DA003A03F53BF53CD20BE50830E00A12080076
:1004EA008F09E4FD120003E50820E10E752404D209
:1004FA000E120C95E4FDFF120003E50830E207E452
:10050A00F53BF53C8018E524B40405752401800305
:10051A00752402D20E120C95E4FDFF120003E508C1
:10052A0030E309120C95E4FDFF120003120941E5BC
:10053A003A6025300A11E53D600DE53A14F509FDEA
:10054A00AF3D120F1BC20AE523700DE53AB401084C
:10055A00E4F53AFDFF120F1B120A1CEF6009120C98
:10056A0095E4FDFF1200031207FAEF6005E4F53B7C
:10057A00F53CAF3D120C45C3E53C94D0E53B9407EE
:10058A00500261C3E4F53BF53CF5B1F5B2F5B3F5BC
:10059A00B4F5ACF5AD53E1FE120C95E4FDFF120F74
:1005AA001BE4FDFF120003120E1143B38053B47F04
:1005BA00A2AF920C75C7AA75C75575910143B3804E
:1005CA0075C7AA75C755E4F591A20C92AFD2AA4392
:0F05DA008702F5E9C2A8C2AA539BFDD20961C3EB
:030013000207FDE4
:0107FD0032C9
:03003B00020CDFD5
:100CDF00C0E0C0F0C083C082C0D075D000C000C0DB
:100CEF0001C002C003C004C005C006C007E5ECB4D4
:100CFF0010031207F675EC00D007D006D005D0040C
:100D0F00D003D002D001D000D0D0D082D083D0F089
:030D1F00D0E032EF
:04000E00024B0000A1
:100D220053B3F743B40853B1FE43B20153B1FD4389
:100D3200B20253B1F743B208C293C280C281C283E6
:100D420053B3FE43B40153B3FD43B40253B3DF4381
:0E0D5200B420C290C291C295E4F54DC20F22AA
:100E110043B30843B40843B10143B20143B10243B0
:100E2100B20243B10843B20843B30143B40143B32F
:0B0E31000243B40243B32043B420226C
:100EE100EF139293EFC313FF139280EFC313FF131A
:090EF1009281EFC31313928322D6
:0D0F1B008D4D120EE1E4F54BF54CC2102295
:100EFA00EF139290EFC313FF139295EFC31313925C
:020F0A00912232
:08000300ED24FF920F020EFA3A
:100C4500E54D6401701CE54C64587004E54B640285
:100C5500703DF54BF54C20102CD210F54B754C0121
:100C65008020E54D64027027E54C64C8454B701F34
:100C7500F54BF54C20100ED210F54B754C01EF25B8
:100C8500E004FF8007C210E4F54BF54C120EE1229B
:100E8600E4F545F544F542F543C213F541F5404313
:100E9600B38053B47F43AC0153ADFE43B12053B28C
:020EA600DF2249
:10075600E4FFE5367002E1F5E4F536201307A297CB
:1007660033F545800D309707C213E4F542F543850E
:100776004445E54565446017854544D3E543940AF9
:10078600E542940040027F01E4F542F5438032E5FC
:1007960045702E0543E54370020542C394F4E542D5
:1007A600940140087542017543F48015C3E54394EE
:1007B60090E5429401400A7542017543F47F08D2E0
:1007C6001330B005E4F541800F0541E541D394149B
:1007D6004006754114430702308505E4F540800F55
:0F07E6000540E540D394144006754014430704C2
:0107F50022E1
:100D9D0043B38053B47FA2AF920C75C7AA75C755E4
:100DAD0075910143B18075C7AA75C755E4F591A238
:100DBD000C92AF43E90143E98043EA8053EB7F4353
:0B0DCD009B02D2AF43870253E9FE22D5
:0407F600E4F54922BB
:100EA800E4F54A53B3FB43B404D292C211F5495353
:100EB800B1BF43B240C28653B1EF43B210C28422DD
:100C9500539BFDE4F54A53DEFEA2AF920CC2AF753D
:100CA500C7AA75C755439101A20C92AFF5D2F5DAE3
:100CB500A2AF920CC2AF75C7AA75C7555391FEA2D4
:100CC5000C92AFD2DEC2DCC292C211F549C284C217
:0A0CD5008653B3FB43B404D292220D
:10080000E54A60020199D286D21175E905F5EA75CB
:10081000EB10439B02754A01D28453B3FB53B4FBE4
:1008200043DE0153DF3F538EBF75D10375D9E7A275
:10083000AF920CC2AF75C7AA75C755439101A20C00
:1008400092AF75D20175DAF3A2AF920CC2AF75C741
:10085000AA75C7555391FEA20C92AFD2DEA2AF92F9
:100860000CC2AF75C7AA75C755439101A20C92AFD0
:1008700075D20175DA80A2AF920CC2AF75C7AA75A6
:10088000C7555391FEA20C92AFD2DED2DF7547015D
:10089000754880F546C212213CE54A6401705A75DC
:1008A0004A0243DE0153DF3F538EBF75D10375D932
:1008B000E7A2AF920CC2AF75C7AA75C755439101A5
:1008C000A20C92AF75D20175DAF3A2AF920CC2AF4F
:1008D00075C7AA75C7555391FEA20C92AFD2DEA27E
:1008E000AF920CC2AF75C7AA75C755439101A20C50
:1008F00092AFF5D275DAF08022E54A640270357560
:100900004A04A2AF920CC2AF75C7AA75C7554391EE
:1009100001A20C92AF75D20175DA80A2AF920CC21F
:10092000AF75C7AA75C7555391FEA20C92AFD2DE20
:10093000D2DF8008E54AB40403120C95AF4A7E006A
:010940002294
:0307FA00AF4A22E1
:100A1C0030110AE549D3940A40037F0122E54A6468
:100A2C0001600241D130120241D10546E546C39422
:100A3C0014500241D1E4F54674FA2548F54874FF88
:100A4C003547F547C3E548940AE5479400404074A0
:100A5C00FA2548F54874FF3547F547A2AF920CC20A
:100A6C00AF75C7AA75C755439101A20C92AFE54764
:100A7C00F5D2E548F5DAA2AF920CC2AF75C7AA75EC
:100A8C00C7555391FEA20C92AFD2DEC2DC8036D297
:100A9C001253DEFEA2AF920CC2AF75C7AA75C75532
:100AAC00439101A20C92AFE4F5D2F5DAA2AF920C0D
:100ABC00C2AF75C7AA75C7555391FEA20C92AFD29F
:080ACC00DEC2DCC2927F0022B1
:100D6000EF640A701C309811E599B4130CC29830E6
:100D700098FDE599B411F6C2983099FDC29975991C
:100D80000D309811E599B4130CC2983098FDE5998F
:0D0D9000B411F6C2983099FDC2998F9922D6
:03000000020AD41D
:100AD40075C7AA75C75575FD5A75C7AA75C75575E3
:100AE400FDA5787FE4F6D8FD9000007FFF7E03E447
:0C0AF400F0A3DFFCDEFA75814D020B3B25
:100B000002039AE493A3F8E493A34003F68001F26E
:100B100008DFF48029E493A3F85407240CC8C333F6
:100B2000C4540F4420C8834004F456800146F6DFC5
:100B3000E4800B010204081020408090000EE47E47
:100B4000019360BCA3FF543F30E509541FFEE493BA
:100B5000A360010ECF54C025E060A840B8E493A381
:100B6000FAE493A3F8E493A3C8C582C8CAC583CAAC
:100B7000F0A3C8C582C8CAC583CADFE9DEE780BE64
:0100120000ED
:1005E90075F008758200EF2FFFEE33FECD33CDCCC9
:1005F90033CCC58233C5829BED9AEC99E58298404C
:100609000CF582EE9BFEED9AFDEC99FC0FD5F0D628
:10061900E4CEFBE4CDFAE4CCF9A88222B800C1B952
:100629000059BA002DEC8BF084CFCECDFCE5F0CB90
:10063900F97818EF2FFFEE33FEED33FDEC33FCEBC9
:1006490033FB10D703994004EB99FB0FD8E5E4F984
:10065900FA227818EF2FFFEE33FEED33FDEC33FC71
:10066900C933C910D7059BE99A4007EC9BFCE99A65
:10067900F90FD8E0E4C9FAE4CCFB2275F010EF2FAA
:10068900FFEE33FEED33FDCC33CCC833C810D707AA
:100699009BEC9AE899400AED9BFDEC9AFCE899F8E5
:0E06A9000FD5F0DAE4CDFBE4CCFAE4C8F92278
:1006B700EB9FF5F0EA9E42F0E99D42F0E89C45F099
:0106C7002210
:10003E00E519240DF8E6051922780A300702780D25
:10004E00E475F0011207200206C82000EB7F2ED2C5
:10005E00008018EF540F2490D43440D4FF30040B9A
:10006E00EF24BFB41A0050032461FFE51A60021595
:10007E001A051DE51D7002051C30070D780AE47582
:10008E00F001120720EF02070E020D607403D20773
:10009E008003E4C207F5198B0A8A0B890CE4F51A62
:1000AE00F51CF51DE51A60077F2012007980F575A5
:1000BE001BFFC201C200C202C203C205C206C208B1
:1000CE00120047FF700D3007057F0012008AAF1D2A
:1000DE00AE1C22B4255FC2D5C204120047FF24D045
:1000EE00B40A00501A75F00A781A30D50508B6FF12
:1000FE000106C6A426F620D5047002D20380D924A8
:10010E00CFB41A00EF5004C2E5D20402028AD20123
:10011E0080C6D20080C0D20280BCD2D580BAD205B1
:10012E0080B47F201200792002077401B51A0040B6
:10013E00F112003EFF1200790200B2D208D2068000
:10014E009512003EFB12003EFA12003EF94A4B7029
:10015E0006795B7A037BFF20022EE51A602A7E0069
:10016E008E827583001206E160060EEE651B70F03E
:10017E00C2D5EBC0E0EAC0E0E9C0E0EE1202D1D099
:10018E00E0F9D0E0FAD0E0FB1206C8FF60AAEBC09F
:10019E00E0EAC0E0E9C0E0120079D0E02401F9D035
:1001AE00E03400FAD0E0FBE51B0460DCD51BD980FF
:1001BE00877BFF7A0279CDD202809C7910800279FA
:1001CE0008C206C2088008D2D5790A8004790AC20C
:1001DE00D5E51B047002F51BE4FAFDFEFF12003E8E
:1001EE00FC7B0820011312003EFD7B1030000A122A
:1001FE00003EFE12003EFF7B20EC3382D592D5509E
:10020E0013C3E43000069FFFE49EFEE42001039D2D
:10021E00FDE49CFCE4CBF8C201EC700CCFCECDCC4F
:10022E00E824F8F870F38017C3EF33FFEE33FEEDDA
:10023E0033FDEC33FCEB33FB994002FB0FD8E9EBBB
:10024E00300105F8D0E0C448B201C0E00AEC4D4ED2
:10025E004F78207B0070C2EAB51B0040BCC0E01294
:10026E0002D3D0F0D0E0200104C4C0E0C4B201C07B
:10027E00F0120062D0F0D5F0EB0200B2120730019E
:10028E004F5301C95801204C011C4201CD4F01D5DD
:0F029E004401D54901354301DB5501BF4601BF7E
:1002AD004501BF47037B5001242D01282E014B2B07
:1002BD00012C2301492003642A00E4480000014376
:1002CD003F3F3F00790AA2D5200314300509B9102C
:1002DD00020404B9080104A2D5200602500104202D
:1002ED0002689202B51A005034C0E07F2030031925
:1002FD007F30A20272067205500F12032AC202C28B
:10030D0006C205C2087F30800F300503E9C0E01238
:10031D000079300503D0E0F9D0E0B51ACC300517DF
:10032D007F30B9100C1200797F583004077F788028
:10033D0003B908031200793002057F2D0200797F81
:10034D00202008F87F2B2006F322920280CF286E02
:10035D00756C6C2900D20112003E3001F8C2017893
:10036D001A30D50108F60200E42D50434958120009
:10037D003E2403B405004001E49003769312006A15
:0D038D00743A12006AD203751A040201C905
:1006C800BB010689828A83E0225002E722BBFE0230
:0906D800E32289828A83E4932263
:1006E100BB010CE58229F582E5833AF583E02250CE
:1006F10006E92582F8E622BBFE06E92582F8E22218
:0D070100E58229F582E5833AF583E4932231
:10070E00BB010689828A83F0225002F722BBFE01CA
:02071E00F322C4
:10072000FAE6FB0808E6F925F0F618E6CA3AF622DA
:10073000D083D082F8E4937012740193700DA3A358
:1007400093F8740193F5828883E47374029368606C
:06075000EFA3A3A380DF6C
:00000001FF
